{
  "contractName": "CoinFlip",
  "abi": [
    {
      "anonymous": false,
      "inputs": [
        {
          "indexed": false,
          "internalType": "uint256",
          "name": "balance",
          "type": "uint256"
        }
      ],
      "name": "showBalance",
      "type": "event"
    },
    {
      "constant": true,
      "inputs": [],
      "name": "checkBalance",
      "outputs": [
        {
          "internalType": "uint256",
          "name": "balance",
          "type": "uint256"
        }
      ],
      "payable": false,
      "stateMutability": "view",
      "type": "function"
    },
    {
      "constant": true,
      "inputs": [],
      "name": "checkRegistration",
      "outputs": [
        {
          "internalType": "bool",
          "name": "",
          "type": "bool"
        }
      ],
      "payable": false,
      "stateMutability": "view",
      "type": "function"
    },
    {
      "constant": false,
      "inputs": [
        {
          "internalType": "string",
          "name": "accountToRegister",
          "type": "string"
        }
      ],
      "name": "createAccount",
      "outputs": [],
      "payable": false,
      "stateMutability": "nonpayable",
      "type": "function"
    },
    {
      "constant": false,
      "inputs": [],
      "name": "deposit",
      "outputs": [],
      "payable": true,
      "stateMutability": "payable",
      "type": "function"
    },
    {
      "constant": false,
      "inputs": [
        {
          "internalType": "address",
          "name": "toAddress",
          "type": "address"
        },
        {
          "internalType": "uint256",
          "name": "amount",
          "type": "uint256"
        }
      ],
      "name": "transferToAddress",
      "outputs": [],
      "payable": false,
      "stateMutability": "nonpayable",
      "type": "function"
    },
    {
      "constant": false,
      "inputs": [
        {
          "internalType": "string",
          "name": "toAccountID",
          "type": "string"
        },
        {
          "internalType": "uint256",
          "name": "amount",
          "type": "uint256"
        }
      ],
      "name": "transferToID",
      "outputs": [],
      "payable": false,
      "stateMutability": "nonpayable",
      "type": "function"
    },
    {
      "constant": false,
      "inputs": [
        {
          "internalType": "uint256",
          "name": "amount",
          "type": "uint256"
        }
      ],
      "name": "withdraw",
      "outputs": [],
      "payable": true,
      "stateMutability": "payable",
      "type": "function"
    },
    {
      "constant": false,
      "inputs": [
        {
          "internalType": "uint256",
          "name": "betValue",
          "type": "uint256"
        }
      ],
      "name": "initializeGame",
      "outputs": [],
      "payable": false,
      "stateMutability": "nonpayable",
      "type": "function"
    },
    {
      "constant": false,
      "inputs": [],
      "name": "joinGame",
      "outputs": [],
      "payable": false,
      "stateMutability": "nonpayable",
      "type": "function"
    },
    {
      "constant": false,
      "inputs": [
        {
          "internalType": "bytes32",
          "name": "hashValue",
          "type": "bytes32"
        }
      ],
      "name": "submitHash",
      "outputs": [],
      "payable": false,
      "stateMutability": "nonpayable",
      "type": "function"
    },
    {
      "constant": false,
      "inputs": [
        {
          "internalType": "uint256",
          "name": "randomNumber",
          "type": "uint256"
        }
      ],
      "name": "submitClearText",
      "outputs": [],
      "payable": false,
      "stateMutability": "nonpayable",
      "type": "function"
    }
  ],
  "bytecode": "0x60806040526040518060400160405280600081526020016000815250600260008201518160000155602082015181600101555050600060055560006006556000600760006101000a81548160ff0219169083151502179055506000600760016101000a81548160ff021916908315150217905550600160085534801561008457600080fd5b506127b7806100946000396000f3fe60806040526004361061009c5760003560e01c8063acef603711610064578063acef6037146102df578063c71daccb1461033a578063d0e30db014610365578063d4f77b1c1461036f578063ee58794114610386578063fd1b2100146103c15761009c565b806308891a32146100a15780630c41bda8146100dc578063298daf5b146101ae5780632e1a7d4d14610276578063725c49c0146102a4575b600080fd5b3480156100ad57600080fd5b506100da600480360360208110156100c457600080fd5b81019080803590602001909291905050506103f0565b005b3480156100e857600080fd5b506101ac600480360360408110156100ff57600080fd5b810190808035906020019064010000000081111561011c57600080fd5b82018360208201111561012e57600080fd5b8035906020019184600183028401116401000000008311171561015057600080fd5b91908080601f016020809104026020016040519081016040528093929190818152602001838380828437600081840152601f19601f8201169050808301925050505050505091929192908035906020019092919050505061064b565b005b3480156101ba57600080fd5b50610274600480360360208110156101d157600080fd5b81019080803590602001906401000000008111156101ee57600080fd5b82018360208201111561020057600080fd5b8035906020019184600183028401116401000000008311171561022257600080fd5b91908080601f016020809104026020016040519081016040528093929190818152602001838380828437600081840152601f19601f820116905080830192505050505050509192919290505050610a91565b005b6102a26004803603602081101561028c57600080fd5b8101908080359060200190929190505050610f33565b005b3480156102b057600080fd5b506102dd600480360360208110156102c757600080fd5b81019080803590602001909291905050506111af565b005b3480156102eb57600080fd5b506103386004803603604081101561030257600080fd5b81019080803573ffffffffffffffffffffffffffffffffffffffff16906020019092919080359060200190929190505050611424565b005b34801561034657600080fd5b5061034f61175a565b6040518082815260200191505060405180910390f35b61036d611853565b005b34801561037b57600080fd5b506103846119ce565b005b34801561039257600080fd5b506103bf600480360360208110156103a957600080fd5b8101908080359060200190929190505050611c13565b005b3480156103cd57600080fd5b506103d6611d78565b604051808215151515815260200191505060405180910390f35b3373ffffffffffffffffffffffffffffffffffffffff1660096000600854815260200190815260200160002060010160006002811061042b57fe5b0160009054906101000a900473ffffffffffffffffffffffffffffffffffffffff1673ffffffffffffffffffffffffffffffffffffffff1614806104df57503373ffffffffffffffffffffffffffffffffffffffff166009600060085481526020019081526020016000206001016001600281106104a557fe5b0160009054906101000a900473ffffffffffffffffffffffffffffffffffffffff1673ffffffffffffffffffffffffffffffffffffffff16145b610534576040517f08c379a00000000000000000000000000000000000000000000000000000000081526004018080602001828103825260228152602001806126ee6022913960400191505060405180910390fd5b6000600460003373ffffffffffffffffffffffffffffffffffffffff1673ffffffffffffffffffffffffffffffffffffffff16815260200190815260200160002054146105cc576040517f08c379a000000000000000000000000000000000000000000000000000000000815260040180806020018281038252602781526020018061264c6027913960400191505060405180910390fd5b80600460003373ffffffffffffffffffffffffffffffffffffffff1673ffffffffffffffffffffffffffffffffffffffff16815260200190815260200160002081905550600160056000828254019250508190555060026005541415610648576001600760006101000a81548160ff0219169083151502179055505b50565b6000600160003373ffffffffffffffffffffffffffffffffffffffff1673ffffffffffffffffffffffffffffffffffffffff16815260200190815260200160002060010180546001816001161561010002031660029004905014156106fb576040517f08c379a00000000000000000000000000000000000000000000000000000000081526004018080602001828103825260388152602001806126146038913960400191505060405180910390fd5b8080600160003373ffffffffffffffffffffffffffffffffffffffff1673ffffffffffffffffffffffffffffffffffffffff16815260200190815260200160002060020154116107b3576040517f08c379a000000000000000000000000000000000000000000000000000000000815260040180806020018281038252601f8152602001807f596f7520646f206e6f74206861766520656e6f7567682062616c616e6365210081525060200191505060405180910390fd5b60006001600080866040518082805190602001908083835b602083106107ee57805182526020820191506020810190506020830392506107cb565b6001836020036101000a038019825116818451168082178552505050505050905001915050908152602001604051809103902060009054906101000a900473ffffffffffffffffffffffffffffffffffffffff1673ffffffffffffffffffffffffffffffffffffffff1673ffffffffffffffffffffffffffffffffffffffff16815260200190815260200160002060010180546001816001161561010002031660029004905014156108eb576040517f08c379a000000000000000000000000000000000000000000000000000000000815260040180806020018281038252603f815260200180612673603f913960400191505060405180910390fd5b81600160003373ffffffffffffffffffffffffffffffffffffffff1673ffffffffffffffffffffffffffffffffffffffff16815260200190815260200160002060020160008282540392505081905550816001600080866040518082805190602001908083835b602083106109755780518252602082019150602081019050602083039250610952565b6001836020036101000a038019825116818451168082178552505050505050905001915050908152602001604051809103902060009054906101000a900473ffffffffffffffffffffffffffffffffffffffff1673ffffffffffffffffffffffffffffffffffffffff1673ffffffffffffffffffffffffffffffffffffffff168152602001908152602001600020600201600082825401925050819055507ff0b60c507a2e93235b6bed490cd5616aa2f43a849c3d167e96d6c5099b5524e5600160003373ffffffffffffffffffffffffffffffffffffffff1673ffffffffffffffffffffffffffffffffffffffff168152602001908152602001600020600201546040518082815260200191505060405180910390a1505050565b80600073ffffffffffffffffffffffffffffffffffffffff16600160003373ffffffffffffffffffffffffffffffffffffffff1673ffffffffffffffffffffffffffffffffffffffff16815260200190815260200160002060000160009054906101000a900473ffffffffffffffffffffffffffffffffffffffff1673ffffffffffffffffffffffffffffffffffffffff16148015610b8657506000600160003373ffffffffffffffffffffffffffffffffffffffff1673ffffffffffffffffffffffffffffffffffffffff168152602001908152602001600020600101805460018160011615610100020316600290049050145b8015610ca85750600073ffffffffffffffffffffffffffffffffffffffff166001600080846040518082805190602001908083835b60208310610bde5780518252602082019150602081019050602083039250610bbb565b6001836020036101000a038019825116818451168082178552505050505050905001915050908152602001604051809103902060009054906101000a900473ffffffffffffffffffffffffffffffffffffffff1673ffffffffffffffffffffffffffffffffffffffff1673ffffffffffffffffffffffffffffffffffffffff16815260200190815260200160002060000160009054906101000a900473ffffffffffffffffffffffffffffffffffffffff1673ffffffffffffffffffffffffffffffffffffffff16145b8015610d92575060006001600080846040518082805190602001908083835b60208310610cea5780518252602082019150602081019050602083039250610cc7565b6001836020036101000a038019825116818451168082178552505050505050905001915050908152602001604051809103902060009054906101000a900473ffffffffffffffffffffffffffffffffffffffff1673ffffffffffffffffffffffffffffffffffffffff1673ffffffffffffffffffffffffffffffffffffffff168152602001908152602001600020600101805460018160011615610100020316600290049050145b610de7576040517f08c379a000000000000000000000000000000000000000000000000000000000815260040180806020018281038252602f815260200180612754602f913960400191505060405180910390fd5b336000836040518082805190602001908083835b60208310610e1e5780518252602082019150602081019050602083039250610dfb565b6001836020036101000a038019825116818451168082178552505050505050905001915050908152602001604051809103902060006101000a81548173ffffffffffffffffffffffffffffffffffffffff021916908373ffffffffffffffffffffffffffffffffffffffff1602179055506000600160003373ffffffffffffffffffffffffffffffffffffffff1673ffffffffffffffffffffffffffffffffffffffff168152602001908152602001600020905082816001019080519060200190610eea92919061256e565b50338160000160006101000a81548173ffffffffffffffffffffffffffffffffffffffff021916908373ffffffffffffffffffffffffffffffffffffffff160217905550505050565b6000600160003373ffffffffffffffffffffffffffffffffffffffff1673ffffffffffffffffffffffffffffffffffffffff1681526020019081526020016000206001018054600181600116156101000203166002900490501415610fe3576040517f08c379a00000000000000000000000000000000000000000000000000000000081526004018080602001828103825260388152602001806126146038913960400191505060405180910390fd5b8080600160003373ffffffffffffffffffffffffffffffffffffffff1673ffffffffffffffffffffffffffffffffffffffff168152602001908152602001600020600201541161109b576040517f08c379a000000000000000000000000000000000000000000000000000000000815260040180806020018281038252601f8152602001807f596f7520646f206e6f74206861766520656e6f7567682062616c616e6365210081525060200191505060405180910390fd5b81600160003373ffffffffffffffffffffffffffffffffffffffff1673ffffffffffffffffffffffffffffffffffffffff168152602001908152602001600020600201600082825403925050819055503373ffffffffffffffffffffffffffffffffffffffff166108fc839081150290604051600060405180830381858888f19350505050158015611131573d6000803e3d6000fd5b507ff0b60c507a2e93235b6bed490cd5616aa2f43a849c3d167e96d6c5099b5524e5600160003373ffffffffffffffffffffffffffffffffffffffff1673ffffffffffffffffffffffffffffffffffffffff168152602001908152602001600020600201546040518082815260200191505060405180910390a15050565b3373ffffffffffffffffffffffffffffffffffffffff166009600060085481526020019081526020016000206001016000600281106111ea57fe5b0160009054906101000a900473ffffffffffffffffffffffffffffffffffffffff1673ffffffffffffffffffffffffffffffffffffffff16148061129e57503373ffffffffffffffffffffffffffffffffffffffff1660096000600854815260200190815260200160002060010160016002811061126457fe5b0160009054906101000a900473ffffffffffffffffffffffffffffffffffffffff1673ffffffffffffffffffffffffffffffffffffffff16145b6112f3576040517f08c379a00000000000000000000000000000000000000000000000000000000081526004018080602001828103825260228152602001806126ee6022913960400191505060405180910390fd5b600060096000600854815260200190815260200160002060050160003373ffffffffffffffffffffffffffffffffffffffff1673ffffffffffffffffffffffffffffffffffffffff16815260200190815260200160002054146113a1576040517f08c379a000000000000000000000000000000000000000000000000000000000815260040180806020018281038252602781526020018061264c6027913960400191505060405180910390fd5b8060096000600854815260200190815260200160002060050160003373ffffffffffffffffffffffffffffffffffffffff1673ffffffffffffffffffffffffffffffffffffffff168152602001908152602001600020819055506001600660008282540192505081905550600260065414156114215761141f611de8565b505b50565b6000600160003373ffffffffffffffffffffffffffffffffffffffff1673ffffffffffffffffffffffffffffffffffffffff16815260200190815260200160002060010180546001816001161561010002031660029004905014156114d4576040517f08c379a00000000000000000000000000000000000000000000000000000000081526004018080602001828103825260388152602001806126146038913960400191505060405180910390fd5b8080600160003373ffffffffffffffffffffffffffffffffffffffff1673ffffffffffffffffffffffffffffffffffffffff168152602001908152602001600020600201541161158c576040517f08c379a000000000000000000000000000000000000000000000000000000000815260040180806020018281038252601f8152602001807f596f7520646f206e6f74206861766520656e6f7567682062616c616e6365210081525060200191505060405180910390fd5b6000600160008573ffffffffffffffffffffffffffffffffffffffff1673ffffffffffffffffffffffffffffffffffffffff168152602001908152602001600020600101805460018160011615610100020316600290049050141561163c576040517f08c379a000000000000000000000000000000000000000000000000000000000815260040180806020018281038252603f815260200180612673603f913960400191505060405180910390fd5b81600160003373ffffffffffffffffffffffffffffffffffffffff1673ffffffffffffffffffffffffffffffffffffffff1681526020019081526020016000206002016000828254039250508190555081600160008573ffffffffffffffffffffffffffffffffffffffff1673ffffffffffffffffffffffffffffffffffffffff168152602001908152602001600020600201600082825401925050819055507ff0b60c507a2e93235b6bed490cd5616aa2f43a849c3d167e96d6c5099b5524e5600160003373ffffffffffffffffffffffffffffffffffffffff1673ffffffffffffffffffffffffffffffffffffffff168152602001908152602001600020600201546040518082815260200191505060405180910390a1505050565b600080600160003373ffffffffffffffffffffffffffffffffffffffff1673ffffffffffffffffffffffffffffffffffffffff168152602001908152602001600020600101805460018160011615610100020316600290049050141561180b576040517f08c379a00000000000000000000000000000000000000000000000000000000081526004018080602001828103825260388152602001806126146038913960400191505060405180910390fd5b600160003373ffffffffffffffffffffffffffffffffffffffff1673ffffffffffffffffffffffffffffffffffffffff16815260200190815260200160002060020154905090565b6000600160003373ffffffffffffffffffffffffffffffffffffffff1673ffffffffffffffffffffffffffffffffffffffff1681526020019081526020016000206001018054600181600116156101000203166002900490501415611903576040517f08c379a00000000000000000000000000000000000000000000000000000000081526004018080602001828103825260388152602001806126146038913960400191505060405180910390fd5b34600160003373ffffffffffffffffffffffffffffffffffffffff1673ffffffffffffffffffffffffffffffffffffffff168152602001908152602001600020600201600082825401925050819055507ff0b60c507a2e93235b6bed490cd5616aa2f43a849c3d167e96d6c5099b5524e5600160003373ffffffffffffffffffffffffffffffffffffffff1673ffffffffffffffffffffffffffffffffffffffff168152602001908152602001600020600201546040518082815260200191505060405180910390a1565b600760019054906101000a900460ff16611a33576040517f08c379a000000000000000000000000000000000000000000000000000000000815260040180806020018281038252603c8152602001806126b2603c913960400191505060405180910390fd5b3373ffffffffffffffffffffffffffffffffffffffff16600960006008548152602001908152602001600020600101600060028110611a6e57fe5b0160009054906101000a900473ffffffffffffffffffffffffffffffffffffffff1673ffffffffffffffffffffffffffffffffffffffff161415611b1a576040517f08c379a000000000000000000000000000000000000000000000000000000000815260040180806020018281038252601d8152602001807f596f752061726520616c726561647920696e20746869732067616d652100000081525060200191505060405180910390fd5b33600960006008548152602001908152602001600020600101600160028110611b3f57fe5b0160006101000a81548173ffffffffffffffffffffffffffffffffffffffff021916908373ffffffffffffffffffffffffffffffffffffffff16021790555060096000600854815260200190815260200160002060030154600160003373ffffffffffffffffffffffffffffffffffffffff1673ffffffffffffffffffffffffffffffffffffffff1681526020019081526020016000206002016000828254039250508190555060096000600854815260200190815260200160002060030154600260010160008282540192505081905550565b600760019054906101000a900460ff1615611c79576040517f08c379a00000000000000000000000000000000000000000000000000000000081526004018080602001828103825260448152602001806127106044913960600191505060405180910390fd5b6000600960006008548152602001908152602001600020905060085481600001819055503381600101600060028110611cae57fe5b0160006101000a81548173ffffffffffffffffffffffffffffffffffffffff021916908373ffffffffffffffffffffffffffffffffffffffff16021790555081816003018190555081600160003373ffffffffffffffffffffffffffffffffffffffff1673ffffffffffffffffffffffffffffffffffffffff16815260200190815260200160002060020160008282540392505081905550816002600101600082825401925050819055506001600760016101000a81548160ff0219169083151502179055505050565b600080600160003373ffffffffffffffffffffffffffffffffffffffff1673ffffffffffffffffffffffffffffffffffffffff16815260200190815260200160002060010180546001816001161561010002031660029004905014611de05760019050611de5565b600090505b90565b600080611df36120ec565b146120d4576000600280611e0357fe5b6009600060085481526020019081526020016000206005016000600960006008548152602001908152602001600020600101600160028110611e4157fe5b0160009054906101000a900473ffffffffffffffffffffffffffffffffffffffff1673ffffffffffffffffffffffffffffffffffffffff1673ffffffffffffffffffffffffffffffffffffffff168152602001908152602001600020546009600060085481526020019081526020016000206005016000600960006008548152602001908152602001600020600101600060028110611edc57fe5b0160009054906101000a900473ffffffffffffffffffffffffffffffffffffffff1673ffffffffffffffffffffffffffffffffffffffff1673ffffffffffffffffffffffffffffffffffffffff168152602001908152602001600020540890506000811415611fe657600960006008548152602001908152602001600020600101600060028110611f6957fe5b0160009054906101000a900473ffffffffffffffffffffffffffffffffffffffff1660096000600854815260200190815260200160002060040160006101000a81548173ffffffffffffffffffffffffffffffffffffffff021916908373ffffffffffffffffffffffffffffffffffffffff160217905550612083565b60096000600854815260200190815260200160002060010160016002811061200a57fe5b0160009054906101000a900473ffffffffffffffffffffffffffffffffffffffff1660096000600854815260200190815260200160002060040160006101000a81548173ffffffffffffffffffffffffffffffffffffffff021916908373ffffffffffffffffffffffffffffffffffffffff1602179055505b61208b61230e565b6120936123da565b60096000600854815260200190815260200160002060040160009054906101000a900473ffffffffffffffffffffffffffffffffffffffff169150506120e9565b6120dc61241d565b6120e46123da565b600090505b90565b6000806000905060008090505b6002811015612306576009600060085481526020019081526020016000206005016000600960006008548152602001908152602001600020600101836002811061213f57fe5b0160009054906101000a900473ffffffffffffffffffffffffffffffffffffffff1673ffffffffffffffffffffffffffffffffffffffff1673ffffffffffffffffffffffffffffffffffffffff1681526020019081526020016000205460405160200180828152602001915050604051602081830303815290604052805190602001206004600060096000600854815260200190815260200160002060010184600281106121e957fe5b0160009054906101000a900473ffffffffffffffffffffffffffffffffffffffff1673ffffffffffffffffffffffffffffffffffffffff1673ffffffffffffffffffffffffffffffffffffffff16815260200190815260200160002054146122f957600960006008548152602001908152602001600020600101816002811061226e57fe5b0160009054906101000a900473ffffffffffffffffffffffffffffffffffffffff1660096000600854815260200190815260200160002060060183600281106122b357fe5b0160006101000a81548173ffffffffffffffffffffffffffffffffffffffff021916908373ffffffffffffffffffffffffffffffffffffffff1602179055506001820191505b80806001019150506120f9565b508091505090565b600560646002600101548161231f57fe5b0402600260000160008282540192505081905550605f60646002600101548161234457fe5b04026001600060096000600854815260200190815260200160002060040160009054906101000a900473ffffffffffffffffffffffffffffffffffffffff1673ffffffffffffffffffffffffffffffffffffffff1673ffffffffffffffffffffffffffffffffffffffff168152602001908152602001600020600201600082825401925050819055506000600260010181905550565b600760006101000a81549060ff0219169055600560009055600660009055600760016101000a81549060ff02191690556001600860008282540192505081905550565b600280600101548161242b57fe5b046001600060096000600854815260200190815260200160002060010160006002811061245457fe5b0160009054906101000a900473ffffffffffffffffffffffffffffffffffffffff1673ffffffffffffffffffffffffffffffffffffffff1673ffffffffffffffffffffffffffffffffffffffff1681526020019081526020016000206002016000828254019250508190555060028060010154816124ce57fe5b04600160006009600060085481526020019081526020016000206001016001600281106124f757fe5b0160009054906101000a900473ffffffffffffffffffffffffffffffffffffffff1673ffffffffffffffffffffffffffffffffffffffff1673ffffffffffffffffffffffffffffffffffffffff16815260200190815260200160002060020160008282540192505081905550600260010160009055565b828054600181600116156101000203166002900490600052602060002090601f016020900481019282601f106125af57805160ff19168380011785556125dd565b828001600101855582156125dd579182015b828111156125dc5782518255916020019190600101906125c1565b5b5090506125ea91906125ee565b5090565b61261091905b8082111561260c5760008160009055506001016125f4565b5090565b9056fe596f7572206164647265737320686173206e6f742072656769737465726564207965742120506c6561736520636865636b20616761696e2e596f75206861766520616c7265616479207375626d697474656420796f757220726573756c742e5468652074617267657420616464726573732068617665206e6f742072656769737465726564207965742120506c6561736520636865636b20616761696e2e5468657265206973206e6f2067616d652077616974696e6720666f7220706c617965722c20706c6561736520696e69746961746520612067616d6521596f7520617265206e6f7420656e726f6c6c656420696e20746869732067616d6521546865726520697320612067616d652077616974696e6720666f7220706c617965722c20796f752063616e6e6f742073746172742061206e65772067616d65206e6f772154686520616464726573732f6163636f756e74204944206861766520616c7265616479207265676973746572656421a265627a7a72315820070d65d583762466fde7ceeadafa2bd3d1c0b024194b1f0b156d4ce2fcd2450364736f6c63430005100032",
  "source": "pragma solidity >=0.4.21 <0.7.0;\n\nimport \"./Account.sol\";\n\ncontract CoinFlip is Account{\n    /**\n     * Struct for Banker, which should contain the balance and temporary deposit for the current game.\n     */\n    struct Banker {\n        uint balance;\n        uint gameDeposit;\n    }\n    /// Initialize the banker\n    Banker banker = Banker({\n        balance: 0,\n        gameDeposit: 0\n    });\n\n    /**\n     * Players need to submit the hash values of their clear text before revealing\n     * As these value are not stored permanently, they will be deleted after each round\n     * @notice the value are deleted in houseCleaning() function\n     */\n    mapping (address => bytes32) submittedHashValue;\n    /// If the submitHashCount and submitClearTextCount reach 2, the next step will be processed automatically\n    uint submitHashCount = 0;\n    uint submitClearTextCount = 0;\n    /// The front-end will read this value to determine when the user can reveal the clear text.\n    bool bothSubmitHash = false;\n    /// Whether there is a table waiting for player to join\n    bool currentlyWaiting = false;\n\n    /**\n     * Struct for Game\n     * @param gameID the self-increasing ID of the game, the gameID will increase by 1 in each round\n     * @param player the players participating in the game\n     * @param betValue provided by the first player initializing the game\n     * @param winner the winner of this round\n     * @param submittedClearText the submitted clear text value for each user\n     * @param cheater if there are cheaters, they will be recorded here\n     */\n    struct Game {\n        uint ID;\n        address[2] player;\n        uint betValue;\n        address winner;\n        mapping (address => uint) submittedClearText;\n        address[2] cheater;\n    }\n\n    /// Self-increasing gameID counter\n    uint gameID = 1;\n    /// gameID => Game struct mapping\n    mapping (uint => Game) gameHistory;\n\n    /**\n     * Initialize a game\n     * a game struct will be initialize and the betValue will be move from player's balance to banker's\n     * @param betValue only the player who initialize the game can set the betValue\n     *                 the participant can only accept it or wait until the game ends\n     * @notice once the game is initialized, the currentWaiting will be true,\n     *         and the front-end will not allow user to start a new game, they can only join the current one or wait.\n     */\n    function initializeGame(uint betValue) external {\n        require(!currentlyWaiting, \"There is a game waiting for player, you cannot start a new game now!\");\n        Game storage game = gameHistory[gameID];\n        game.ID = gameID;\n        game.player[0] = msg.sender;\n        game.betValue = betValue;\n\n        userList[msg.sender].balance -= betValue;\n        banker.gameDeposit += betValue;\n\n        currentlyWaiting = true;\n    }\n\n    /**\n     * If there is an on-going game, the user can join it.\n     * Once the new player join the game, the betValue will be deducted and transfer to the banker.\n     */\n    function joinGame() external {\n        require(currentlyWaiting, \"There is no game waiting for player, please initiate a game!\");\n        // The player initialize the game cannot join it twice.\n        require(gameHistory[gameID].player[0] != msg.sender, \"You are already in this game!\");\n\n        gameHistory[gameID].player[1] = msg.sender;\n\n        userList[msg.sender].balance -= gameHistory[gameID].betValue;\n        banker.gameDeposit += gameHistory[gameID].betValue;\n    }\n\n    /**\n     * Only the enrolled players can use the command in the game.\n     */\n    modifier enrolledPlayer {\n        require(\n            gameHistory[gameID].player[0] == msg.sender || gameHistory[gameID].player[1] == msg.sender,\n            \"You are not enrolled in this game!\"\n        );\n        _;\n    }\n\n    /// TODO: gameStarted() modifier might be needed to make sure players can move after 2 players are in the game.\n\n    /**\n     * Players submit their hash values through this function.\n     * @param hashValue each player submit the hash value generated from their clear text.\n     * @dev once both players submit their hash values, the bothSubmitHash will be true,\n     *      and the player can reveal their clear text.\n     */\n    function submitHash(bytes32 hashValue) external enrolledPlayer {\n        // Once the player submit the value, he/she cannot modify it.\n        require(submittedHashValue[msg.sender] == \"\", \"You have already submitted your result.\");\n\n        submittedHashValue[msg.sender] = hashValue;\n        submitHashCount += 1;\n\n        if (submitHashCount == 2) {\n            bothSubmitHash = true;\n        }\n    }\n\n    /**\n     * Make sure the submitted hash value and clear text match.\n     * TODO: not only the random number itself should be submitted, we need other nonce.\n     */\n    function validate() private returns (uint) {\n        uint cheaterCount = 0;\n        for (uint i = 0; i < 2; i++) {\n            if (submittedHashValue[gameHistory[gameID].player[i]] != keccak256(abi.encodePacked(gameHistory[gameID].submittedClearText[gameHistory[gameID].player[i]])) ) {\n                gameHistory[gameID].cheater[cheaterCount] = gameHistory[gameID].player[i];\n                cheaterCount += 1;\n            }\n        }\n        return cheaterCount;\n    }\n\n    /**\n     * If one or more players are detected cheating, this round will be invalid.\n     * The money will be given back to the players.\n     * TODO: Half of the cheater's balance will be kept by the contract/banker for punishment.\n     */\n    function detectCheating() private {\n        userList[gameHistory[gameID].player[0]].balance += banker.gameDeposit / 2;\n        userList[gameHistory[gameID].player[1]].balance += banker.gameDeposit / 2;\n\n        delete banker.gameDeposit;\n    }\n\n    /**\n     * If there is not cheaters found, the banker will find the winner.\n     * After find the winner or detect cheating, the houseCleaning() will start.\n     * @notice the player who initialize the game will always choose the mod == 0.\n     */\n    function findWinner() private returns (address) {\n        if (validate() != 0) {\n            uint mod = addmod(gameHistory[gameID].submittedClearText[gameHistory[gameID].player[0]], gameHistory[gameID].submittedClearText[gameHistory[gameID].player[1]], 2);\n            if (mod == 0) {\n                gameHistory[gameID].winner = gameHistory[gameID].player[0];\n            } else {\n                gameHistory[gameID].winner = gameHistory[gameID].player[1];\n            }\n            balanceTransfer();\n            houseCleaning();\n            return gameHistory[gameID].winner;\n        } else {\n            detectCheating();\n            houseCleaning();\n            return address(0);\n        }\n    }\n\n    /**\n     * Transfer 95% of the temporary gameDeposit to the winner, 5% to the banker.\n     */\n    function balanceTransfer() private {\n        banker.balance += banker.gameDeposit / 100 * 5;\n        userList[gameHistory[gameID].winner].balance += banker.gameDeposit / 100 * 95;\n        banker.gameDeposit = 0;\n    }\n\n    /**\n     * Function for players to submit their clear text values.\n     * Once 2 players submitted the clear text values, teh findWinner process will start.\n     * @param randomNumber the automatically generated randomNumber for the player.\n     */\n    function submitClearText(uint randomNumber) external enrolledPlayer {\n        // Prevent modification.\n        require(gameHistory[gameID].submittedClearText[msg.sender] == 0, \"You have already submitted your result.\");\n\n        gameHistory[gameID].submittedClearText[msg.sender] = randomNumber;\n        submitClearTextCount += 1;\n\n        if (submitClearTextCount == 2) {\n            findWinner();\n        }\n    }\n\n    /**\n     * House cleaning process to release resources and prepare for the next round.\n     */\n    function houseCleaning() private {\n        delete bothSubmitHash;\n        delete submitHashCount;\n        delete submitClearTextCount;\n        delete currentlyWaiting;\n\n        gameID += 1;\n    }\n}\n",
  "sourcePath": "/Users/blanker/Documents/Codings/DApp/CoinFlipping/contracts/CoinFlip.sol",
  "compiler": {
    "name": "solc",
    "version": "0.5.16+commit.9c3226ce.Emscripten.clang"
  },
  "schemaVersion": "3.0.23",
  "updatedAt": "2020-04-20T20:19:03.538Z",
  "networkType": "ethereum",
  "devdoc": {
    "methods": {
      "createAccount(string)": {
        "params": {
          "accountToRegister": "The account ID the user would like to use."
        }
      },
      "initializeGame(uint256)": {
        "params": {
          "betValue": "only the player who initialize the game can set the betValue                the participant can only accept it or wait until the game ends"
        }
      },
      "submitClearText(uint256)": {
        "params": {
          "randomNumber": "the automatically generated randomNumber for the player."
        }
      },
      "submitHash(bytes32)": {
        "details": "once both players submit their hash values, the bothSubmitHash will be true,     and the player can reveal their clear text.",
        "params": {
          "hashValue": "each player submit the hash value generated from their clear text."
        }
      },
      "transferToAddress(address,uint256)": {
        "params": {
          "amount": "The amount of balance to transfer to the target registered user.",
          "toAddress": "The address of the target registered user to transfer balance to."
        }
      },
      "transferToID(string,uint256)": {
        "params": {
          "amount": "The amount of balance to transfer to the target registered user.",
          "toAccountID": "The accountID of the target registered user to transfer balance to."
        }
      },
      "withdraw(uint256)": {
        "params": {
          "amount": "The amount of balance to withdraw."
        }
      }
    }
  },
  "userdoc": {
    "methods": {
      "checkBalance()": {
        "notice": "Show the balance."
      },
      "deposit()": {
        "notice": "User deposit the money to the contract, and the contract will give him a \"virtual\" balance, similar to deposit fiat money to bank."
      },
      "initializeGame(uint256)": {
        "notice": "Initialize a game a game struct will be initialize and the betValue will be move from player's balance to banker'sonce the game is initialized, the currentWaiting will be true,        and the front-end will not allow user to start a new game, they can only join the current one or wait."
      },
      "joinGame()": {
        "notice": "If there is an on-going game, the user can join it. Once the new player join the game, the betValue will be deducted and transfer to the banker."
      },
      "submitClearText(uint256)": {
        "notice": "Function for players to submit their clear text values. Once 2 players submitted the clear text values, teh findWinner process will start."
      },
      "submitHash(bytes32)": {
        "notice": "Players submit their hash values through this function."
      },
      "transferToAddress(address,uint256)": {
        "notice": "User transfer his/her deposit to another registered user with the address."
      },
      "transferToID(string,uint256)": {
        "notice": "User transfer his/her deposit to another registered user with the accountID."
      },
      "withdraw(uint256)": {
        "notice": "Withdraw the balance from the contract, get the token back to his/her ethureum address."
      }
    }
  }
}