{
  "contractName": "CoinFlip",
  "abi": [
    {
      "anonymous": false,
      "inputs": [
        {
          "indexed": false,
          "internalType": "uint256",
          "name": "balance",
          "type": "uint256"
        }
      ],
      "name": "showBalance",
      "type": "event"
    },
    {
      "constant": true,
      "inputs": [],
      "name": "checkBalance",
      "outputs": [
        {
          "internalType": "uint256",
          "name": "balance",
          "type": "uint256"
        }
      ],
      "payable": false,
      "stateMutability": "view",
      "type": "function"
    },
    {
      "constant": true,
      "inputs": [],
      "name": "checkRegistration",
      "outputs": [
        {
          "internalType": "string",
          "name": "",
          "type": "string"
        }
      ],
      "payable": false,
      "stateMutability": "view",
      "type": "function"
    },
    {
      "constant": false,
      "inputs": [
        {
          "internalType": "string",
          "name": "accountToRegister",
          "type": "string"
        }
      ],
      "name": "createAccount",
      "outputs": [],
      "payable": false,
      "stateMutability": "nonpayable",
      "type": "function"
    },
    {
      "constant": false,
      "inputs": [],
      "name": "deposit",
      "outputs": [],
      "payable": true,
      "stateMutability": "payable",
      "type": "function"
    },
    {
      "constant": false,
      "inputs": [
        {
          "internalType": "address",
          "name": "toAddress",
          "type": "address"
        },
        {
          "internalType": "uint256",
          "name": "amount",
          "type": "uint256"
        }
      ],
      "name": "transferToAddress",
      "outputs": [],
      "payable": false,
      "stateMutability": "nonpayable",
      "type": "function"
    },
    {
      "constant": false,
      "inputs": [
        {
          "internalType": "string",
          "name": "toAccountID",
          "type": "string"
        },
        {
          "internalType": "uint256",
          "name": "amount",
          "type": "uint256"
        }
      ],
      "name": "transferToID",
      "outputs": [],
      "payable": false,
      "stateMutability": "nonpayable",
      "type": "function"
    },
    {
      "constant": false,
      "inputs": [
        {
          "internalType": "uint256",
          "name": "amount",
          "type": "uint256"
        }
      ],
      "name": "withdraw",
      "outputs": [],
      "payable": true,
      "stateMutability": "payable",
      "type": "function"
    },
    {
      "constant": true,
      "inputs": [],
      "name": "currentGameStatus",
      "outputs": [
        {
          "internalType": "uint256",
          "name": "",
          "type": "uint256"
        }
      ],
      "payable": false,
      "stateMutability": "view",
      "type": "function"
    },
    {
      "constant": false,
      "inputs": [
        {
          "internalType": "uint256",
          "name": "betValue",
          "type": "uint256"
        }
      ],
      "name": "initializeGame",
      "outputs": [],
      "payable": false,
      "stateMutability": "nonpayable",
      "type": "function"
    },
    {
      "constant": false,
      "inputs": [],
      "name": "joinGame",
      "outputs": [],
      "payable": false,
      "stateMutability": "nonpayable",
      "type": "function"
    },
    {
      "constant": true,
      "inputs": [],
      "name": "currentInGamePlayer",
      "outputs": [
        {
          "internalType": "address[2]",
          "name": "",
          "type": "address[2]"
        }
      ],
      "payable": false,
      "stateMutability": "view",
      "type": "function"
    },
    {
      "constant": false,
      "inputs": [
        {
          "internalType": "bytes32",
          "name": "hashValue",
          "type": "bytes32"
        }
      ],
      "name": "submitHash",
      "outputs": [],
      "payable": false,
      "stateMutability": "nonpayable",
      "type": "function"
    },
    {
      "constant": false,
      "inputs": [
        {
          "internalType": "uint256",
          "name": "randomNumber",
          "type": "uint256"
        }
      ],
      "name": "submitClearText",
      "outputs": [],
      "payable": false,
      "stateMutability": "nonpayable",
      "type": "function"
    }
  ],
  "bytecode": "0x60806040526040518060400160405280600081526020016000815250600260008201518160000155602082015181600101555050600060055560006006556000600760006101000a81548160ff021916908315150217905550600160085534801561006957600080fd5b50612cfd806100796000396000f3fe6080604052600436106100c25760003560e01c80637f102c161161007f578063d0e30db011610059578063d0e30db014610409578063d4f77b1c14610413578063ee5879411461042a578063fd1b210014610465576100c2565b80637f102c1614610358578063acef603714610383578063c71daccb146103de576100c2565b806308891a32146100c75780630c41bda814610102578063298daf5b146101d45780632e1a7d4d1461029c578063725c49c0146102ca57806372fb8e8e14610305575b600080fd5b3480156100d357600080fd5b50610100600480360360208110156100ea57600080fd5b81019080803590602001909291905050506104f5565b005b34801561010e57600080fd5b506101d26004803603604081101561012557600080fd5b810190808035906020019064010000000081111561014257600080fd5b82018360208201111561015457600080fd5b8035906020019184600183028401116401000000008311171561017657600080fd5b91908080601f016020809104026020016040519081016040528093929190818152602001838380828437600081840152601f19601f82011690508083019250505050505050919291929080359060200190929190505050610750565b005b3480156101e057600080fd5b5061029a600480360360208110156101f757600080fd5b810190808035906020019064010000000081111561021457600080fd5b82018360208201111561022657600080fd5b8035906020019184600183028401116401000000008311171561024857600080fd5b91908080601f016020809104026020016040519081016040528093929190818152602001838380828437600081840152601f19601f820116905080830192505050505050509192919290505050610b96565b005b6102c8600480360360208110156102b257600080fd5b8101908080359060200190929190505050611038565b005b3480156102d657600080fd5b50610303600480360360208110156102ed57600080fd5b81019080803590602001909291905050506112b4565b005b34801561031157600080fd5b5061031a611529565b6040518082600260200280838360005b8381101561034557808201518184015260208101905061032a565b5050505090500191505060405180910390f35b34801561036457600080fd5b5061036d6115c0565b6040518082815260200191505060405180910390f35b34801561038f57600080fd5b506103dc600480360360408110156103a657600080fd5b81019080803573ffffffffffffffffffffffffffffffffffffffff169060200190929190803590602001909291905050506115e0565b005b3480156103ea57600080fd5b506103f3611916565b6040518082815260200191505060405180910390f35b610411611a0f565b005b34801561041f57600080fd5b50610428611b8a565b005b34801561043657600080fd5b506104636004803603602081101561044d57600080fd5b8101908080359060200190929190505050611eac565b005b34801561047157600080fd5b5061047a6120ba565b6040518080602001828103825283818151815260200191508051906020019080838360005b838110156104ba57808201518184015260208101905061049f565b50505050905090810190601f1680156104e75780820380516001836020036101000a031916815260200191505b509250505060405180910390f35b3373ffffffffffffffffffffffffffffffffffffffff1660096000600854815260200190815260200160002060020160006002811061053057fe5b0160009054906101000a900473ffffffffffffffffffffffffffffffffffffffff1673ffffffffffffffffffffffffffffffffffffffff1614806105e457503373ffffffffffffffffffffffffffffffffffffffff166009600060085481526020019081526020016000206002016001600281106105aa57fe5b0160009054906101000a900473ffffffffffffffffffffffffffffffffffffffff1673ffffffffffffffffffffffffffffffffffffffff16145b610639576040517f08c379a0000000000000000000000000000000000000000000000000000000008152600401808060200182810382526022815260200180612c346022913960400191505060405180910390fd5b6000600460003373ffffffffffffffffffffffffffffffffffffffff1673ffffffffffffffffffffffffffffffffffffffff16815260200190815260200160002054146106d1576040517f08c379a0000000000000000000000000000000000000000000000000000000008152600401808060200182810382526027815260200180612b926027913960400191505060405180910390fd5b80600460003373ffffffffffffffffffffffffffffffffffffffff1673ffffffffffffffffffffffffffffffffffffffff1681526020019081526020016000208190555060016005600082825401925050819055506002600554141561074d576001600760006101000a81548160ff0219169083151502179055505b50565b6000600160003373ffffffffffffffffffffffffffffffffffffffff1673ffffffffffffffffffffffffffffffffffffffff1681526020019081526020016000206001018054600181600116156101000203166002900490501415610800576040517f08c379a0000000000000000000000000000000000000000000000000000000008152600401808060200182810382526038815260200180612b376038913960400191505060405180910390fd5b8080600160003373ffffffffffffffffffffffffffffffffffffffff1673ffffffffffffffffffffffffffffffffffffffff16815260200190815260200160002060020154116108b8576040517f08c379a000000000000000000000000000000000000000000000000000000000815260040180806020018281038252601f8152602001807f596f7520646f206e6f74206861766520656e6f7567682062616c616e6365210081525060200191505060405180910390fd5b60006001600080866040518082805190602001908083835b602083106108f357805182526020820191506020810190506020830392506108d0565b6001836020036101000a038019825116818451168082178552505050505050905001915050908152602001604051809103902060009054906101000a900473ffffffffffffffffffffffffffffffffffffffff1673ffffffffffffffffffffffffffffffffffffffff1673ffffffffffffffffffffffffffffffffffffffff16815260200190815260200160002060010180546001816001161561010002031660029004905014156109f0576040517f08c379a000000000000000000000000000000000000000000000000000000000815260040180806020018281038252603f815260200180612bb9603f913960400191505060405180910390fd5b81600160003373ffffffffffffffffffffffffffffffffffffffff1673ffffffffffffffffffffffffffffffffffffffff16815260200190815260200160002060020160008282540392505081905550816001600080866040518082805190602001908083835b60208310610a7a5780518252602082019150602081019050602083039250610a57565b6001836020036101000a038019825116818451168082178552505050505050905001915050908152602001604051809103902060009054906101000a900473ffffffffffffffffffffffffffffffffffffffff1673ffffffffffffffffffffffffffffffffffffffff1673ffffffffffffffffffffffffffffffffffffffff168152602001908152602001600020600201600082825401925050819055507ff0b60c507a2e93235b6bed490cd5616aa2f43a849c3d167e96d6c5099b5524e5600160003373ffffffffffffffffffffffffffffffffffffffff1673ffffffffffffffffffffffffffffffffffffffff168152602001908152602001600020600201546040518082815260200191505060405180910390a1505050565b80600073ffffffffffffffffffffffffffffffffffffffff16600160003373ffffffffffffffffffffffffffffffffffffffff1673ffffffffffffffffffffffffffffffffffffffff16815260200190815260200160002060000160009054906101000a900473ffffffffffffffffffffffffffffffffffffffff1673ffffffffffffffffffffffffffffffffffffffff16148015610c8b57506000600160003373ffffffffffffffffffffffffffffffffffffffff1673ffffffffffffffffffffffffffffffffffffffff168152602001908152602001600020600101805460018160011615610100020316600290049050145b8015610dad5750600073ffffffffffffffffffffffffffffffffffffffff166001600080846040518082805190602001908083835b60208310610ce35780518252602082019150602081019050602083039250610cc0565b6001836020036101000a038019825116818451168082178552505050505050905001915050908152602001604051809103902060009054906101000a900473ffffffffffffffffffffffffffffffffffffffff1673ffffffffffffffffffffffffffffffffffffffff1673ffffffffffffffffffffffffffffffffffffffff16815260200190815260200160002060000160009054906101000a900473ffffffffffffffffffffffffffffffffffffffff1673ffffffffffffffffffffffffffffffffffffffff16145b8015610e97575060006001600080846040518082805190602001908083835b60208310610def5780518252602082019150602081019050602083039250610dcc565b6001836020036101000a038019825116818451168082178552505050505050905001915050908152602001604051809103902060009054906101000a900473ffffffffffffffffffffffffffffffffffffffff1673ffffffffffffffffffffffffffffffffffffffff1673ffffffffffffffffffffffffffffffffffffffff168152602001908152602001600020600101805460018160011615610100020316600290049050145b610eec576040517f08c379a000000000000000000000000000000000000000000000000000000000815260040180806020018281038252602f815260200180612c9a602f913960400191505060405180910390fd5b336000836040518082805190602001908083835b60208310610f235780518252602082019150602081019050602083039250610f00565b6001836020036101000a038019825116818451168082178552505050505050905001915050908152602001604051809103902060006101000a81548173ffffffffffffffffffffffffffffffffffffffff021916908373ffffffffffffffffffffffffffffffffffffffff1602179055506000600160003373ffffffffffffffffffffffffffffffffffffffff1673ffffffffffffffffffffffffffffffffffffffff168152602001908152602001600020905082816001019080519060200190610fef929190612a6f565b50338160000160006101000a81548173ffffffffffffffffffffffffffffffffffffffff021916908373ffffffffffffffffffffffffffffffffffffffff160217905550505050565b6000600160003373ffffffffffffffffffffffffffffffffffffffff1673ffffffffffffffffffffffffffffffffffffffff16815260200190815260200160002060010180546001816001161561010002031660029004905014156110e8576040517f08c379a0000000000000000000000000000000000000000000000000000000008152600401808060200182810382526038815260200180612b376038913960400191505060405180910390fd5b8080600160003373ffffffffffffffffffffffffffffffffffffffff1673ffffffffffffffffffffffffffffffffffffffff16815260200190815260200160002060020154116111a0576040517f08c379a000000000000000000000000000000000000000000000000000000000815260040180806020018281038252601f8152602001807f596f7520646f206e6f74206861766520656e6f7567682062616c616e6365210081525060200191505060405180910390fd5b81600160003373ffffffffffffffffffffffffffffffffffffffff1673ffffffffffffffffffffffffffffffffffffffff168152602001908152602001600020600201600082825403925050819055503373ffffffffffffffffffffffffffffffffffffffff166108fc839081150290604051600060405180830381858888f19350505050158015611236573d6000803e3d6000fd5b507ff0b60c507a2e93235b6bed490cd5616aa2f43a849c3d167e96d6c5099b5524e5600160003373ffffffffffffffffffffffffffffffffffffffff1673ffffffffffffffffffffffffffffffffffffffff168152602001908152602001600020600201546040518082815260200191505060405180910390a15050565b3373ffffffffffffffffffffffffffffffffffffffff166009600060085481526020019081526020016000206002016000600281106112ef57fe5b0160009054906101000a900473ffffffffffffffffffffffffffffffffffffffff1673ffffffffffffffffffffffffffffffffffffffff1614806113a357503373ffffffffffffffffffffffffffffffffffffffff1660096000600854815260200190815260200160002060020160016002811061136957fe5b0160009054906101000a900473ffffffffffffffffffffffffffffffffffffffff1673ffffffffffffffffffffffffffffffffffffffff16145b6113f8576040517f08c379a0000000000000000000000000000000000000000000000000000000008152600401808060200182810382526022815260200180612c346022913960400191505060405180910390fd5b600060096000600854815260200190815260200160002060060160003373ffffffffffffffffffffffffffffffffffffffff1673ffffffffffffffffffffffffffffffffffffffff16815260200190815260200160002054146114a6576040517f08c379a0000000000000000000000000000000000000000000000000000000008152600401808060200182810382526027815260200180612b926027913960400191505060405180910390fd5b8060096000600854815260200190815260200160002060060160003373ffffffffffffffffffffffffffffffffffffffff1673ffffffffffffffffffffffffffffffffffffffff16815260200190815260200160002081905550600160066000828254019250508190555060026006541415611526576115246122dd565b505b50565b611531612aef565b6009600060085481526020019081526020016000206002016002806020026040519081016040528092919082600280156115b6576020028201915b8160009054906101000a900473ffffffffffffffffffffffffffffffffffffffff1673ffffffffffffffffffffffffffffffffffffffff168152602001906001019080831161156c575b5050505050905090565b600060096000600854815260200190815260200160002060010154905090565b6000600160003373ffffffffffffffffffffffffffffffffffffffff1673ffffffffffffffffffffffffffffffffffffffff1681526020019081526020016000206001018054600181600116156101000203166002900490501415611690576040517f08c379a0000000000000000000000000000000000000000000000000000000008152600401808060200182810382526038815260200180612b376038913960400191505060405180910390fd5b8080600160003373ffffffffffffffffffffffffffffffffffffffff1673ffffffffffffffffffffffffffffffffffffffff1681526020019081526020016000206002015411611748576040517f08c379a000000000000000000000000000000000000000000000000000000000815260040180806020018281038252601f8152602001807f596f7520646f206e6f74206861766520656e6f7567682062616c616e6365210081525060200191505060405180910390fd5b6000600160008573ffffffffffffffffffffffffffffffffffffffff1673ffffffffffffffffffffffffffffffffffffffff16815260200190815260200160002060010180546001816001161561010002031660029004905014156117f8576040517f08c379a000000000000000000000000000000000000000000000000000000000815260040180806020018281038252603f815260200180612bb9603f913960400191505060405180910390fd5b81600160003373ffffffffffffffffffffffffffffffffffffffff1673ffffffffffffffffffffffffffffffffffffffff1681526020019081526020016000206002016000828254039250508190555081600160008573ffffffffffffffffffffffffffffffffffffffff1673ffffffffffffffffffffffffffffffffffffffff168152602001908152602001600020600201600082825401925050819055507ff0b60c507a2e93235b6bed490cd5616aa2f43a849c3d167e96d6c5099b5524e5600160003373ffffffffffffffffffffffffffffffffffffffff1673ffffffffffffffffffffffffffffffffffffffff168152602001908152602001600020600201546040518082815260200191505060405180910390a1505050565b600080600160003373ffffffffffffffffffffffffffffffffffffffff1673ffffffffffffffffffffffffffffffffffffffff16815260200190815260200160002060010180546001816001161561010002031660029004905014156119c7576040517f08c379a0000000000000000000000000000000000000000000000000000000008152600401808060200182810382526038815260200180612b376038913960400191505060405180910390fd5b600160003373ffffffffffffffffffffffffffffffffffffffff1673ffffffffffffffffffffffffffffffffffffffff16815260200190815260200160002060020154905090565b6000600160003373ffffffffffffffffffffffffffffffffffffffff1673ffffffffffffffffffffffffffffffffffffffff1681526020019081526020016000206001018054600181600116156101000203166002900490501415611abf576040517f08c379a0000000000000000000000000000000000000000000000000000000008152600401808060200182810382526038815260200180612b376038913960400191505060405180910390fd5b34600160003373ffffffffffffffffffffffffffffffffffffffff1673ffffffffffffffffffffffffffffffffffffffff168152602001908152602001600020600201600082825401925050819055507ff0b60c507a2e93235b6bed490cd5616aa2f43a849c3d167e96d6c5099b5524e5600160003373ffffffffffffffffffffffffffffffffffffffff1673ffffffffffffffffffffffffffffffffffffffff168152602001908152602001600020600201546040518082815260200191505060405180910390a1565b60016009600060085481526020019081526020016000206001015414611bfb576040517f08c379a000000000000000000000000000000000000000000000000000000000815260040180806020018281038252603c815260200180612bf8603c913960400191505060405180910390fd5b60096000600854815260200190815260200160002060040154600160003373ffffffffffffffffffffffffffffffffffffffff1673ffffffffffffffffffffffffffffffffffffffff168152602001908152602001600020600201541015611cae576040517f08c379a0000000000000000000000000000000000000000000000000000000008152600401808060200182810382526023815260200180612b6f6023913960400191505060405180910390fd5b3373ffffffffffffffffffffffffffffffffffffffff16600960006008548152602001908152602001600020600201600060028110611ce957fe5b0160009054906101000a900473ffffffffffffffffffffffffffffffffffffffff1673ffffffffffffffffffffffffffffffffffffffff161415611d95576040517f08c379a000000000000000000000000000000000000000000000000000000000815260040180806020018281038252601d8152602001807f596f752061726520616c726561647920696e20746869732067616d652100000081525060200191505060405180910390fd5b33600960006008548152602001908152602001600020600201600160028110611dba57fe5b0160006101000a81548173ffffffffffffffffffffffffffffffffffffffff021916908373ffffffffffffffffffffffffffffffffffffffff16021790555060096000600854815260200190815260200160002060040154600160003373ffffffffffffffffffffffffffffffffffffffff1673ffffffffffffffffffffffffffffffffffffffff1681526020019081526020016000206002016000828254039250508190555060096000600854815260200190815260200160002060040154600260010160008282540192505081905550600260096000600854815260200190815260200160002060010181905550565b60006009600060085481526020019081526020016000206001015414611f1d576040517f08c379a0000000000000000000000000000000000000000000000000000000008152600401808060200182810382526044815260200180612c566044913960600191505060405180910390fd5b80600160003373ffffffffffffffffffffffffffffffffffffffff1673ffffffffffffffffffffffffffffffffffffffff168152602001908152602001600020600201541015611fb8576040517f08c379a0000000000000000000000000000000000000000000000000000000008152600401808060200182810382526023815260200180612b6f6023913960400191505060405180910390fd5b6000600960006008548152602001908152602001600020905060085481600001819055503381600201600060028110611fed57fe5b0160006101000a81548173ffffffffffffffffffffffffffffffffffffffff021916908373ffffffffffffffffffffffffffffffffffffffff16021790555081816004018190555081600160003373ffffffffffffffffffffffffffffffffffffffff1673ffffffffffffffffffffffffffffffffffffffff16815260200190815260200160002060020160008282540392505081905550816002600101600082825401925050819055506001600960006008548152602001908152602001600020600101819055505050565b60606000600160003373ffffffffffffffffffffffffffffffffffffffff1673ffffffffffffffffffffffffffffffffffffffff168152602001908152602001600020600101805460018160011615610100020316600290049050146121fc57600160003373ffffffffffffffffffffffffffffffffffffffff1673ffffffffffffffffffffffffffffffffffffffff1681526020019081526020016000206001018054600181600116156101000203166002900480601f0160208091040260200160405190810160405280929190818152602001828054600181600116156101000203166002900480156121f05780601f106121c5576101008083540402835291602001916121f0565b820191906000526020600020905b8154815290600101906020018083116121d357829003601f168201915b505050505090506122da565b600160003373ffffffffffffffffffffffffffffffffffffffff1673ffffffffffffffffffffffffffffffffffffffff1681526020019081526020016000206001018054600181600116156101000203166002900480601f0160208091040260200160405190810160405280929190818152602001828054600181600116156101000203166002900480156122d25780601f106122a7576101008083540402835291602001916122d2565b820191906000526020600020905b8154815290600101906020018083116122b557829003601f168201915b505050505090505b90565b6000806122e86125e1565b146125c95760006002806122f857fe5b600960006008548152602001908152602001600020600601600060096000600854815260200190815260200160002060020160016002811061233657fe5b0160009054906101000a900473ffffffffffffffffffffffffffffffffffffffff1673ffffffffffffffffffffffffffffffffffffffff1673ffffffffffffffffffffffffffffffffffffffff1681526020019081526020016000205460096000600854815260200190815260200160002060060160006009600060085481526020019081526020016000206002016000600281106123d157fe5b0160009054906101000a900473ffffffffffffffffffffffffffffffffffffffff1673ffffffffffffffffffffffffffffffffffffffff1673ffffffffffffffffffffffffffffffffffffffff1681526020019081526020016000205408905060008114156124db5760096000600854815260200190815260200160002060020160006002811061245e57fe5b0160009054906101000a900473ffffffffffffffffffffffffffffffffffffffff1660096000600854815260200190815260200160002060050160006101000a81548173ffffffffffffffffffffffffffffffffffffffff021916908373ffffffffffffffffffffffffffffffffffffffff160217905550612578565b6009600060085481526020019081526020016000206002016001600281106124ff57fe5b0160009054906101000a900473ffffffffffffffffffffffffffffffffffffffff1660096000600854815260200190815260200160002060050160006101000a81548173ffffffffffffffffffffffffffffffffffffffff021916908373ffffffffffffffffffffffffffffffffffffffff1602179055505b612580612803565b6125886128cf565b60096000600854815260200190815260200160002060050160009054906101000a900473ffffffffffffffffffffffffffffffffffffffff169150506125de565b6125d161291e565b6125d96128cf565b600090505b90565b6000806000905060008090505b60028110156127fb576009600060085481526020019081526020016000206006016000600960006008548152602001908152602001600020600201836002811061263457fe5b0160009054906101000a900473ffffffffffffffffffffffffffffffffffffffff1673ffffffffffffffffffffffffffffffffffffffff1673ffffffffffffffffffffffffffffffffffffffff1681526020019081526020016000205460405160200180828152602001915050604051602081830303815290604052805190602001206004600060096000600854815260200190815260200160002060020184600281106126de57fe5b0160009054906101000a900473ffffffffffffffffffffffffffffffffffffffff1673ffffffffffffffffffffffffffffffffffffffff1673ffffffffffffffffffffffffffffffffffffffff16815260200190815260200160002054146127ee57600960006008548152602001908152602001600020600201816002811061276357fe5b0160009054906101000a900473ffffffffffffffffffffffffffffffffffffffff1660096000600854815260200190815260200160002060070183600281106127a857fe5b0160006101000a81548173ffffffffffffffffffffffffffffffffffffffff021916908373ffffffffffffffffffffffffffffffffffffffff1602179055506001820191505b80806001019150506125ee565b508091505090565b600560646002600101548161281457fe5b0402600260000160008282540192505081905550605f60646002600101548161283957fe5b04026001600060096000600854815260200190815260200160002060050160009054906101000a900473ffffffffffffffffffffffffffffffffffffffff1673ffffffffffffffffffffffffffffffffffffffff1673ffffffffffffffffffffffffffffffffffffffff168152602001908152602001600020600201600082825401925050819055506000600260010181905550565b600360096000600854815260200190815260200160002060010181905550600760006101000a81549060ff02191690556005600090556006600090556001600860008282540192505081905550565b600280600101548161292c57fe5b046001600060096000600854815260200190815260200160002060020160006002811061295557fe5b0160009054906101000a900473ffffffffffffffffffffffffffffffffffffffff1673ffffffffffffffffffffffffffffffffffffffff1673ffffffffffffffffffffffffffffffffffffffff1681526020019081526020016000206002016000828254019250508190555060028060010154816129cf57fe5b04600160006009600060085481526020019081526020016000206002016001600281106129f857fe5b0160009054906101000a900473ffffffffffffffffffffffffffffffffffffffff1673ffffffffffffffffffffffffffffffffffffffff1673ffffffffffffffffffffffffffffffffffffffff16815260200190815260200160002060020160008282540192505081905550600260010160009055565b828054600181600116156101000203166002900490600052602060002090601f016020900481019282601f10612ab057805160ff1916838001178555612ade565b82800160010185558215612ade579182015b82811115612add578251825591602001919060010190612ac2565b5b509050612aeb9190612b11565b5090565b6040518060400160405280600290602082028038833980820191505090505090565b612b3391905b80821115612b2f576000816000905550600101612b17565b5090565b9056fe596f7572206164647265737320686173206e6f742072656769737465726564207965742120506c6561736520636865636b20616761696e2e596f7520646f206e6f7420686176652073756666696369656e742062616c616e63652e596f75206861766520616c7265616479207375626d697474656420796f757220726573756c742e5468652074617267657420616464726573732068617665206e6f742072656769737465726564207965742120506c6561736520636865636b20616761696e2e5468657265206973206e6f2067616d652077616974696e6720666f7220706c617965722c20706c6561736520696e69746961746520612067616d6521596f7520617265206e6f7420656e726f6c6c656420696e20746869732067616d6521546865726520697320612067616d652077616974696e6720666f7220706c617965722c20796f752063616e6e6f742073746172742061206e65772067616d65206e6f772154686520616464726573732f6163636f756e74204944206861766520616c7265616479207265676973746572656421a265627a7a72315820842dbe750d8f7a00acdc970a0e7ce0743dd7d985171257b76df7951cac78cd0664736f6c63430005100032",
  "source": "pragma solidity >=0.4.21 <0.7.0;\n\nimport \"./Account.sol\";\n\ncontract CoinFlip is Account{\n    /**\n     * Struct for Banker, which should contain the balance and temporary deposit for the current game.\n     */\n    struct Banker {\n        uint balance;\n        uint gameDeposit;\n    }\n    /// Initialize the banker\n    Banker banker = Banker({\n        balance: 0,\n        gameDeposit: 0\n    });\n\n    /**\n     * Players need to submit the hash values of their clear text before revealing\n     * As these value are not stored permanently, they will be deleted after each round\n     * @notice the value are deleted in houseCleaning() function\n     */\n    mapping (address => bytes32) submittedHashValue;\n    /// If the submitHashCount and submitClearTextCount reach 2, the next step will be processed automatically\n    uint submitHashCount = 0;\n    uint submitClearTextCount = 0;\n    /// The front-end will read this value to determine when the user can reveal the clear text.\n    bool bothSubmitHash = false;\n\n    /**\n     * Struct for Game\n     * @param gameID the self-increasing ID of the game, the gameID will increase by 1 in each round\n     * @param status the status of the game. 0: not started, 1: waiting for participant, 2: in process, 3: finished\n     * @param player the players participating in the game\n     * @param betValue provided by the first player initializing the game\n     * @param winner the winner of this round\n     * @param submittedClearText the submitted clear text value for each user\n     * @param cheater if there are cheaters, they will be recorded here\n     */\n    struct Game {\n        uint ID;\n        uint status;\n        address[2] player;\n        uint betValue;\n        address winner;\n        mapping (address => uint) submittedClearText;\n        address[2] cheater;\n    }\n\n    /// Self-increasing gameID counter\n    uint gameID = 1;\n    /// gameID => Game struct mapping\n    mapping (uint => Game) gameHistory;\n\n    function currentGameStatus() external view returns (uint) {\n        return gameHistory[gameID].status;\n    }\n\n    /**\n     * Initialize a game\n     * a game struct will be initialize and the betValue will be move from player's balance to banker's\n     * @param betValue only the player who initialize the game can set the betValue\n     *                 the participant can only accept it or wait until the game ends\n     * @notice once the game is initialized, the currentWaiting will be true,\n     *         and the front-end will not allow user to start a new game, they can only join the current one or wait.\n     */\n    function initializeGame(uint betValue) external {\n        require(gameHistory[gameID].status == 0, \"There is a game waiting for player, you cannot start a new game now!\");\n        require(userList[msg.sender].balance >= betValue, \"You do not have sufficient balance.\");\n        Game storage game = gameHistory[gameID];\n        game.ID = gameID;\n        game.player[0] = msg.sender;\n        game.betValue = betValue;\n\n        userList[msg.sender].balance -= betValue;\n        banker.gameDeposit += betValue;\n\n        gameHistory[gameID].status = 1;\n    }\n\n    /**\n     * If there is an on-going game, the user can join it.\n     * Once the new player join the game, the betValue will be deducted and transfer to the banker.\n     */\n    function joinGame() external {\n        require(gameHistory[gameID].status == 1, \"There is no game waiting for player, please initiate a game!\");\n        require(userList[msg.sender].balance >= gameHistory[gameID].betValue, \"You do not have sufficient balance.\");\n        // The player initialize the game cannot join it twice.\n        require(gameHistory[gameID].player[0] != msg.sender, \"You are already in this game!\");\n\n        gameHistory[gameID].player[1] = msg.sender;\n\n        userList[msg.sender].balance -= gameHistory[gameID].betValue;\n        banker.gameDeposit += gameHistory[gameID].betValue;\n\n        gameHistory[gameID].status = 2;\n    }\n\n    /**\n     * Only the enrolled players can use the command in the game.\n     */\n    modifier enrolledPlayer {\n        require(\n            gameHistory[gameID].player[0] == msg.sender || gameHistory[gameID].player[1] == msg.sender,\n            \"You are not enrolled in this game!\"\n        );\n        _;\n    }\n\n    /**\n     * @return current participants in this round\n     */\n    function currentInGamePlayer() external view returns (address[2] memory) {\n        return gameHistory[gameID].player;\n    }\n\n    /**\n     * Players submit their hash values through this function.\n     * @param hashValue each player submit the hash value generated from their clear text.\n     * @dev once both players submit their hash values, the bothSubmitHash will be true,\n     *      and the player can reveal their clear text.\n     */\n    function submitHash(bytes32 hashValue) external enrolledPlayer {\n        // Once the player submit the value, he/she cannot modify it.\n        require(submittedHashValue[msg.sender] == \"\", \"You have already submitted your result.\");\n\n        submittedHashValue[msg.sender] = hashValue;\n        submitHashCount += 1;\n\n        if (submitHashCount == 2) {\n            bothSubmitHash = true;\n        }\n    }\n\n    /**\n     * Make sure the submitted hash value and clear text match.\n     * TODO: not only the random number itself should be submitted, we need other nonce.\n     */\n    function validate() private returns (uint) {\n        uint cheaterCount = 0;\n        for (uint i = 0; i < 2; i++) {\n            if (submittedHashValue[gameHistory[gameID].player[i]] != keccak256(abi.encodePacked(gameHistory[gameID].submittedClearText[gameHistory[gameID].player[i]])) ) {\n                gameHistory[gameID].cheater[cheaterCount] = gameHistory[gameID].player[i];\n                cheaterCount += 1;\n            }\n        }\n        return cheaterCount;\n    }\n\n    /**\n     * If one or more players are detected cheating, this round will be invalid.\n     * The money will be given back to the players.\n     * TODO: Half of the cheater's balance will be kept by the contract/banker for punishment.\n     */\n    function detectCheating() private {\n        userList[gameHistory[gameID].player[0]].balance += banker.gameDeposit / 2;\n        userList[gameHistory[gameID].player[1]].balance += banker.gameDeposit / 2;\n\n        delete banker.gameDeposit;\n    }\n\n    /**\n     * If there is not cheaters found, the banker will find the winner.\n     * After find the winner or detect cheating, the houseCleaning() will start.\n     * @notice the player who initialize the game will always choose the mod == 0.\n     */\n    function findWinner() private returns (address) {\n        if (validate() != 0) {\n            uint mod = addmod(gameHistory[gameID].submittedClearText[gameHistory[gameID].player[0]], gameHistory[gameID].submittedClearText[gameHistory[gameID].player[1]], 2);\n            if (mod == 0) {\n                gameHistory[gameID].winner = gameHistory[gameID].player[0];\n            } else {\n                gameHistory[gameID].winner = gameHistory[gameID].player[1];\n            }\n            balanceTransfer();\n            houseCleaning();\n            return gameHistory[gameID].winner;\n        } else {\n            detectCheating();\n            houseCleaning();\n            return address(0);\n        }\n    }\n\n    /**\n     * Transfer 95% of the temporary gameDeposit to the winner, 5% to the banker.\n     */\n    function balanceTransfer() private {\n        banker.balance += banker.gameDeposit / 100 * 5;\n        userList[gameHistory[gameID].winner].balance += banker.gameDeposit / 100 * 95;\n        banker.gameDeposit = 0;\n    }\n\n    /**\n     * Function for players to submit their clear text values.\n     * Once 2 players submitted the clear text values, teh findWinner process will start.\n     * @param randomNumber the automatically generated randomNumber for the player.\n     */\n    function submitClearText(uint randomNumber) external enrolledPlayer {\n        // Prevent modification.\n        require(gameHistory[gameID].submittedClearText[msg.sender] == 0, \"You have already submitted your result.\");\n\n        gameHistory[gameID].submittedClearText[msg.sender] = randomNumber;\n        submitClearTextCount += 1;\n\n        if (submitClearTextCount == 2) {\n            findWinner();\n        }\n    }\n\n    /**\n     * House cleaning process to release resources and prepare for the next round.\n     */\n    function houseCleaning() private {\n        gameHistory[gameID].status = 3;\n\n        delete bothSubmitHash;\n        delete submitHashCount;\n        delete submitClearTextCount;\n\n        gameID += 1;\n    }\n}\n",
  "sourcePath": "/Users/blanker/Documents/Codings/DApp/CoinFlipping/contracts/CoinFlip.sol",
  "compiler": {
    "name": "solc",
    "version": "0.5.16+commit.9c3226ce.Emscripten.clang"
  },
  "schemaVersion": "3.0.23",
  "updatedAt": "2020-04-21T12:45:16.936Z",
  "networkType": "ethereum",
  "devdoc": {
    "methods": {
      "createAccount(string)": {
        "params": {
          "accountToRegister": "The account ID the user would like to use."
        }
      },
      "currentInGamePlayer()": {
        "return": "current participants in this round"
      },
      "initializeGame(uint256)": {
        "params": {
          "betValue": "only the player who initialize the game can set the betValue                the participant can only accept it or wait until the game ends"
        }
      },
      "submitClearText(uint256)": {
        "params": {
          "randomNumber": "the automatically generated randomNumber for the player."
        }
      },
      "submitHash(bytes32)": {
        "details": "once both players submit their hash values, the bothSubmitHash will be true,     and the player can reveal their clear text.",
        "params": {
          "hashValue": "each player submit the hash value generated from their clear text."
        }
      },
      "transferToAddress(address,uint256)": {
        "params": {
          "amount": "The amount of balance to transfer to the target registered user.",
          "toAddress": "The address of the target registered user to transfer balance to."
        }
      },
      "transferToID(string,uint256)": {
        "params": {
          "amount": "The amount of balance to transfer to the target registered user.",
          "toAccountID": "The accountID of the target registered user to transfer balance to."
        }
      },
      "withdraw(uint256)": {
        "params": {
          "amount": "The amount of balance to withdraw."
        }
      }
    }
  },
  "userdoc": {
    "methods": {
      "checkBalance()": {
        "notice": "Show the balance."
      },
      "deposit()": {
        "notice": "User deposit the money to the contract, and the contract will give him a \"virtual\" balance, similar to deposit fiat money to bank."
      },
      "initializeGame(uint256)": {
        "notice": "Initialize a game a game struct will be initialize and the betValue will be move from player's balance to banker'sonce the game is initialized, the currentWaiting will be true,        and the front-end will not allow user to start a new game, they can only join the current one or wait."
      },
      "joinGame()": {
        "notice": "If there is an on-going game, the user can join it. Once the new player join the game, the betValue will be deducted and transfer to the banker."
      },
      "submitClearText(uint256)": {
        "notice": "Function for players to submit their clear text values. Once 2 players submitted the clear text values, teh findWinner process will start."
      },
      "submitHash(bytes32)": {
        "notice": "Players submit their hash values through this function."
      },
      "transferToAddress(address,uint256)": {
        "notice": "User transfer his/her deposit to another registered user with the address."
      },
      "transferToID(string,uint256)": {
        "notice": "User transfer his/her deposit to another registered user with the accountID."
      },
      "withdraw(uint256)": {
        "notice": "Withdraw the balance from the contract, get the token back to his/her ethureum address."
      }
    }
  }
}