{
  "contractName": "CoinFlip",
  "abi": [
    {
      "anonymous": false,
      "inputs": [
        {
          "indexed": false,
          "internalType": "uint256",
          "name": "",
          "type": "uint256"
        }
      ],
      "name": "test",
      "type": "event"
    },
    {
      "constant": true,
      "inputs": [],
      "name": "bankerCheckBalance",
      "outputs": [
        {
          "internalType": "uint256",
          "name": "balance",
          "type": "uint256"
        }
      ],
      "payable": false,
      "stateMutability": "view",
      "type": "function"
    },
    {
      "constant": true,
      "inputs": [
        {
          "internalType": "uint256",
          "name": "targetTransactionID",
          "type": "uint256"
        }
      ],
      "name": "bankerTransactionCheck",
      "outputs": [
        {
          "internalType": "uint256",
          "name": "_id",
          "type": "uint256"
        },
        {
          "internalType": "string",
          "name": "_type",
          "type": "string"
        },
        {
          "internalType": "uint256",
          "name": "_time",
          "type": "uint256"
        },
        {
          "internalType": "string",
          "name": "_from",
          "type": "string"
        },
        {
          "internalType": "string",
          "name": "_to",
          "type": "string"
        },
        {
          "internalType": "uint256",
          "name": "_amount",
          "type": "uint256"
        }
      ],
      "payable": false,
      "stateMutability": "view",
      "type": "function"
    },
    {
      "constant": false,
      "inputs": [
        {
          "internalType": "uint256",
          "name": "amount",
          "type": "uint256"
        }
      ],
      "name": "bankerWithdraw",
      "outputs": [],
      "payable": true,
      "stateMutability": "payable",
      "type": "function"
    },
    {
      "constant": true,
      "inputs": [],
      "name": "checkBalance",
      "outputs": [
        {
          "internalType": "uint256",
          "name": "balance",
          "type": "uint256"
        }
      ],
      "payable": false,
      "stateMutability": "view",
      "type": "function"
    },
    {
      "constant": true,
      "inputs": [],
      "name": "checkIsBanker",
      "outputs": [
        {
          "internalType": "bool",
          "name": "_isBanker",
          "type": "bool"
        }
      ],
      "payable": false,
      "stateMutability": "view",
      "type": "function"
    },
    {
      "constant": true,
      "inputs": [],
      "name": "checkRegistration",
      "outputs": [
        {
          "internalType": "string",
          "name": "",
          "type": "string"
        }
      ],
      "payable": false,
      "stateMutability": "view",
      "type": "function"
    },
    {
      "constant": false,
      "inputs": [
        {
          "internalType": "string",
          "name": "accountToRegister",
          "type": "string"
        }
      ],
      "name": "createAccount",
      "outputs": [],
      "payable": false,
      "stateMutability": "nonpayable",
      "type": "function"
    },
    {
      "constant": false,
      "inputs": [],
      "name": "deposit",
      "outputs": [],
      "payable": true,
      "stateMutability": "payable",
      "type": "function"
    },
    {
      "constant": true,
      "inputs": [],
      "name": "latestTransactionID",
      "outputs": [
        {
          "internalType": "uint256",
          "name": "_latestTransactionID",
          "type": "uint256"
        }
      ],
      "payable": false,
      "stateMutability": "view",
      "type": "function"
    },
    {
      "constant": false,
      "inputs": [
        {
          "internalType": "address",
          "name": "toAddress",
          "type": "address"
        },
        {
          "internalType": "uint256",
          "name": "amount",
          "type": "uint256"
        }
      ],
      "name": "transferToAddress",
      "outputs": [],
      "payable": false,
      "stateMutability": "nonpayable",
      "type": "function"
    },
    {
      "constant": false,
      "inputs": [
        {
          "internalType": "string",
          "name": "toAccountID",
          "type": "string"
        },
        {
          "internalType": "uint256",
          "name": "amount",
          "type": "uint256"
        }
      ],
      "name": "transferToID",
      "outputs": [],
      "payable": false,
      "stateMutability": "nonpayable",
      "type": "function"
    },
    {
      "constant": true,
      "inputs": [],
      "name": "userTransactionArrayCheck",
      "outputs": [
        {
          "internalType": "uint256[]",
          "name": "",
          "type": "uint256[]"
        }
      ],
      "payable": false,
      "stateMutability": "view",
      "type": "function"
    },
    {
      "constant": true,
      "inputs": [
        {
          "internalType": "uint256",
          "name": "targetTransactionID",
          "type": "uint256"
        }
      ],
      "name": "userTransactionCheck",
      "outputs": [
        {
          "internalType": "uint256",
          "name": "_id",
          "type": "uint256"
        },
        {
          "internalType": "string",
          "name": "_type",
          "type": "string"
        },
        {
          "internalType": "uint256",
          "name": "_time",
          "type": "uint256"
        },
        {
          "internalType": "string",
          "name": "_from",
          "type": "string"
        },
        {
          "internalType": "string",
          "name": "_to",
          "type": "string"
        },
        {
          "internalType": "uint256",
          "name": "_amount",
          "type": "uint256"
        }
      ],
      "payable": false,
      "stateMutability": "view",
      "type": "function"
    },
    {
      "constant": false,
      "inputs": [
        {
          "internalType": "uint256",
          "name": "amount",
          "type": "uint256"
        }
      ],
      "name": "withdraw",
      "outputs": [],
      "payable": true,
      "stateMutability": "payable",
      "type": "function"
    },
    {
      "constant": true,
      "inputs": [],
      "name": "currentGameStatus",
      "outputs": [
        {
          "internalType": "uint256",
          "name": "",
          "type": "uint256"
        }
      ],
      "payable": false,
      "stateMutability": "view",
      "type": "function"
    },
    {
      "constant": false,
      "inputs": [
        {
          "internalType": "uint256",
          "name": "betValue",
          "type": "uint256"
        },
        {
          "internalType": "uint256",
          "name": "_maxPlayer",
          "type": "uint256"
        }
      ],
      "name": "initializeGame",
      "outputs": [],
      "payable": false,
      "stateMutability": "nonpayable",
      "type": "function"
    },
    {
      "constant": false,
      "inputs": [],
      "name": "joinGame",
      "outputs": [],
      "payable": false,
      "stateMutability": "nonpayable",
      "type": "function"
    },
    {
      "constant": true,
      "inputs": [],
      "name": "currentInGamePlayer",
      "outputs": [
        {
          "internalType": "address[]",
          "name": "",
          "type": "address[]"
        }
      ],
      "payable": false,
      "stateMutability": "view",
      "type": "function"
    },
    {
      "constant": true,
      "inputs": [],
      "name": "currentGameBetValue",
      "outputs": [
        {
          "internalType": "uint256",
          "name": "",
          "type": "uint256"
        }
      ],
      "payable": false,
      "stateMutability": "view",
      "type": "function"
    },
    {
      "constant": false,
      "inputs": [
        {
          "internalType": "bytes32",
          "name": "hashValue",
          "type": "bytes32"
        }
      ],
      "name": "submitHash",
      "outputs": [],
      "payable": false,
      "stateMutability": "nonpayable",
      "type": "function"
    },
    {
      "constant": false,
      "inputs": [
        {
          "internalType": "uint256",
          "name": "randomNumber",
          "type": "uint256"
        }
      ],
      "name": "submitClearText",
      "outputs": [],
      "payable": false,
      "stateMutability": "nonpayable",
      "type": "function"
    },
    {
      "constant": true,
      "inputs": [],
      "name": "bothSubmitHashCheck",
      "outputs": [
        {
          "internalType": "bool",
          "name": "",
          "type": "bool"
        }
      ],
      "payable": false,
      "stateMutability": "view",
      "type": "function"
    },
    {
      "constant": true,
      "inputs": [],
      "name": "lastGameHistory",
      "outputs": [
        {
          "internalType": "uint256",
          "name": "game_id",
          "type": "uint256"
        },
        {
          "internalType": "uint256",
          "name": "bet_value",
          "type": "uint256"
        },
        {
          "internalType": "uint256",
          "name": "total_player",
          "type": "uint256"
        },
        {
          "internalType": "uint256",
          "name": "your_index",
          "type": "uint256"
        },
        {
          "internalType": "uint256",
          "name": "winner_index",
          "type": "uint256"
        }
      ],
      "payable": false,
      "stateMutability": "view",
      "type": "function"
    }
  ],
  "bytecode": "0x60806040526001600055600060085560006009556000600a60006101000a81548160ff0219169083151502179055506001600b5560405180606001604052803373ffffffffffffffffffffffffffffffffffffffff168152602001600081526020016000815250600460008201518160000160006101000a81548173ffffffffffffffffffffffffffffffffffffffff021916908373ffffffffffffffffffffffffffffffffffffffff1602179055506020820151816001015560408201518160020155905050615229806100d56000396000f3fe6080604052600436106101405760003560e01c80639122b600116100b6578063d4f77b1c1161006f578063d4f77b1c146107c8578063d9ba55a2146107df578063de66172b1461080a578063e4338d4414610839578063e570695714610867578063fd1b210014610a0857610140565b80639122b6001461067d578063975201bd146106c2578063acef603714610709578063b7fbd26214610764578063c71daccb14610793578063d0e30db0146107be57610140565b80634e15cf34116101085780634e15cf34146103735780636e50d03414610514578063725c49c01461053f57806372fb8e8e1461057a578063795fc60c146105e65780637f102c161461065257610140565b806308891a32146101455780630c41bda81461018057806325f7756014610252578063298daf5b1461027d5780632e1a7d4d14610345575b600080fd5b34801561015157600080fd5b5061017e6004803603602081101561016857600080fd5b8101908080359060200190929190505050610a98565b005b34801561018c57600080fd5b50610250600480360360408110156101a357600080fd5b81019080803590602001906401000000008111156101c057600080fd5b8201836020820111156101d257600080fd5b803590602001918460018302840111640100000000831117156101f457600080fd5b91908080601f016020809104026020016040519081016040528093929190818152602001838380828437600081840152601f19601f82011690508083019250505050505050919291929080359060200190929190505050610e57565b005b34801561025e57600080fd5b50610267611249565b6040518082815260200191505060405180910390f35b34801561028957600080fd5b50610343600480360360208110156102a057600080fd5b81019080803590602001906401000000008111156102bd57600080fd5b8201836020820111156102cf57600080fd5b803590602001918460018302840111640100000000831117156102f157600080fd5b91908080601f016020809104026020016040519081016040528093929190818152602001838380828437600081840152601f19601f8201169050808301925050505050505091929192905050506112fc565b005b6103716004803603602081101561035b57600080fd5b81019080803590602001909291905050506117a0565b005b34801561037f57600080fd5b506103ac6004803603602081101561039657600080fd5b8101908080359060200190929190505050611abc565b60405180878152602001806020018681526020018060200180602001858152602001848103845289818151815260200191508051906020019080838360005b838110156104065780820151818401526020810190506103eb565b50505050905090810190601f1680156104335780820380516001836020036101000a031916815260200191505b50848103835287818151815260200191508051906020019080838360005b8381101561046c578082015181840152602081019050610451565b50505050905090810190601f1680156104995780820380516001836020036101000a031916815260200191505b50848103825286818151815260200191508051906020019080838360005b838110156104d25780820151818401526020810190506104b7565b50505050905090810190601f1680156104ff5780820380516001836020036101000a031916815260200191505b50995050505050505050505060405180910390f35b34801561052057600080fd5b50610529612127565b6040518082815260200191505060405180910390f35b34801561054b57600080fd5b506105786004803603602081101561056257600080fd5b8101908080359060200190929190505050612147565b005b34801561058657600080fd5b5061058f612567565b6040518080602001828103825283818151815260200191508051906020019060200280838360005b838110156105d25780820151818401526020810190506105b7565b505050509050019250505060405180910390f35b3480156105f257600080fd5b506105fb61260b565b6040518080602001828103825283818151815260200191508051906020019060200280838360005b8381101561063e578082015181840152602081019050610623565b505050509050019250505060405180910390f35b34801561065e57600080fd5b506106676126a3565b6040518082815260200191505060405180910390f35b34801561068957600080fd5b506106c0600480360360408110156106a057600080fd5b8101908080359060200190929190803590602001909291905050506126c3565b005b3480156106ce57600080fd5b506106d76129ff565b604051808681526020018581526020018481526020018381526020018281526020019550505050505060405180910390f35b34801561071557600080fd5b506107626004803603604081101561072c57600080fd5b81019080803573ffffffffffffffffffffffffffffffffffffffff16906020019092919080359060200190929190505050612bd9565b005b34801561077057600080fd5b50610779612fde565b604051808215151515815260200191505060405180910390f35b34801561079f57600080fd5b506107a861304a565b6040518082815260200191505060405180910390f35b6107c6613143565b005b3480156107d457600080fd5b506107dd613395565b005b3480156107eb57600080fd5b506107f461376e565b6040518082815260200191505060405180910390f35b34801561081657600080fd5b5061081f613824565b604051808215151515815260200191505060405180910390f35b6108656004803603602081101561084f57600080fd5b8101908080359060200190929190505050613a3e565b005b34801561087357600080fd5b506108a06004803603602081101561088a57600080fd5b8101908080359060200190929190505050613be4565b60405180878152602001806020018681526020018060200180602001858152602001848103845289818151815260200191508051906020019080838360005b838110156108fa5780820151818401526020810190506108df565b50505050905090810190601f1680156109275780820380516001836020036101000a031916815260200191505b50848103835287818151815260200191508051906020019080838360005b83811015610960578082015181840152602081019050610945565b50505050905090810190601f16801561098d5780820380516001836020036101000a031916815260200191505b50848103825286818151815260200191508051906020019080838360005b838110156109c65780820151818401526020810190506109ab565b50505050905090810190601f1680156109f35780820380516001836020036101000a031916815260200191505b50995050505050505050505060405180910390f35b348015610a1457600080fd5b50610a1d613f01565b6040518080602001828103825283818151815260200191508051906020019080838360005b83811015610a5d578082015181840152602081019050610a42565b50505050905090810190601f168015610a8a5780820380516001836020036101000a031916815260200191505b509250505060405180910390f35b610aa0614dc6565b600c6000600b5481526020019081526020016000206040518060c001604052908160008201548152602001600182015481526020016002820154815260200160038201805480602002602001604051908101604052809291908181526020018280548015610b6357602002820191906000526020600020905b8160009054906101000a900473ffffffffffffffffffffffffffffffffffffffff1673ffffffffffffffffffffffffffffffffffffffff1681526020019060010190808311610b19575b50505050508152602001600482015481526020016005820160009054906101000a900473ffffffffffffffffffffffffffffffffffffffff1673ffffffffffffffffffffffffffffffffffffffff1673ffffffffffffffffffffffffffffffffffffffff16815250509050600080905060008090505b8260400151811015610c42573373ffffffffffffffffffffffffffffffffffffffff1683606001518281518110610c0c57fe5b602002602001015173ffffffffffffffffffffffffffffffffffffffff161415610c3557600191505b8080600101915050610bd9565b5080610c99576040517f08c379a00000000000000000000000000000000000000000000000000000000081526004018080602001828103825260228152602001806150876022913960400191505060405180910390fd5b6002600c6000600b5481526020019081526020016000206001015414610d27576040517f08c379a00000000000000000000000000000000000000000000000000000000081526004018080602001828103825260198152602001807f5468652067616d65207374617475732069732077726f6e67210000000000000081525060200191505060405180910390fd5b6000600760003373ffffffffffffffffffffffffffffffffffffffff1673ffffffffffffffffffffffffffffffffffffffff1681526020019081526020016000205414610dbf576040517f08c379a0000000000000000000000000000000000000000000000000000000008152600401808060200182810382526027815260200180614fe56027913960400191505060405180910390fd5b82600760003373ffffffffffffffffffffffffffffffffffffffff1673ffffffffffffffffffffffffffffffffffffffff168152602001908152602001600020819055506001600860008282540192505081905550600c6000600b548152602001908152602001600020600201546008541415610e52576001600a60006101000a81548160ff0219169083151502179055505b505050565b6000600360003373ffffffffffffffffffffffffffffffffffffffff1673ffffffffffffffffffffffffffffffffffffffff1681526020019081526020016000206001018054600181600116156101000203166002900490501415610f07576040517f08c379a0000000000000000000000000000000000000000000000000000000008152600401808060200182810382526038815260200180614f336038913960400191505060405180910390fd5b8080600360003373ffffffffffffffffffffffffffffffffffffffff1673ffffffffffffffffffffffffffffffffffffffff168152602001908152602001600020600201541015610fc0576040517f08c379a000000000000000000000000000000000000000000000000000000000815260040180806020018281038252601f8152602001807f596f7520646f206e6f74206861766520656e6f7567682062616c616e6365210081525060200191505060405180910390fd5b6000600360003373ffffffffffffffffffffffffffffffffffffffff1673ffffffffffffffffffffffffffffffffffffffff16815260200190815260200160002090506000600360006002876040518082805190602001908083835b6020831061103f578051825260208201915060208101905060208303925061101c565b6001836020036101000a038019825116818451168082178552505050505050905001915050908152602001604051809103902060009054906101000a900473ffffffffffffffffffffffffffffffffffffffff1673ffffffffffffffffffffffffffffffffffffffff1673ffffffffffffffffffffffffffffffffffffffff16815260200190815260200160002090506000816001018054600181600116156101000203166002900490501415611141576040517f08c379a000000000000000000000000000000000000000000000000000000000815260040180806020018281038252603f81526020018061500c603f913960400191505060405180910390fd5b838260020160008282540392505081905550838160020160008282540192505081905550611242826001018054600181600116156101000203166002900480601f0160208091040260200160405190810160405280929190818152602001828054600181600116156101000203166002900480156112005780601f106111d557610100808354040283529160200191611200565b820191906000526020600020905b8154815290600101906020018083116111e357829003601f168201915b505050505086866040518060400160405280600881526020017f5472616e736665720000000000000000000000000000000000000000000000008152506140af565b5050505050565b6000600460000160009054906101000a900473ffffffffffffffffffffffffffffffffffffffff1673ffffffffffffffffffffffffffffffffffffffff163373ffffffffffffffffffffffffffffffffffffffff16146112f4576040517f08c379a00000000000000000000000000000000000000000000000000000000081526004018080602001828103825260328152602001806151946032913960400191505060405180910390fd5b600054905090565b80600073ffffffffffffffffffffffffffffffffffffffff16600360003373ffffffffffffffffffffffffffffffffffffffff1673ffffffffffffffffffffffffffffffffffffffff16815260200190815260200160002060000160009054906101000a900473ffffffffffffffffffffffffffffffffffffffff1673ffffffffffffffffffffffffffffffffffffffff161480156113f157506000600360003373ffffffffffffffffffffffffffffffffffffffff1673ffffffffffffffffffffffffffffffffffffffff168152602001908152602001600020600101805460018160011615610100020316600290049050145b80156115145750600073ffffffffffffffffffffffffffffffffffffffff16600360006002846040518082805190602001908083835b6020831061144a5780518252602082019150602081019050602083039250611427565b6001836020036101000a038019825116818451168082178552505050505050905001915050908152602001604051809103902060009054906101000a900473ffffffffffffffffffffffffffffffffffffffff1673ffffffffffffffffffffffffffffffffffffffff1673ffffffffffffffffffffffffffffffffffffffff16815260200190815260200160002060000160009054906101000a900473ffffffffffffffffffffffffffffffffffffffff1673ffffffffffffffffffffffffffffffffffffffff16145b80156115ff57506000600360006002846040518082805190602001908083835b602083106115575780518252602082019150602081019050602083039250611534565b6001836020036101000a038019825116818451168082178552505050505050905001915050908152602001604051809103902060009054906101000a900473ffffffffffffffffffffffffffffffffffffffff1673ffffffffffffffffffffffffffffffffffffffff1673ffffffffffffffffffffffffffffffffffffffff168152602001908152602001600020600101805460018160011615610100020316600290049050145b611654576040517f08c379a000000000000000000000000000000000000000000000000000000000815260040180806020018281038252602f8152602001806151c6602f913960400191505060405180910390fd5b336002836040518082805190602001908083835b6020831061168b5780518252602082019150602081019050602083039250611668565b6001836020036101000a038019825116818451168082178552505050505050905001915050908152602001604051809103902060006101000a81548173ffffffffffffffffffffffffffffffffffffffff021916908373ffffffffffffffffffffffffffffffffffffffff1602179055506000600360003373ffffffffffffffffffffffffffffffffffffffff1673ffffffffffffffffffffffffffffffffffffffff168152602001908152602001600020905082816001019080519060200190611757929190614e12565b50338160000160006101000a81548173ffffffffffffffffffffffffffffffffffffffff021916908373ffffffffffffffffffffffffffffffffffffffff160217905550505050565b6000600360003373ffffffffffffffffffffffffffffffffffffffff1673ffffffffffffffffffffffffffffffffffffffff1681526020019081526020016000206001018054600181600116156101000203166002900490501415611850576040517f08c379a0000000000000000000000000000000000000000000000000000000008152600401808060200182810382526038815260200180614f336038913960400191505060405180910390fd5b8080600360003373ffffffffffffffffffffffffffffffffffffffff1673ffffffffffffffffffffffffffffffffffffffff168152602001908152602001600020600201541015611909576040517f08c379a000000000000000000000000000000000000000000000000000000000815260040180806020018281038252601f8152602001807f596f7520646f206e6f74206861766520656e6f7567682062616c616e6365210081525060200191505060405180910390fd5b6000600360003373ffffffffffffffffffffffffffffffffffffffff1673ffffffffffffffffffffffffffffffffffffffff16815260200190815260200160002090508281600201600082825403925050819055503373ffffffffffffffffffffffffffffffffffffffff166108fc849081150290604051600060405180830381858888f193505050501580156119a4573d6000803e3d6000fd5b50611ab7816001018054600181600116156101000203166002900480601f016020809104026020016040519081016040528092919081815260200182805460018160011615610100020316600290048015611a405780601f10611a1557610100808354040283529160200191611a40565b820191906000526020600020905b815481529060010190602001808311611a2357829003601f168201915b50505050506040518060400160405280600f81526020017f45787465726e616c2057616c6c65740000000000000000000000000000000000815250856040518060400160405280600881526020017f57697468647261770000000000000000000000000000000000000000000000008152506140af565b505050565b6000606060006060806000611acf614e92565b600360003373ffffffffffffffffffffffffffffffffffffffff1673ffffffffffffffffffffffffffffffffffffffff1681526020019081526020016000206040518060a00160405290816000820160009054906101000a900473ffffffffffffffffffffffffffffffffffffffff1673ffffffffffffffffffffffffffffffffffffffff1673ffffffffffffffffffffffffffffffffffffffff168152602001600182018054600181600116156101000203166002900480601f016020809104026020016040519081016040528092919081815260200182805460018160011615610100020316600290048015611c085780601f10611bdd57610100808354040283529160200191611c08565b820191906000526020600020905b815481529060010190602001808311611beb57829003601f168201915b50505050508152602001600282015481526020016003820154815260200160048201805480602002602001604051908101604052809291908181526020018280548015611c7457602002820191906000526020600020905b815481526020019060010190808311611c60575b5050505050815250509050611c87614ed7565b600160008a81526020019081526020016000206040518060c00160405290816000820154815260200160018201548152602001600282018054600181600116156101000203166002900480601f016020809104026020016040519081016040528092919081815260200182805460018160011615610100020316600290048015611d525780601f10611d2757610100808354040283529160200191611d52565b820191906000526020600020905b815481529060010190602001808311611d3557829003601f168201915b50505050508152602001600382018054600181600116156101000203166002900480601f016020809104026020016040519081016040528092919081815260200182805460018160011615610100020316600290048015611df45780601f10611dc957610100808354040283529160200191611df4565b820191906000526020600020905b815481529060010190602001808311611dd757829003601f168201915b5050505050815260200160048201548152602001600582018054600181600116156101000203166002900480601f016020809104026020016040519081016040528092919081815260200182805460018160011615610100020316600290048015611ea05780601f10611e7557610100808354040283529160200191611ea0565b820191906000526020600020905b815481529060010190602001808311611e8357829003601f168201915b5050505050815250509050600281604001516040518082805190602001908083835b60208310611ee55780518252602082019150602081019050602083039250611ec2565b6001836020036101000a038019825116818451168082178552505050505050905001915050908152602001604051809103902060009054906101000a900473ffffffffffffffffffffffffffffffffffffffff1673ffffffffffffffffffffffffffffffffffffffff16826000015173ffffffffffffffffffffffffffffffffffffffff1614806120325750600281606001516040518082805190602001908083835b60208310611fab5780518252602082019150602081019050602083039250611f88565b6001836020036101000a038019825116818451168082178552505050505050905001915050908152602001604051809103902060009054906101000a900473ffffffffffffffffffffffffffffffffffffffff1673ffffffffffffffffffffffffffffffffffffffff16826000015173ffffffffffffffffffffffffffffffffffffffff16145b612087576040517f08c379a0000000000000000000000000000000000000000000000000000000008152600401808060200182810382526029815260200180614f6b6029913960400191505060405180910390fd5b620151808160200151420311156120e9576040517f08c379a00000000000000000000000000000000000000000000000000000000081526004018080602001828103825260328152602001806150ed6032913960400191505060405180910390fd5b80600001518160a001518260200151836040015184606001518560800151849450829250819150975097509750975097509750505091939550919395565b6000600c6000600b54815260200190815260200160002060040154905090565b61214f614dc6565b600c6000600b5481526020019081526020016000206040518060c00160405290816000820154815260200160018201548152602001600282015481526020016003820180548060200260200160405190810160405280929190818152602001828054801561221257602002820191906000526020600020905b8160009054906101000a900473ffffffffffffffffffffffffffffffffffffffff1673ffffffffffffffffffffffffffffffffffffffff16815260200190600101908083116121c8575b50505050508152602001600482015481526020016005820160009054906101000a900473ffffffffffffffffffffffffffffffffffffffff1673ffffffffffffffffffffffffffffffffffffffff1673ffffffffffffffffffffffffffffffffffffffff16815250509050600080905060008090505b82604001518110156122f1573373ffffffffffffffffffffffffffffffffffffffff16836060015182815181106122bb57fe5b602002602001015173ffffffffffffffffffffffffffffffffffffffff1614156122e457600191505b8080600101915050612288565b5080612348576040517f08c379a00000000000000000000000000000000000000000000000000000000081526004018080602001828103825260228152602001806150876022913960400191505060405180910390fd5b6000600c6000600b54815260200190815260200160002090506000600760003373ffffffffffffffffffffffffffffffffffffffff1673ffffffffffffffffffffffffffffffffffffffff1681526020019081526020016000205414156123fa576040517f08c379a00000000000000000000000000000000000000000000000000000000081526004018080602001828103825260238152602001806151716023913960400191505060405180910390fd5b806002015460085414612458576040517f08c379a000000000000000000000000000000000000000000000000000000000815260040180806020018281038252602e815260200180614f94602e913960400191505060405180910390fd5b60008160060160003373ffffffffffffffffffffffffffffffffffffffff1673ffffffffffffffffffffffffffffffffffffffff16815260200190815260200160002054146124f2576040517f08c379a0000000000000000000000000000000000000000000000000000000008152600401808060200182810382526027815260200180614fe56027913960400191505060405180910390fd5b838160060160003373ffffffffffffffffffffffffffffffffffffffff1673ffffffffffffffffffffffffffffffffffffffff168152602001908152602001600020819055506001600960008282540192505081905550806002015460095414156125615761255f614334565b505b50505050565b6060600c6000600b54815260200190815260200160002060030180548060200260200160405190810160405280929190818152602001828054801561260157602002820191906000526020600020905b8160009054906101000a900473ffffffffffffffffffffffffffffffffffffffff1673ffffffffffffffffffffffffffffffffffffffff16815260200190600101908083116125b7575b5050505050905090565b6060600360003373ffffffffffffffffffffffffffffffffffffffff1673ffffffffffffffffffffffffffffffffffffffff16815260200190815260200160002060040180548060200260200160405190810160405280929190818152602001828054801561269957602002820191906000526020600020905b815481526020019060010190808311612685575b5050505050905090565b6000600c6000600b54815260200190815260200160002060010154905090565b6000600c6000600b54815260200190815260200160002090506000600360003373ffffffffffffffffffffffffffffffffffffffff1673ffffffffffffffffffffffffffffffffffffffff16815260200190815260200160002090506002831015612779576040517f08c379a000000000000000000000000000000000000000000000000000000000815260040180806020018281038252602c815260200180615145602c913960400191505060405180910390fd5b60008260010154146127d6576040517f08c379a00000000000000000000000000000000000000000000000000000000081526004018080602001828103825260448152602001806150a96044913960600191505060405180910390fd5b8381600201541015612833576040517f08c379a0000000000000000000000000000000000000000000000000000000008152600401808060200182810382526023815260200180614fc26023913960400191505060405180910390fd5b600b548260000181905550828260020181905550816003013390806001815401808255809150509060018203906000526020600020016000909192909190916101000a81548173ffffffffffffffffffffffffffffffffffffffff021916908373ffffffffffffffffffffffffffffffffffffffff16021790555050838260040181905550838160020160008282540392505081905550836004600201600082825401925050819055506129ef816001018054600181600116156101000203166002900480601f0160208091040260200160405190810160405280929190818152602001828054600181600116156101000203166002900480156129785780601f1061294d57610100808354040283529160200191612978565b820191906000526020600020905b81548152906001019060200180831161295b57829003601f168201915b50505050506040518060400160405280600681526020017f62616e6b65720000000000000000000000000000000000000000000000000000815250866040518060400160405280600381526020017f42657400000000000000000000000000000000000000000000000000000000008152506140af565b6001826001018190555050505050565b600080600080600080600c6000600360003373ffffffffffffffffffffffffffffffffffffffff1673ffffffffffffffffffffffffffffffffffffffff16815260200190815260200160002060030154815260200190815260200160002090506000809050600080905060008090505b8360020154811015612bb057836003018181548110612a8a57fe5b9060005260206000200160009054906101000a900473ffffffffffffffffffffffffffffffffffffffff1673ffffffffffffffffffffffffffffffffffffffff163373ffffffffffffffffffffffffffffffffffffffff161415612aef576001810192505b836003018181548110612afe57fe5b9060005260206000200160009054906101000a900473ffffffffffffffffffffffffffffffffffffffff1673ffffffffffffffffffffffffffffffffffffffff168460050160009054906101000a900473ffffffffffffffffffffffffffffffffffffffff1673ffffffffffffffffffffffffffffffffffffffff161415612b87576001810191505b60008314158015612b99575060008214155b15612ba357612bb0565b8080600101915050612a6f565b508260000154836004015484600301805490508484975097509750975097505050509091929394565b6000600360003373ffffffffffffffffffffffffffffffffffffffff1673ffffffffffffffffffffffffffffffffffffffff1681526020019081526020016000206001018054600181600116156101000203166002900490501415612c89576040517f08c379a0000000000000000000000000000000000000000000000000000000008152600401808060200182810382526038815260200180614f336038913960400191505060405180910390fd5b8080600360003373ffffffffffffffffffffffffffffffffffffffff1673ffffffffffffffffffffffffffffffffffffffff168152602001908152602001600020600201541015612d42576040517f08c379a000000000000000000000000000000000000000000000000000000000815260040180806020018281038252601f8152602001807f596f7520646f206e6f74206861766520656e6f7567682062616c616e6365210081525060200191505060405180910390fd5b6000600360003373ffffffffffffffffffffffffffffffffffffffff1673ffffffffffffffffffffffffffffffffffffffff16815260200190815260200160002090506000600360008673ffffffffffffffffffffffffffffffffffffffff1673ffffffffffffffffffffffffffffffffffffffff16815260200190815260200160002090506000816001018054600181600116156101000203166002900490501415612e3a576040517f08c379a000000000000000000000000000000000000000000000000000000000815260040180806020018281038252603f81526020018061500c603f913960400191505060405180910390fd5b838260020160008282540392505081905550838160020160008282540192505081905550612fd7826001018054600181600116156101000203166002900480601f016020809104026020016040519081016040528092919081815260200182805460018160011615610100020316600290048015612ef95780601f10612ece57610100808354040283529160200191612ef9565b820191906000526020600020905b815481529060010190602001808311612edc57829003601f168201915b5050505050826001018054600181600116156101000203166002900480601f016020809104026020016040519081016040528092919081815260200182805460018160011615610100020316600290048015612f965780601f10612f6b57610100808354040283529160200191612f96565b820191906000526020600020905b815481529060010190602001808311612f7957829003601f168201915b5050505050866040518060400160405280600881526020017f5472616e736665720000000000000000000000000000000000000000000000008152506140af565b5050505050565b6000600460000160009054906101000a900473ffffffffffffffffffffffffffffffffffffffff1673ffffffffffffffffffffffffffffffffffffffff163373ffffffffffffffffffffffffffffffffffffffff1614156130425760019050613047565b600090505b90565b600080600360003373ffffffffffffffffffffffffffffffffffffffff1673ffffffffffffffffffffffffffffffffffffffff16815260200190815260200160002060010180546001816001161561010002031660029004905014156130fb576040517f08c379a0000000000000000000000000000000000000000000000000000000008152600401808060200182810382526038815260200180614f336038913960400191505060405180910390fd5b600360003373ffffffffffffffffffffffffffffffffffffffff1673ffffffffffffffffffffffffffffffffffffffff16815260200190815260200160002060020154905090565b6000600360003373ffffffffffffffffffffffffffffffffffffffff1673ffffffffffffffffffffffffffffffffffffffff16815260200190815260200160002060010180546001816001161561010002031660029004905014156131f3576040517f08c379a0000000000000000000000000000000000000000000000000000000008152600401808060200182810382526038815260200180614f336038913960400191505060405180910390fd5b34600360003373ffffffffffffffffffffffffffffffffffffffff1673ffffffffffffffffffffffffffffffffffffffff168152602001908152602001600020600201600082825401925050819055506133936040518060400160405280600f81526020017f45787465726e616c2057616c6c65740000000000000000000000000000000000815250600360003373ffffffffffffffffffffffffffffffffffffffff1673ffffffffffffffffffffffffffffffffffffffff1681526020019081526020016000206001018054600181600116156101000203166002900480601f0160208091040260200160405190810160405280929190818152602001828054600181600116156101000203166002900480156133525780601f1061332757610100808354040283529160200191613352565b820191906000526020600020905b81548152906001019060200180831161333557829003601f168201915b5050505050346040518060400160405280600781526020017f4465706f736974000000000000000000000000000000000000000000000000008152506140af565b565b6000600c6000600b54815260200190815260200160002090506000600360003373ffffffffffffffffffffffffffffffffffffffff1673ffffffffffffffffffffffffffffffffffffffff1681526020019081526020016000209050600182600101541461344e576040517f08c379a000000000000000000000000000000000000000000000000000000000815260040180806020018281038252603c81526020018061504b603c913960400191505060405180910390fd5b8160040154816002015410156134af576040517f08c379a0000000000000000000000000000000000000000000000000000000008152600401808060200182810382526023815260200180614fc26023913960400191505060405180910390fd5b600080905060008090505b8360030180549050811015613548573373ffffffffffffffffffffffffffffffffffffffff168460030182815481106134ef57fe5b9060005260206000200160009054906101000a900473ffffffffffffffffffffffffffffffffffffffff1673ffffffffffffffffffffffffffffffffffffffff16141561353b57600191505b80806001019150506134ba565b5080156135a0576040517f08c379a000000000000000000000000000000000000000000000000000000000815260040180806020018281038252602681526020018061511f6026913960400191505060405180910390fd5b826003013390806001815401808255809150509060018203906000526020600020016000909192909190916101000a81548173ffffffffffffffffffffffffffffffffffffffff021916908373ffffffffffffffffffffffffffffffffffffffff1602179055505082600401548260020160008282540392505081905550826004015460046002016000828254019250508190555061374b826001018054600181600116156101000203166002900480601f0160208091040260200160405190810160405280929190818152602001828054600181600116156101000203166002900480156136d05780601f106136a5576101008083540402835291602001916136d0565b820191906000526020600020905b8154815290600101906020018083116136b357829003601f168201915b50505050506040518060400160405280600681526020017f62616e6b6572000000000000000000000000000000000000000000000000000081525085600401546040518060400160405280600381526020017f42657400000000000000000000000000000000000000000000000000000000008152506140af565b82600201548360030180549050141561376957600283600101819055505b505050565b6000600460000160009054906101000a900473ffffffffffffffffffffffffffffffffffffffff1673ffffffffffffffffffffffffffffffffffffffff163373ffffffffffffffffffffffffffffffffffffffff1614613819576040517f08c379a00000000000000000000000000000000000000000000000000000000081526004018080602001828103825260328152602001806151946032913960400191505060405180910390fd5b600460010154905090565b600061382e614dc6565b600c6000600b5481526020019081526020016000206040518060c0016040529081600082015481526020016001820154815260200160028201548152602001600382018054806020026020016040519081016040528092919081815260200182805480156138f157602002820191906000526020600020905b8160009054906101000a900473ffffffffffffffffffffffffffffffffffffffff1673ffffffffffffffffffffffffffffffffffffffff16815260200190600101908083116138a7575b50505050508152602001600482015481526020016005820160009054906101000a900473ffffffffffffffffffffffffffffffffffffffff1673ffffffffffffffffffffffffffffffffffffffff1673ffffffffffffffffffffffffffffffffffffffff16815250509050600080905060008090505b82604001518110156139d0573373ffffffffffffffffffffffffffffffffffffffff168360600151828151811061399a57fe5b602002602001015173ffffffffffffffffffffffffffffffffffffffff1614156139c357600191505b8080600101915050613967565b5080613a27576040517f08c379a00000000000000000000000000000000000000000000000000000000081526004018080602001828103825260228152602001806150876022913960400191505060405180910390fd5b600a60009054906101000a900460ff169250505090565b600460000160009054906101000a900473ffffffffffffffffffffffffffffffffffffffff1673ffffffffffffffffffffffffffffffffffffffff163373ffffffffffffffffffffffffffffffffffffffff1614613ae7576040517f08c379a00000000000000000000000000000000000000000000000000000000081526004018080602001828103825260328152602001806151946032913960400191505060405180910390fd5b806004600101541015613b62576040517f08c379a000000000000000000000000000000000000000000000000000000000815260040180806020018281038252601f8152602001807f596f7520646f206e6f74206861766520656e6f7567682062616c616e63652e0081525060200191505060405180910390fd5b600460000160009054906101000a900473ffffffffffffffffffffffffffffffffffffffff1673ffffffffffffffffffffffffffffffffffffffff166108fc829081150290604051600060405180830381858888f19350505050158015613bcd573d6000803e3d6000fd5b508060046001016000828254039250508190555050565b6000606060006060806000600460000160009054906101000a900473ffffffffffffffffffffffffffffffffffffffff1673ffffffffffffffffffffffffffffffffffffffff163373ffffffffffffffffffffffffffffffffffffffff1614613c98576040517f08c379a00000000000000000000000000000000000000000000000000000000081526004018080602001828103825260328152602001806151946032913960400191505060405180910390fd5b613ca0614ed7565b600160008981526020019081526020016000206040518060c00160405290816000820154815260200160018201548152602001600282018054600181600116156101000203166002900480601f016020809104026020016040519081016040528092919081815260200182805460018160011615610100020316600290048015613d6b5780601f10613d4057610100808354040283529160200191613d6b565b820191906000526020600020905b815481529060010190602001808311613d4e57829003601f168201915b50505050508152602001600382018054600181600116156101000203166002900480601f016020809104026020016040519081016040528092919081815260200182805460018160011615610100020316600290048015613e0d5780601f10613de257610100808354040283529160200191613e0d565b820191906000526020600020905b815481529060010190602001808311613df057829003601f168201915b5050505050815260200160048201548152602001600582018054600181600116156101000203166002900480601f016020809104026020016040519081016040528092919081815260200182805460018160011615610100020316600290048015613eb95780601f10613e8e57610100808354040283529160200191613eb9565b820191906000526020600020905b815481529060010190602001808311613e9c57829003601f168201915b505050505081525050905080600001518160a0015182602001518360400151846060015185608001518494508292508191509650965096509650965096505091939550919395565b60606000600360003373ffffffffffffffffffffffffffffffffffffffff1673ffffffffffffffffffffffffffffffffffffffff16815260200190815260200160002090506000816001018054600181600116156101000203166002900490501461400b57806001018054600181600116156101000203166002900480601f016020809104026020016040519081016040528092919081815260200182805460018160011615610100020316600290048015613ffe5780601f10613fd357610100808354040283529160200191613ffe565b820191906000526020600020905b815481529060010190602001808311613fe157829003601f168201915b50505050509150506140ac565b806001018054600181600116156101000203166002900480601f0160208091040260200160405190810160405280929190818152602001828054600181600116156101000203166002900480156140a35780601f10614078576101008083540402835291602001916140a3565b820191906000526020600020905b81548152906001019060200180831161408657829003601f168201915b50505050509150505b90565b6000600160008054815260200190815260200160002090506000548160000181905550428160010181905550848160020190805190602001906140f3929190614e12565b508381600301908051906020019061410c929190614e12565b508281600401819055508181600501908051906020019061412e929190614e12565b50600360006002876040518082805190602001908083835b602083106141695780518252602082019150602081019050602083039250614146565b6001836020036101000a038019825116818451168082178552505050505050905001915050908152602001604051809103902060009054906101000a900473ffffffffffffffffffffffffffffffffffffffff1673ffffffffffffffffffffffffffffffffffffffff1673ffffffffffffffffffffffffffffffffffffffff1681526020019081526020016000206004016000549080600181540180825580915050906001820390600052602060002001600090919290919091505550600360006002866040518082805190602001908083835b60208310614260578051825260208201915060208101905060208303925061423d565b6001836020036101000a038019825116818451168082178552505050505050905001915050908152602001604051809103902060009054906101000a900473ffffffffffffffffffffffffffffffffffffffff1673ffffffffffffffffffffffffffffffffffffffff1673ffffffffffffffffffffffffffffffffffffffff1681526020019081526020016000206004016000549080600181540180825580915050906001820390600052602060002001600090919290919091505550600160008082825401925050819055505050505050565b600080600c6000600b548152602001908152602001600020905060006143586144e8565b14156144cf57600080905060008090505b82600201548110156144015782600601600084600301838154811061438a57fe5b9060005260206000200160009054906101000a900473ffffffffffffffffffffffffffffffffffffffff1673ffffffffffffffffffffffffffffffffffffffff1673ffffffffffffffffffffffffffffffffffffffff16815260200190815260200160002054820191508080600101915050614369565b5060008260020154828161441157fe5b06905082600301818154811061442357fe5b9060005260206000200160009054906101000a900473ffffffffffffffffffffffffffffffffffffffff168360050160006101000a81548173ffffffffffffffffffffffffffffffffffffffff021916908373ffffffffffffffffffffffffffffffffffffffff1602179055506144986146c5565b6144a06149d8565b8260050160009054906101000a900473ffffffffffffffffffffffffffffffffffffffff1693505050506144e5565b6144d7614b4b565b6144df6149d8565b60009150505b90565b600080600c6000600b5481526020019081526020016000209050600080905060008090505b82600201548110156146bc5782600301818154811061452857fe5b9060005260206000200160009054906101000a900473ffffffffffffffffffffffffffffffffffffffff1683600601600085600301848154811061456857fe5b9060005260206000200160009054906101000a900473ffffffffffffffffffffffffffffffffffffffff1673ffffffffffffffffffffffffffffffffffffffff1673ffffffffffffffffffffffffffffffffffffffff16815260200190815260200160002054604051602001808373ffffffffffffffffffffffffffffffffffffffff1673ffffffffffffffffffffffffffffffffffffffff1660601b815260140182815260200192505050604051602081830303815290604052805190602001206007600085600301848154811061463d57fe5b9060005260206000200160009054906101000a900473ffffffffffffffffffffffffffffffffffffffff1673ffffffffffffffffffffffffffffffffffffffff1673ffffffffffffffffffffffffffffffffffffffff16815260200190815260200160002054146146af576001820191505b808060010191505061450d565b50809250505090565b6000600c6000600b548152602001908152602001600020905060056064600460020154816146ef57fe5b0402600460010160008282540192505081905550605f60646004600201548161471457fe5b0402600360008360050160009054906101000a900473ffffffffffffffffffffffffffffffffffffffff1673ffffffffffffffffffffffffffffffffffffffff1673ffffffffffffffffffffffffffffffffffffffff168152602001908152602001600020600201600082825401925050819055506148466040518060400160405280600681526020017f62616e6b657200000000000000000000000000000000000000000000000000008152506040518060400160405280600681526020017f62616e6b65720000000000000000000000000000000000000000000000000000815250600560646004600201548161480957fe5b04026040518060400160405280600a81526020017f436f6d6d697373696f6e000000000000000000000000000000000000000000008152506140af565b6149cc6040518060400160405280600681526020017f62616e6b65720000000000000000000000000000000000000000000000000000815250600360008460050160009054906101000a900473ffffffffffffffffffffffffffffffffffffffff1673ffffffffffffffffffffffffffffffffffffffff1673ffffffffffffffffffffffffffffffffffffffff1681526020019081526020016000206001018054600181600116156101000203166002900480601f0160208091040260200160405190810160405280929190818152602001828054600181600116156101000203166002900480156149795780601f1061494e57610100808354040283529160200191614979565b820191906000526020600020905b81548152906001019060200180831161495c57829003601f168201915b5050505050605f60646004600201548161498f57fe5b04026040518060400160405280600681526020017f52657761726400000000000000000000000000000000000000000000000000008152506140af565b60046002016000905550565b6000600c6000600b54815260200190815260200160002090506003816001018190555060008090505b8160020154811015614b1857600b5460036000846003018481548110614a2357fe5b9060005260206000200160009054906101000a900473ffffffffffffffffffffffffffffffffffffffff1673ffffffffffffffffffffffffffffffffffffffff1673ffffffffffffffffffffffffffffffffffffffff1681526020019081526020016000206003018190555060076000836003018381548110614aa257fe5b9060005260206000200160009054906101000a900473ffffffffffffffffffffffffffffffffffffffff1673ffffffffffffffffffffffffffffffffffffffff1673ffffffffffffffffffffffffffffffffffffffff168152602001908152602001600020600090558080600101915050614a01565b50600a60006101000a81549060ff02191690556008600090556009600090556001600b6000828254019250508190555050565b6000600c6000600b548152602001908152602001600020905060008090505b8160020154811015614db957816002015460046002015481614b8857fe5b0460036000846003018481548110614b9c57fe5b9060005260206000200160009054906101000a900473ffffffffffffffffffffffffffffffffffffffff1673ffffffffffffffffffffffffffffffffffffffff1673ffffffffffffffffffffffffffffffffffffffff16815260200190815260200160002060020160008282540192505081905550614dac6040518060400160405280600681526020017f62616e6b6572000000000000000000000000000000000000000000000000000081525060036000856003018581548110614c5d57fe5b9060005260206000200160009054906101000a900473ffffffffffffffffffffffffffffffffffffffff1673ffffffffffffffffffffffffffffffffffffffff1673ffffffffffffffffffffffffffffffffffffffff1681526020019081526020016000206001018054600181600116156101000203166002900480601f016020809104026020016040519081016040528092919081815260200182805460018160011615610100020316600290048015614d595780601f10614d2e57610100808354040283529160200191614d59565b820191906000526020600020905b815481529060010190602001808311614d3c57829003601f168201915b5050505050846002015460046002015481614d7057fe5b046040518060400160405280600681526020017f526566756e6400000000000000000000000000000000000000000000000000008152506140af565b8080600101915050614b6a565b5060046002016000905550565b6040518060c001604052806000815260200160008152602001600081526020016060815260200160008152602001600073ffffffffffffffffffffffffffffffffffffffff1681525090565b828054600181600116156101000203166002900490600052602060002090601f016020900481019282601f10614e5357805160ff1916838001178555614e81565b82800160010185558215614e81579182015b82811115614e80578251825591602001919060010190614e65565b5b509050614e8e9190614f0d565b5090565b6040518060a00160405280600073ffffffffffffffffffffffffffffffffffffffff168152602001606081526020016000815260200160008152602001606081525090565b6040518060c001604052806000815260200160008152602001606081526020016060815260200160008152602001606081525090565b614f2f91905b80821115614f2b576000816000905550600101614f13565b5090565b9056fe596f7572206164647265737320686173206e6f742072656769737465726564207965742120506c6561736520636865636b20616761696e2e54686973207472616e73616374696f6e20646f6573206e6f742062656c6f6e677320746f20796f75214e6f7420616c6c20706c61796572732068617665207375626d69747465642074686520686173682076616c756521596f7520646f206e6f7420686176652073756666696369656e742062616c616e63652e596f75206861766520616c7265616479207375626d697474656420796f757220726573756c742e5468652074617267657420616464726573732068617665206e6f742072656769737465726564207965742120506c6561736520636865636b20616761696e2e5468657265206973206e6f2067616d652077616974696e6720666f7220706c617965722c20706c6561736520696e69746961746520612067616d6521596f7520617265206e6f7420656e726f6c6c656420696e20746869732067616d6521546865726520697320612067616d652077616974696e6720666f7220706c617965722c20796f752063616e6e6f742073746172742061206e65772067616d65206e6f7721596f752063616e206f6e6c7920736565207472616e73616374696f6e2064657461696c732077697468696e20312064617921596f752061726520616c726561647920656e726f6c6c656420696e20746869732067616d65214174206c65617374203220706c61796572732073686f756c6420656e726f6c20696e206f6e652067616d6521596f752068617665206e6f74207375626d697420686173682076616c7565207965742e596f7520617265206e6f742062616e6b65722c20796f752063616e6e6f742063616c6c20746869732066756e6374696f6e2154686520616464726573732f6163636f756e74204944206861766520616c7265616479207265676973746572656421a265627a7a723158205e0283edc6fda48b907952d7236b00401f06629a8e7d85db673fa594681bfd2b64736f6c63430005100032",
  "source": "pragma solidity >=0.4.21 <0.7.0;\n\nimport \"./Bankers.sol\";\n\ncontract CoinFlip is Bankers {\n    /**\n     * Players need to submit the hash values of their clear text before revealing\n     * As these value are not stored permanently, they will be deleted after each round\n     * @notice the value are deleted in houseCleaning() function\n     */\n    mapping (address => bytes32) internal submittedHashValue;\n    /// If the submitHashCount and submitClearTextCount reach 2, the next step will be processed automatically\n    uint internal submitHashCount = 0;\n    uint internal submitClearTextCount = 0;\n    /// The front-end will read this value to determine when the user can reveal the clear text\n    bool internal bothSubmitHash = false;\n\n    /**\n     * Struct for Game\n     * @param gameID the self-increasing ID of the game, the gameID will increase by 1 in each round\n     * @param status the status of the game. 0: not started, 1: waiting for participant, 2: in process, 3: finished\n     * @param player the players participating in the game\n     * @param betValue provided by the first player initializing the game\n     * @param winner the winner of this round\n     * @param submittedClearText the submitted clear text value for each user\n     */\n    struct Game {\n        uint ID;\n        uint status;\n        uint maxPlayer;\n        address[] player;\n        uint betValue;\n        address winner;\n        mapping (address => uint) submittedClearText;\n    }\n\n    /// Self-increasing gameID counter\n    uint internal gameID = 1;\n    /// gameID => Game struct mapping\n    mapping (uint => Game) internal gameHistory;\n\n    /**\n     * @return Status of the on-going game\n     */\n    function currentGameStatus() external view returns (uint) {\n        return gameHistory[gameID].status;\n    }\n\n    event test(uint);\n\n    /**\n     * Initialize a game\n     * a game struct will be initialize and the betValue will be move from player's balance to banker's\n     * @param betValue Only the player who initialize the game can set the betValue,\n     *                 the participant can only accept it or wait until the game ends\n     * @param _maxPlayer The maximum number of players for this game\n     * @notice once the game is initialized, the currentWaiting will be true,\n     *         and the front-end will not allow user to start a new game, they can only join the current one or wait\n     */\n    function initializeGame(uint betValue, uint _maxPlayer) external {\n        Game storage game = gameHistory[gameID];\n        User storage user = userList[msg.sender];\n\n        require(_maxPlayer >= 2, \"At least 2 players should enrol in one game!\");\n        require(game.status == 0, \"There is a game waiting for player, you cannot start a new game now!\");\n        require(user.balance >= betValue, \"You do not have sufficient balance.\");\n\n        // Initialize the game\n        game.ID = gameID;\n        game.maxPlayer = _maxPlayer;\n        game.player.push(msg.sender);\n        game.betValue = betValue;\n        // Deduct the balance from the user's balance, move to banker's temperory balance (gameDeposit)\n        user.balance -= betValue;\n        banker.gameDeposit += betValue;\n        // Append transaction record\n        addTransaction(user.accountID, \"banker\", betValue, \"Bet\");\n\n        // Set the game status to 1\n        game.status = 1;\n    }\n\n    /**\n     * If there is an on-going game, the user can join it.\n     * Once the new player join the game, the betValue will be deducted and transfer to the banker.\n     */\n    function joinGame() external {\n        // Initialize temporary instance for easier manipulation and less gas cost.\n        Game storage game = gameHistory[gameID];\n        User storage user = userList[msg.sender];\n\n        require(game.status == 1, \"There is no game waiting for player, please initiate a game!\");\n        require(user.balance >= game.betValue, \"You do not have sufficient balance.\");\n        bool enrolled = false;\n        // The maximum number of i is the current player numbers\n        for (uint i = 0; i < game.player.length; i++) {\n            if (game.player[i] == msg.sender) {\n                enrolled = true;\n            }\n        }\n        require(!enrolled, \"You are already enrolled in this game!\");\n\n        // Set the counterparty as the people join the game.\n        game.player.push(msg.sender);\n\n        // Deduct the balance from the user's balance, move to banker's temperory balance (gameDeposit)\n        user.balance -= game.betValue;\n        banker.gameDeposit += game.betValue;\n        // Append transaction record\n        addTransaction(user.accountID, \"banker\", game.betValue, \"Bet\");\n\n        if (game.player.length == game.maxPlayer) {\n            // Once the player list is full, change game status to 2.\n            game.status = 2;\n        }\n    }\n\n    /**\n     * Only the enrolled players can use the command in the game.\n     */\n    modifier enrolledPlayer {\n        Game memory game = gameHistory[gameID];\n        bool enrolled = false;\n        for (uint i = 0; i < game.maxPlayer; i++) {\n            if (game.player[i] == msg.sender) {\n                enrolled = true;\n            }\n        }\n        require(enrolled, \"You are not enrolled in this game!\");\n        _;\n    }\n\n    /**\n     * @return current participants in this round\n     */\n    function currentInGamePlayer() external view returns (address[] memory) {\n        return gameHistory[gameID].player;\n    }\n\n    /**\n     * @return bet value for current round\n     */\n    function currentGameBetValue() external view returns (uint) {\n        return gameHistory[gameID].betValue;\n    }\n\n    /**\n     * Players submit their hash values through this function.\n     * @param hashValue each player submit the hash value generated from their clear text.\n     * @dev once both players submit their hash values, the bothSubmitHash will be true,\n     *      and the player can reveal their clear text.\n     */\n    function submitHash(bytes32 hashValue) external enrolledPlayer {\n        // Require the game has started.\n        require(gameHistory[gameID].status == 2, \"The game status is wrong!\");\n        // Once the player submit the value, he/she cannot modify it.\n        require(submittedHashValue[msg.sender] == \"\", \"You have already submitted your result.\");\n\n        submittedHashValue[msg.sender] = hashValue;\n        submitHashCount += 1;\n\n        if (submitHashCount == gameHistory[gameID].maxPlayer) {\n            bothSubmitHash = true;\n        }\n    }\n\n    /**\n     * Make sure the submitted hash value and clear text match.\n     * @dev Hash value is the user's\n     */\n    function validate() private view returns (uint) {\n        // Initialize temporary instance for easier manipulation and less gas cost.\n        Game storage game = gameHistory[gameID];\n\n        uint cheaterCount = 0;\n        for (uint i = 0; i < game.maxPlayer; i++) {\n            if (submittedHashValue[game.player[i]] != keccak256(abi.encodePacked(game.player[i], game.submittedClearText[game.player[i]]))) {\n                cheaterCount += 1;\n            }\n        }\n\n        return cheaterCount;\n    }\n\n    /**\n     * If one or more players are detected cheating, this round will be invalid.\n     * The money will be given back to the players.\n     */\n    function detectCheating() private {\n        // Initialize temporary instance for easier manipulation and less gas cost\n        Game storage game = gameHistory[gameID];\n\n        // Give the money back to participants\n        for (uint i = 0; i < game.maxPlayer; i++) {\n            userList[game.player[i]].balance += banker.gameDeposit / game.maxPlayer;\n            // Append transaction records\n            addTransaction(\"banker\", userList[game.player[i]].accountID, banker.gameDeposit / game.maxPlayer, \"Refund\");\n        }\n\n        delete banker.gameDeposit;\n    }\n\n    /**\n     * If there is not cheaters found, the banker will find the winner.\n     * After find the winner or detect cheating, the houseCleaning() will start.\n     * @notice the player who initialize the game will always choose the mod == 0.\n     */\n    function findWinner() private returns (address) {\n        // Initialize temporary instance for easier manipulation and less gas cost\n        Game storage game = gameHistory[gameID];\n\n        if (validate() == 0) {\n            uint sumValue = 0;\n            for (uint i = 0; i < game.maxPlayer; i++) {\n                sumValue += game.submittedClearText[game.player[i]];\n            }\n            // Choose the winner\n            uint remainder = sumValue % game.maxPlayer;\n            game.winner = game.player[remainder];\n            // Transfer balance to the winner\n            balanceTransfer();\n            houseCleaning();\n            return game.winner;\n        } else {\n            detectCheating();\n            houseCleaning();\n            return address(0);\n        }\n    }\n\n    /**\n     * Transfer 95% of the temporary gameDeposit to the winner, 5% to the banker.\n     * @dev To cut down the fee, transfer the balance within the contract, rather than directly to winner's address.\n     */\n    function balanceTransfer() private {\n        // Initialize temporary instance for easier manipulation and less gas cost\n        Game storage game = gameHistory[gameID];\n\n        // Banker take 5% as the commission, and the winner take the rest\n        banker.balance += banker.gameDeposit / 100 * 5;\n        userList[game.winner].balance += banker.gameDeposit / 100 * 95;\n        // Append transaction records\n        addTransaction(\"banker\", \"banker\", banker.gameDeposit / 100 * 5, \"Commission\");\n        addTransaction(\"banker\", userList[game.winner].accountID, banker.gameDeposit / 100 * 95, \"Reward\");\n        // Clear the gameDeposit for the banker\n        delete banker.gameDeposit;\n    }\n\n    /**\n     * Function for players to submit their clear text values.\n     * Once 2 players submitted the clear text values, teh findWinner process will start.\n     * @param randomNumber the automatically generated randomNumber for the player.\n     */\n    function submitClearText(uint randomNumber) external enrolledPlayer {\n        // Initialize temporary instance for easier manipulation and less gas cost\n        Game storage game = gameHistory[gameID];\n\n        // Submit hash value before submiting clear text.\n        require(submittedHashValue[msg.sender] != \"\", \"You have not submit hash value yet.\");\n        // Clear text can only be submitted until all players submit the hash value.\n        require(submitHashCount == game.maxPlayer, \"Not all players have submitted the hash value!\");\n        // Prevent modification.\n        require(game.submittedClearText[msg.sender] == 0, \"You have already submitted your result.\");\n\n        // Record the clear text into the game history\n        game.submittedClearText[msg.sender] = randomNumber;\n        submitClearTextCount += 1;\n\n        // If all players submitted their clear text, find the winner automatically.\n        if (submitClearTextCount == game.maxPlayer) {\n            findWinner();\n        }\n    }\n\n    /**\n     * @dev prepare for the JavaScript to check whether all players have submitted the hash value.\n     */\n    function bothSubmitHashCheck() external view enrolledPlayer returns (bool){\n        return bothSubmitHash;\n    }\n\n    /**\n     * @return game_id Game IDof last game\n     * @return bet_value Bet value of last game\n     * @return total_player  Number of players in last game\n     * @return your_index Index of the msg.sender in last game\n     * @return winner_index Index of the winner in last game\n     */\n    function lastGameHistory() external view returns (uint game_id, uint bet_value, uint total_player, uint your_index, uint winner_index) {\n        // Initialize temporary instance for easier manipulation and less gas cost\n        Game storage game = gameHistory[userList[msg.sender].lastGameID];\n\n        // Find the index of the user\n        uint userIndex = 0;\n        uint winnerIndex = 0;\n        for (uint i = 0; i < game.maxPlayer; i++) {\n            if (msg.sender == game.player[i]) {\n                userIndex = i + 1;\n            }\n            if (game.winner == game.player[i]) {\n                winnerIndex = i + 1;\n            }\n            if (userIndex != 0 && winnerIndex != 0) {\n                break;\n            }\n        }\n        return (game.ID, game.betValue, game.player.length, userIndex, winnerIndex);\n    }\n\n    /**\n     * House cleaning process to release resources and prepare for the next round.\n     */\n    function houseCleaning() private {\n        // Initialize temporary instance for easier manipulation and less gas cost\n        Game storage game = gameHistory[gameID];\n\n        // Update the game status to 3\n        game.status = 3;\n        for (uint i = 0; i < game.maxPlayer; i++) {\n            // Change the lastGameID of the user to this game (user can only see the history of past game)\n            userList[game.player[i]].lastGameID = gameID;\n            // Clear submitted hash value\n            delete submittedHashValue[game.player[i]];\n        }\n\n        // Delete the value stored in the parameter\n        delete bothSubmitHash;\n        delete submitHashCount;\n        delete submitClearTextCount;\n\n        // gameID increase by 1, prepare for the next game\n        gameID += 1;\n    }\n}\n",
  "sourcePath": "/Users/blanker/Documents/Codings/DApp/CoinFlipping/contracts/CoinFlip.sol",
  "compiler": {
    "name": "solc",
    "version": "0.5.16+commit.9c3226ce.Emscripten.clang"
  },
  "schemaVersion": "3.0.23",
  "updatedAt": "2020-04-27T13:38:24.784Z",
  "networkType": "ethereum",
  "devdoc": {
    "methods": {
      "bankerTransactionCheck(uint256)": {
        "params": {
          "_amount": "the The amount of ETH being transferred",
          "_from": "Where the amount of ETH is transferred from",
          "_to": "Where the amount of ETH is transferred to",
          "targetTransactionID": "The transaction to reveal the details"
        },
        "return": "_id The transaction ID_type The type of the transaction_time The timestamp of the transaction"
      },
      "bothSubmitHashCheck()": {
        "details": "prepare for the JavaScript to check whether all players have submitted the hash value."
      },
      "createAccount(string)": {
        "params": {
          "accountToRegister": "accountID the user would like to register"
        }
      },
      "currentGameBetValue()": {
        "return": "bet value for current round"
      },
      "currentGameStatus()": {
        "return": "Status of the on-going game"
      },
      "currentInGamePlayer()": {
        "return": "current participants in this round"
      },
      "initializeGame(uint256,uint256)": {
        "params": {
          "_maxPlayer": "The maximum number of players for this game",
          "betValue": "Only the player who initialize the game can set the betValue,                the participant can only accept it or wait until the game ends"
        }
      },
      "lastGameHistory()": {
        "return": "game_id Game IDof last gamebet_value Bet value of last gametotal_player  Number of players in last gameyour_index Index of the msg.sender in last gamewinner_index Index of the winner in last game"
      },
      "submitClearText(uint256)": {
        "params": {
          "randomNumber": "the automatically generated randomNumber for the player."
        }
      },
      "submitHash(bytes32)": {
        "details": "once both players submit their hash values, the bothSubmitHash will be true,     and the player can reveal their clear text.",
        "params": {
          "hashValue": "each player submit the hash value generated from their clear text."
        }
      },
      "transferToAddress(address,uint256)": {
        "params": {
          "amount": "The amount of balance to transfer to the target registered user",
          "toAddress": "The address of the target registered user to transfer balance to"
        }
      },
      "transferToID(string,uint256)": {
        "params": {
          "amount": "The amount of balance to transfer to the target registered user",
          "toAccountID": "The accountID of the target registered user to transfer balance to"
        }
      },
      "userTransactionCheck(uint256)": {
        "params": {
          "_amount": "the The amount of ETH being transferred",
          "_from": "Where the amount of ETH is transferred from",
          "_to": "Where the amount of ETH is transferred to",
          "targetTransactionID": "The transaction to reveal the details"
        },
        "return": "_id The transaction ID_type The type of the transaction_time The timestamp of the transaction"
      },
      "withdraw(uint256)": {
        "params": {
          "amount": "The amount of balance to withdraw."
        }
      }
    }
  },
  "userdoc": {
    "methods": {
      "bankerCheckBalance()": {
        "notice": "Check the banker's balance"
      },
      "bankerTransactionCheck(uint256)": {
        "notice": "The banker can read transactions of all users"
      },
      "bankerWithdraw(uint256)": {
        "notice": "Permit the banker to withdraw the balance (commission earnings)"
      },
      "checkBalance()": {
        "notice": "Show the balance."
      },
      "checkIsBanker()": {
        "notice": "Check if the msg.sender is the banker, used in front-end only"
      },
      "checkRegistration()": {
        "notice": "Check if the user have registered or not, if yes, return the accountID"
      },
      "createAccount(string)": {
        "notice": "User registration"
      },
      "deposit()": {
        "notice": "User deposit the money to the contract, and the contract will give him a \"virtual\" balance, similar to deposit fiat money to bank"
      },
      "initializeGame(uint256,uint256)": {
        "notice": "Initialize a game a game struct will be initialize and the betValue will be move from player's balance to banker'sonce the game is initialized, the currentWaiting will be true,        and the front-end will not allow user to start a new game, they can only join the current one or wait"
      },
      "joinGame()": {
        "notice": "If there is an on-going game, the user can join it. Once the new player join the game, the betValue will be deducted and transfer to the banker."
      },
      "latestTransactionID()": {
        "notice": "The banker can know the latest transaction ID"
      },
      "submitClearText(uint256)": {
        "notice": "Function for players to submit their clear text values. Once 2 players submitted the clear text values, teh findWinner process will start."
      },
      "submitHash(bytes32)": {
        "notice": "Players submit their hash values through this function."
      },
      "transferToAddress(address,uint256)": {
        "notice": "User transfer his/her deposit to another registered user with the address"
      },
      "transferToID(string,uint256)": {
        "notice": "User transfer his/her deposit to another registered user with the accountID"
      },
      "userTransactionArrayCheck()": {
        "notice": "The user's transaction history"
      },
      "userTransactionCheck(uint256)": {
        "notice": "Reveal the transactions within 1 day to usersUser can only see the transaction belongs to it"
      },
      "withdraw(uint256)": {
        "notice": "Withdraw the balance from the contract, get the token back to his/her ethureum address"
      }
    }
  }
}