{
  "contractName": "CoinFlip",
  "abi": [
    {
      "constant": true,
      "inputs": [
        {
          "internalType": "uint256",
          "name": "targetTransactionID",
          "type": "uint256"
        }
      ],
      "name": "bankerTransactionCheck",
      "outputs": [
        {
          "internalType": "uint256",
          "name": "_id",
          "type": "uint256"
        },
        {
          "internalType": "string",
          "name": "_type",
          "type": "string"
        },
        {
          "internalType": "uint256",
          "name": "_time",
          "type": "uint256"
        },
        {
          "internalType": "string",
          "name": "_from",
          "type": "string"
        },
        {
          "internalType": "string",
          "name": "_to",
          "type": "string"
        },
        {
          "internalType": "uint256",
          "name": "_amount",
          "type": "uint256"
        }
      ],
      "payable": false,
      "stateMutability": "view",
      "type": "function"
    },
    {
      "constant": false,
      "inputs": [
        {
          "internalType": "uint256",
          "name": "amount",
          "type": "uint256"
        }
      ],
      "name": "bankerWithdraw",
      "outputs": [],
      "payable": true,
      "stateMutability": "payable",
      "type": "function"
    },
    {
      "constant": true,
      "inputs": [],
      "name": "checkBalance",
      "outputs": [
        {
          "internalType": "uint256",
          "name": "balance",
          "type": "uint256"
        }
      ],
      "payable": false,
      "stateMutability": "view",
      "type": "function"
    },
    {
      "constant": true,
      "inputs": [],
      "name": "checkRegistration",
      "outputs": [
        {
          "internalType": "string",
          "name": "",
          "type": "string"
        }
      ],
      "payable": false,
      "stateMutability": "view",
      "type": "function"
    },
    {
      "constant": false,
      "inputs": [
        {
          "internalType": "string",
          "name": "accountToRegister",
          "type": "string"
        }
      ],
      "name": "createAccount",
      "outputs": [],
      "payable": false,
      "stateMutability": "nonpayable",
      "type": "function"
    },
    {
      "constant": false,
      "inputs": [],
      "name": "deposit",
      "outputs": [],
      "payable": true,
      "stateMutability": "payable",
      "type": "function"
    },
    {
      "constant": true,
      "inputs": [],
      "name": "latestTransactionID",
      "outputs": [
        {
          "internalType": "uint256",
          "name": "_latestTransactionID",
          "type": "uint256"
        }
      ],
      "payable": false,
      "stateMutability": "view",
      "type": "function"
    },
    {
      "constant": false,
      "inputs": [
        {
          "internalType": "address",
          "name": "toAddress",
          "type": "address"
        },
        {
          "internalType": "uint256",
          "name": "amount",
          "type": "uint256"
        }
      ],
      "name": "transferToAddress",
      "outputs": [],
      "payable": false,
      "stateMutability": "nonpayable",
      "type": "function"
    },
    {
      "constant": false,
      "inputs": [
        {
          "internalType": "string",
          "name": "toAccountID",
          "type": "string"
        },
        {
          "internalType": "uint256",
          "name": "amount",
          "type": "uint256"
        }
      ],
      "name": "transferToID",
      "outputs": [],
      "payable": false,
      "stateMutability": "nonpayable",
      "type": "function"
    },
    {
      "constant": true,
      "inputs": [],
      "name": "userTransactionArrayCheck",
      "outputs": [
        {
          "internalType": "uint256[]",
          "name": "",
          "type": "uint256[]"
        }
      ],
      "payable": false,
      "stateMutability": "view",
      "type": "function"
    },
    {
      "constant": true,
      "inputs": [
        {
          "internalType": "uint256",
          "name": "targetTransactionID",
          "type": "uint256"
        }
      ],
      "name": "userTransactionCheck",
      "outputs": [
        {
          "internalType": "uint256",
          "name": "_id",
          "type": "uint256"
        },
        {
          "internalType": "string",
          "name": "_type",
          "type": "string"
        },
        {
          "internalType": "uint256",
          "name": "_time",
          "type": "uint256"
        },
        {
          "internalType": "string",
          "name": "_from",
          "type": "string"
        },
        {
          "internalType": "string",
          "name": "_to",
          "type": "string"
        },
        {
          "internalType": "uint256",
          "name": "_amount",
          "type": "uint256"
        }
      ],
      "payable": false,
      "stateMutability": "view",
      "type": "function"
    },
    {
      "constant": false,
      "inputs": [
        {
          "internalType": "uint256",
          "name": "amount",
          "type": "uint256"
        }
      ],
      "name": "withdraw",
      "outputs": [],
      "payable": true,
      "stateMutability": "payable",
      "type": "function"
    },
    {
      "constant": true,
      "inputs": [],
      "name": "currentGameStatus",
      "outputs": [
        {
          "internalType": "uint256",
          "name": "",
          "type": "uint256"
        }
      ],
      "payable": false,
      "stateMutability": "view",
      "type": "function"
    },
    {
      "constant": false,
      "inputs": [
        {
          "internalType": "uint256",
          "name": "betValue",
          "type": "uint256"
        }
      ],
      "name": "initializeGame",
      "outputs": [],
      "payable": false,
      "stateMutability": "nonpayable",
      "type": "function"
    },
    {
      "constant": false,
      "inputs": [],
      "name": "joinGame",
      "outputs": [],
      "payable": false,
      "stateMutability": "nonpayable",
      "type": "function"
    },
    {
      "constant": true,
      "inputs": [],
      "name": "currentInGamePlayer",
      "outputs": [
        {
          "internalType": "address[2]",
          "name": "",
          "type": "address[2]"
        }
      ],
      "payable": false,
      "stateMutability": "view",
      "type": "function"
    },
    {
      "constant": true,
      "inputs": [],
      "name": "currentGameBetValue",
      "outputs": [
        {
          "internalType": "uint256",
          "name": "",
          "type": "uint256"
        }
      ],
      "payable": false,
      "stateMutability": "view",
      "type": "function"
    },
    {
      "constant": false,
      "inputs": [
        {
          "internalType": "bytes32",
          "name": "hashValue",
          "type": "bytes32"
        }
      ],
      "name": "submitHash",
      "outputs": [],
      "payable": false,
      "stateMutability": "nonpayable",
      "type": "function"
    },
    {
      "constant": false,
      "inputs": [
        {
          "internalType": "uint256",
          "name": "randomNumber",
          "type": "uint256"
        }
      ],
      "name": "submitClearText",
      "outputs": [],
      "payable": false,
      "stateMutability": "nonpayable",
      "type": "function"
    },
    {
      "constant": true,
      "inputs": [],
      "name": "bothSubmitHashCheck",
      "outputs": [
        {
          "internalType": "bool",
          "name": "",
          "type": "bool"
        }
      ],
      "payable": false,
      "stateMutability": "view",
      "type": "function"
    },
    {
      "constant": true,
      "inputs": [],
      "name": "lastGameHistory",
      "outputs": [
        {
          "internalType": "uint256",
          "name": "game_id",
          "type": "uint256"
        },
        {
          "internalType": "uint256",
          "name": "bet_value",
          "type": "uint256"
        },
        {
          "internalType": "uint256",
          "name": "total_player",
          "type": "uint256"
        },
        {
          "internalType": "uint256",
          "name": "your_index",
          "type": "uint256"
        },
        {
          "internalType": "uint256",
          "name": "winner_index",
          "type": "uint256"
        }
      ],
      "payable": false,
      "stateMutability": "view",
      "type": "function"
    }
  ],
  "bytecode": "0x60806040526001600055600060085560006009556000600a60006101000a81548160ff0219169083151502179055506001600b5560405180606001604052803373ffffffffffffffffffffffffffffffffffffffff168152602001600081526020016000815250600460008201518160000160006101000a81548173ffffffffffffffffffffffffffffffffffffffff021916908373ffffffffffffffffffffffffffffffffffffffff1602179055506020820151816001015560408201518160020155905050614ff7806100d56000396000f3fe60806040526004361061012a5760003560e01c80637f102c16116100ab578063d4f77b1c1161006f578063d4f77b1c14610725578063de66172b1461073c578063e4338d441461076b578063e570695714610799578063ee5879411461093a578063fd1b2100146109755761012a565b80637f102c1614610623578063975201bd1461064e578063acef603714610695578063c71daccb146106f0578063d0e30db01461071b5761012a565b80634e15cf34116100f25780634e15cf341461035d5780636e50d034146104fe578063725c49c01461052957806372fb8e8e14610564578063795fc60c146105b75761012a565b806308891a321461012f5780630c41bda81461016a57806325f775601461023c578063298daf5b146102675780632e1a7d4d1461032f575b600080fd5b34801561013b57600080fd5b506101686004803603602081101561015257600080fd5b8101908080359060200190929190505050610a05565b005b34801561017657600080fd5b5061023a6004803603604081101561018d57600080fd5b81019080803590602001906401000000008111156101aa57600080fd5b8201836020820111156101bc57600080fd5b803590602001918460018302840111640100000000831117156101de57600080fd5b91908080601f016020809104026020016040519081016040528093929190818152602001838380828437600081840152601f19601f82011690508083019250505050505050919291929080359060200190929190505050610cee565b005b34801561024857600080fd5b506102516110e0565b6040518082815260200191505060405180910390f35b34801561027357600080fd5b5061032d6004803603602081101561028a57600080fd5b81019080803590602001906401000000008111156102a757600080fd5b8201836020820111156102b957600080fd5b803590602001918460018302840111640100000000831117156102db57600080fd5b91908080601f016020809104026020016040519081016040528093929190818152602001838380828437600081840152601f19601f820116905080830192505050505050509192919290505050611193565b005b61035b6004803603602081101561034557600080fd5b8101908080359060200190929190505050611637565b005b34801561036957600080fd5b506103966004803603602081101561038057600080fd5b8101908080359060200190929190505050611953565b60405180878152602001806020018681526020018060200180602001858152602001848103845289818151815260200191508051906020019080838360005b838110156103f05780820151818401526020810190506103d5565b50505050905090810190601f16801561041d5780820380516001836020036101000a031916815260200191505b50848103835287818151815260200191508051906020019080838360005b8381101561045657808201518184015260208101905061043b565b50505050905090810190601f1680156104835780820380516001836020036101000a031916815260200191505b50848103825286818151815260200191508051906020019080838360005b838110156104bc5780820151818401526020810190506104a1565b50505050905090810190601f1680156104e95780820380516001836020036101000a031916815260200191505b50995050505050505050505060405180910390f35b34801561050a57600080fd5b50610513611fbe565b6040518082815260200191505060405180910390f35b34801561053557600080fd5b506105626004803603602081101561054c57600080fd5b8101908080359060200190929190505050611fde565b005b34801561057057600080fd5b50610579612339565b6040518082600260200280838360005b838110156105a4578082015181840152602081019050610589565b5050505090500191505060405180910390f35b3480156105c357600080fd5b506105cc6123d0565b6040518080602001828103825283818151815260200191508051906020019060200280838360005b8381101561060f5780820151818401526020810190506105f4565b505050509050019250505060405180910390f35b34801561062f57600080fd5b50610638612468565b6040518082815260200191505060405180910390f35b34801561065a57600080fd5b50610663612488565b604051808681526020018581526020018481526020018381526020018281526020019550505050505060405180910390f35b3480156106a157600080fd5b506106ee600480360360408110156106b857600080fd5b81019080803573ffffffffffffffffffffffffffffffffffffffff16906020019092919080359060200190929190505050612647565b005b3480156106fc57600080fd5b50610705612a4c565b6040518082815260200191505060405180910390f35b610723612b45565b005b34801561073157600080fd5b5061073a612d97565b005b34801561074857600080fd5b50610751613125565b604051808215151515815260200191505060405180910390f35b6107976004803603602081101561078157600080fd5b8101908080359060200190929190505050613280565b005b3480156107a557600080fd5b506107d2600480360360208110156107bc57600080fd5b8101908080359060200190929190505050613426565b60405180878152602001806020018681526020018060200180602001858152602001848103845289818151815260200191508051906020019080838360005b8381101561082c578082015181840152602081019050610811565b50505050905090810190601f1680156108595780820380516001836020036101000a031916815260200191505b50848103835287818151815260200191508051906020019080838360005b83811015610892578082015181840152602081019050610877565b50505050905090810190601f1680156108bf5780820380516001836020036101000a031916815260200191505b50848103825286818151815260200191508051906020019080838360005b838110156108f85780820151818401526020810190506108dd565b50505050905090810190601f1680156109255780820380516001836020036101000a031916815260200191505b50995050505050505050505060405180910390f35b34801561094657600080fd5b506109736004803603602081101561095d57600080fd5b8101908080359060200190929190505050613743565b005b34801561098157600080fd5b5061098a613a8d565b6040518080602001828103825283818151815260200191508051906020019080838360005b838110156109ca5780820151818401526020810190506109af565b50505050905090810190601f1680156109f75780820380516001836020036101000a031916815260200191505b509250505060405180910390f35b3373ffffffffffffffffffffffffffffffffffffffff16600c6000600b548152602001908152602001600020600201600060028110610a4057fe5b0160009054906101000a900473ffffffffffffffffffffffffffffffffffffffff1673ffffffffffffffffffffffffffffffffffffffff161480610af457503373ffffffffffffffffffffffffffffffffffffffff16600c6000600b548152602001908152602001600020600201600160028110610aba57fe5b0160009054906101000a900473ffffffffffffffffffffffffffffffffffffffff1673ffffffffffffffffffffffffffffffffffffffff16145b610b49576040517f08c379a0000000000000000000000000000000000000000000000000000000008152600401808060200182810382526022815260200180614ea76022913960400191505060405180910390fd5b6002600c6000600b5481526020019081526020016000206001015414610bd7576040517f08c379a00000000000000000000000000000000000000000000000000000000081526004018080602001828103825260198152602001807f5468652067616d65207374617475732069732077726f6e67210000000000000081525060200191505060405180910390fd5b6000600760003373ffffffffffffffffffffffffffffffffffffffff1673ffffffffffffffffffffffffffffffffffffffff1681526020019081526020016000205414610c6f576040517f08c379a0000000000000000000000000000000000000000000000000000000008152600401808060200182810382526027815260200180614e056027913960400191505060405180910390fd5b80600760003373ffffffffffffffffffffffffffffffffffffffff1673ffffffffffffffffffffffffffffffffffffffff16815260200190815260200160002081905550600160086000828254019250508190555060026008541415610ceb576001600a60006101000a81548160ff0219169083151502179055505b50565b6000600360003373ffffffffffffffffffffffffffffffffffffffff1673ffffffffffffffffffffffffffffffffffffffff1681526020019081526020016000206001018054600181600116156101000203166002900490501415610d9e576040517f08c379a0000000000000000000000000000000000000000000000000000000008152600401808060200182810382526038815260200180614d536038913960400191505060405180910390fd5b8080600360003373ffffffffffffffffffffffffffffffffffffffff1673ffffffffffffffffffffffffffffffffffffffff168152602001908152602001600020600201541015610e57576040517f08c379a000000000000000000000000000000000000000000000000000000000815260040180806020018281038252601f8152602001807f596f7520646f206e6f74206861766520656e6f7567682062616c616e6365210081525060200191505060405180910390fd5b6000600360003373ffffffffffffffffffffffffffffffffffffffff1673ffffffffffffffffffffffffffffffffffffffff16815260200190815260200160002090506000600360006002876040518082805190602001908083835b60208310610ed65780518252602082019150602081019050602083039250610eb3565b6001836020036101000a038019825116818451168082178552505050505050905001915050908152602001604051809103902060009054906101000a900473ffffffffffffffffffffffffffffffffffffffff1673ffffffffffffffffffffffffffffffffffffffff1673ffffffffffffffffffffffffffffffffffffffff16815260200190815260200160002090506000816001018054600181600116156101000203166002900490501415610fd8576040517f08c379a000000000000000000000000000000000000000000000000000000000815260040180806020018281038252603f815260200180614e2c603f913960400191505060405180910390fd5b8382600201600082825403925050819055508381600201600082825401925050819055506110d9826001018054600181600116156101000203166002900480601f0160208091040260200160405190810160405280929190818152602001828054600181600116156101000203166002900480156110975780601f1061106c57610100808354040283529160200191611097565b820191906000526020600020905b81548152906001019060200180831161107a57829003601f168201915b505050505086866040518060400160405280600881526020017f5472616e73666572000000000000000000000000000000000000000000000000815250613c3b565b5050505050565b6000600460000160009054906101000a900473ffffffffffffffffffffffffffffffffffffffff1673ffffffffffffffffffffffffffffffffffffffff163373ffffffffffffffffffffffffffffffffffffffff161461118b576040517f08c379a0000000000000000000000000000000000000000000000000000000008152600401808060200182810382526032815260200180614f626032913960400191505060405180910390fd5b600054905090565b80600073ffffffffffffffffffffffffffffffffffffffff16600360003373ffffffffffffffffffffffffffffffffffffffff1673ffffffffffffffffffffffffffffffffffffffff16815260200190815260200160002060000160009054906101000a900473ffffffffffffffffffffffffffffffffffffffff1673ffffffffffffffffffffffffffffffffffffffff1614801561128857506000600360003373ffffffffffffffffffffffffffffffffffffffff1673ffffffffffffffffffffffffffffffffffffffff168152602001908152602001600020600101805460018160011615610100020316600290049050145b80156113ab5750600073ffffffffffffffffffffffffffffffffffffffff16600360006002846040518082805190602001908083835b602083106112e157805182526020820191506020810190506020830392506112be565b6001836020036101000a038019825116818451168082178552505050505050905001915050908152602001604051809103902060009054906101000a900473ffffffffffffffffffffffffffffffffffffffff1673ffffffffffffffffffffffffffffffffffffffff1673ffffffffffffffffffffffffffffffffffffffff16815260200190815260200160002060000160009054906101000a900473ffffffffffffffffffffffffffffffffffffffff1673ffffffffffffffffffffffffffffffffffffffff16145b801561149657506000600360006002846040518082805190602001908083835b602083106113ee57805182526020820191506020810190506020830392506113cb565b6001836020036101000a038019825116818451168082178552505050505050905001915050908152602001604051809103902060009054906101000a900473ffffffffffffffffffffffffffffffffffffffff1673ffffffffffffffffffffffffffffffffffffffff1673ffffffffffffffffffffffffffffffffffffffff168152602001908152602001600020600101805460018160011615610100020316600290049050145b6114eb576040517f08c379a000000000000000000000000000000000000000000000000000000000815260040180806020018281038252602f815260200180614f94602f913960400191505060405180910390fd5b336002836040518082805190602001908083835b6020831061152257805182526020820191506020810190506020830392506114ff565b6001836020036101000a038019825116818451168082178552505050505050905001915050908152602001604051809103902060006101000a81548173ffffffffffffffffffffffffffffffffffffffff021916908373ffffffffffffffffffffffffffffffffffffffff1602179055506000600360003373ffffffffffffffffffffffffffffffffffffffff1673ffffffffffffffffffffffffffffffffffffffff1681526020019081526020016000209050828160010190805190602001906115ee929190614c10565b50338160000160006101000a81548173ffffffffffffffffffffffffffffffffffffffff021916908373ffffffffffffffffffffffffffffffffffffffff160217905550505050565b6000600360003373ffffffffffffffffffffffffffffffffffffffff1673ffffffffffffffffffffffffffffffffffffffff16815260200190815260200160002060010180546001816001161561010002031660029004905014156116e7576040517f08c379a0000000000000000000000000000000000000000000000000000000008152600401808060200182810382526038815260200180614d536038913960400191505060405180910390fd5b8080600360003373ffffffffffffffffffffffffffffffffffffffff1673ffffffffffffffffffffffffffffffffffffffff1681526020019081526020016000206002015410156117a0576040517f08c379a000000000000000000000000000000000000000000000000000000000815260040180806020018281038252601f8152602001807f596f7520646f206e6f74206861766520656e6f7567682062616c616e6365210081525060200191505060405180910390fd5b6000600360003373ffffffffffffffffffffffffffffffffffffffff1673ffffffffffffffffffffffffffffffffffffffff16815260200190815260200160002090508281600201600082825403925050819055503373ffffffffffffffffffffffffffffffffffffffff166108fc849081150290604051600060405180830381858888f1935050505015801561183b573d6000803e3d6000fd5b5061194e816001018054600181600116156101000203166002900480601f0160208091040260200160405190810160405280929190818152602001828054600181600116156101000203166002900480156118d75780601f106118ac576101008083540402835291602001916118d7565b820191906000526020600020905b8154815290600101906020018083116118ba57829003601f168201915b50505050506040518060400160405280600f81526020017f45787465726e616c2057616c6c65740000000000000000000000000000000000815250856040518060400160405280600881526020017f5769746864726177000000000000000000000000000000000000000000000000815250613c3b565b505050565b6000606060006060806000611966614c90565b600360003373ffffffffffffffffffffffffffffffffffffffff1673ffffffffffffffffffffffffffffffffffffffff1681526020019081526020016000206040518060a00160405290816000820160009054906101000a900473ffffffffffffffffffffffffffffffffffffffff1673ffffffffffffffffffffffffffffffffffffffff1673ffffffffffffffffffffffffffffffffffffffff168152602001600182018054600181600116156101000203166002900480601f016020809104026020016040519081016040528092919081815260200182805460018160011615610100020316600290048015611a9f5780601f10611a7457610100808354040283529160200191611a9f565b820191906000526020600020905b815481529060010190602001808311611a8257829003601f168201915b50505050508152602001600282015481526020016003820154815260200160048201805480602002602001604051908101604052809291908181526020018280548015611b0b57602002820191906000526020600020905b815481526020019060010190808311611af7575b5050505050815250509050611b1e614cd5565b600160008a81526020019081526020016000206040518060c00160405290816000820154815260200160018201548152602001600282018054600181600116156101000203166002900480601f016020809104026020016040519081016040528092919081815260200182805460018160011615610100020316600290048015611be95780601f10611bbe57610100808354040283529160200191611be9565b820191906000526020600020905b815481529060010190602001808311611bcc57829003601f168201915b50505050508152602001600382018054600181600116156101000203166002900480601f016020809104026020016040519081016040528092919081815260200182805460018160011615610100020316600290048015611c8b5780601f10611c6057610100808354040283529160200191611c8b565b820191906000526020600020905b815481529060010190602001808311611c6e57829003601f168201915b5050505050815260200160048201548152602001600582018054600181600116156101000203166002900480601f016020809104026020016040519081016040528092919081815260200182805460018160011615610100020316600290048015611d375780601f10611d0c57610100808354040283529160200191611d37565b820191906000526020600020905b815481529060010190602001808311611d1a57829003601f168201915b5050505050815250509050600281604001516040518082805190602001908083835b60208310611d7c5780518252602082019150602081019050602083039250611d59565b6001836020036101000a038019825116818451168082178552505050505050905001915050908152602001604051809103902060009054906101000a900473ffffffffffffffffffffffffffffffffffffffff1673ffffffffffffffffffffffffffffffffffffffff16826000015173ffffffffffffffffffffffffffffffffffffffff161480611ec95750600281606001516040518082805190602001908083835b60208310611e425780518252602082019150602081019050602083039250611e1f565b6001836020036101000a038019825116818451168082178552505050505050905001915050908152602001604051809103902060009054906101000a900473ffffffffffffffffffffffffffffffffffffffff1673ffffffffffffffffffffffffffffffffffffffff16826000015173ffffffffffffffffffffffffffffffffffffffff16145b611f1e576040517f08c379a0000000000000000000000000000000000000000000000000000000008152600401808060200182810382526029815260200180614d8b6029913960400191505060405180910390fd5b62015180816020015142031115611f80576040517f08c379a0000000000000000000000000000000000000000000000000000000008152600401808060200182810382526032815260200180614f0d6032913960400191505060405180910390fd5b80600001518160a001518260200151836040015184606001518560800151849450829250819150975097509750975097509750505091939550919395565b6000600c6000600b54815260200190815260200160002060040154905090565b3373ffffffffffffffffffffffffffffffffffffffff16600c6000600b54815260200190815260200160002060020160006002811061201957fe5b0160009054906101000a900473ffffffffffffffffffffffffffffffffffffffff1673ffffffffffffffffffffffffffffffffffffffff1614806120cd57503373ffffffffffffffffffffffffffffffffffffffff16600c6000600b54815260200190815260200160002060020160016002811061209357fe5b0160009054906101000a900473ffffffffffffffffffffffffffffffffffffffff1673ffffffffffffffffffffffffffffffffffffffff16145b612122576040517f08c379a0000000000000000000000000000000000000000000000000000000008152600401808060200182810382526022815260200180614ea76022913960400191505060405180910390fd5b6000600c6000600b54815260200190815260200160002090506000600760003373ffffffffffffffffffffffffffffffffffffffff1673ffffffffffffffffffffffffffffffffffffffff1681526020019081526020016000205414156121d4576040517f08c379a0000000000000000000000000000000000000000000000000000000008152600401808060200182810382526023815260200180614f3f6023913960400191505060405180910390fd5b60026008541461222f576040517f08c379a000000000000000000000000000000000000000000000000000000000815260040180806020018281038252602e815260200180614db4602e913960400191505060405180910390fd5b60008160060160003373ffffffffffffffffffffffffffffffffffffffff1673ffffffffffffffffffffffffffffffffffffffff16815260200190815260200160002054146122c9576040517f08c379a0000000000000000000000000000000000000000000000000000000008152600401808060200182810382526027815260200180614e056027913960400191505060405180910390fd5b818160060160003373ffffffffffffffffffffffffffffffffffffffff1673ffffffffffffffffffffffffffffffffffffffff1681526020019081526020016000208190555060016009600082825401925050819055506002600954141561233557612333613ec0565b505b5050565b612341614d0b565b600c6000600b5481526020019081526020016000206002016002806020026040519081016040528092919082600280156123c6576020028201915b8160009054906101000a900473ffffffffffffffffffffffffffffffffffffffff1673ffffffffffffffffffffffffffffffffffffffff168152602001906001019080831161237c575b5050505050905090565b6060600360003373ffffffffffffffffffffffffffffffffffffffff1673ffffffffffffffffffffffffffffffffffffffff16815260200190815260200160002060040180548060200260200160405190810160405280929190818152602001828054801561245e57602002820191906000526020600020905b81548152602001906001019080831161244a575b5050505050905090565b6000600c6000600b54815260200190815260200160002060010154905090565b600080600080600080600c6000600360003373ffffffffffffffffffffffffffffffffffffffff1673ffffffffffffffffffffffffffffffffffffffff16815260200190815260200160002060030154815260200190815260200160002090506000809050600080905060008090505b60028110156126245783600201816002811061251057fe5b0160009054906101000a900473ffffffffffffffffffffffffffffffffffffffff1673ffffffffffffffffffffffffffffffffffffffff163373ffffffffffffffffffffffffffffffffffffffff16141561256c576001810192505b83600201816002811061257b57fe5b0160009054906101000a900473ffffffffffffffffffffffffffffffffffffffff1673ffffffffffffffffffffffffffffffffffffffff168460050160009054906101000a900473ffffffffffffffffffffffffffffffffffffffff1673ffffffffffffffffffffffffffffffffffffffff1614156125fb576001810191505b6000831415801561260d575060008214155b1561261757612624565b80806001019150506124f8565b508260000154836004015460028484975097509750975097505050509091929394565b6000600360003373ffffffffffffffffffffffffffffffffffffffff1673ffffffffffffffffffffffffffffffffffffffff16815260200190815260200160002060010180546001816001161561010002031660029004905014156126f7576040517f08c379a0000000000000000000000000000000000000000000000000000000008152600401808060200182810382526038815260200180614d536038913960400191505060405180910390fd5b8080600360003373ffffffffffffffffffffffffffffffffffffffff1673ffffffffffffffffffffffffffffffffffffffff1681526020019081526020016000206002015410156127b0576040517f08c379a000000000000000000000000000000000000000000000000000000000815260040180806020018281038252601f8152602001807f596f7520646f206e6f74206861766520656e6f7567682062616c616e6365210081525060200191505060405180910390fd5b6000600360003373ffffffffffffffffffffffffffffffffffffffff1673ffffffffffffffffffffffffffffffffffffffff16815260200190815260200160002090506000600360008673ffffffffffffffffffffffffffffffffffffffff1673ffffffffffffffffffffffffffffffffffffffff168152602001908152602001600020905060008160010180546001816001161561010002031660029004905014156128a8576040517f08c379a000000000000000000000000000000000000000000000000000000000815260040180806020018281038252603f815260200180614e2c603f913960400191505060405180910390fd5b838260020160008282540392505081905550838160020160008282540192505081905550612a45826001018054600181600116156101000203166002900480601f0160208091040260200160405190810160405280929190818152602001828054600181600116156101000203166002900480156129675780601f1061293c57610100808354040283529160200191612967565b820191906000526020600020905b81548152906001019060200180831161294a57829003601f168201915b5050505050826001018054600181600116156101000203166002900480601f016020809104026020016040519081016040528092919081815260200182805460018160011615610100020316600290048015612a045780601f106129d957610100808354040283529160200191612a04565b820191906000526020600020905b8154815290600101906020018083116129e757829003601f168201915b5050505050866040518060400160405280600881526020017f5472616e73666572000000000000000000000000000000000000000000000000815250613c3b565b5050505050565b600080600360003373ffffffffffffffffffffffffffffffffffffffff1673ffffffffffffffffffffffffffffffffffffffff1681526020019081526020016000206001018054600181600116156101000203166002900490501415612afd576040517f08c379a0000000000000000000000000000000000000000000000000000000008152600401808060200182810382526038815260200180614d536038913960400191505060405180910390fd5b600360003373ffffffffffffffffffffffffffffffffffffffff1673ffffffffffffffffffffffffffffffffffffffff16815260200190815260200160002060020154905090565b6000600360003373ffffffffffffffffffffffffffffffffffffffff1673ffffffffffffffffffffffffffffffffffffffff1681526020019081526020016000206001018054600181600116156101000203166002900490501415612bf5576040517f08c379a0000000000000000000000000000000000000000000000000000000008152600401808060200182810382526038815260200180614d536038913960400191505060405180910390fd5b34600360003373ffffffffffffffffffffffffffffffffffffffff1673ffffffffffffffffffffffffffffffffffffffff16815260200190815260200160002060020160008282540192505081905550612d956040518060400160405280600f81526020017f45787465726e616c2057616c6c65740000000000000000000000000000000000815250600360003373ffffffffffffffffffffffffffffffffffffffff1673ffffffffffffffffffffffffffffffffffffffff1681526020019081526020016000206001018054600181600116156101000203166002900480601f016020809104026020016040519081016040528092919081815260200182805460018160011615610100020316600290048015612d545780601f10612d2957610100808354040283529160200191612d54565b820191906000526020600020905b815481529060010190602001808311612d3757829003601f168201915b5050505050346040518060400160405280600781526020017f4465706f73697400000000000000000000000000000000000000000000000000815250613c3b565b565b6000600c6000600b54815260200190815260200160002090506000600360003373ffffffffffffffffffffffffffffffffffffffff1673ffffffffffffffffffffffffffffffffffffffff16815260200190815260200160002090506001826001015414612e50576040517f08c379a000000000000000000000000000000000000000000000000000000000815260040180806020018281038252603c815260200180614e6b603c913960400191505060405180910390fd5b816004015481600201541015612eb1576040517f08c379a0000000000000000000000000000000000000000000000000000000008152600401808060200182810382526023815260200180614de26023913960400191505060405180910390fd5b3373ffffffffffffffffffffffffffffffffffffffff1682600201600060028110612ed857fe5b0160009054906101000a900473ffffffffffffffffffffffffffffffffffffffff1673ffffffffffffffffffffffffffffffffffffffff161415612f84576040517f08c379a000000000000000000000000000000000000000000000000000000000815260040180806020018281038252601d8152602001807f596f752061726520616c726561647920696e20746869732067616d652100000081525060200191505060405180910390fd5b3382600201600160028110612f9557fe5b0160006101000a81548173ffffffffffffffffffffffffffffffffffffffff021916908373ffffffffffffffffffffffffffffffffffffffff160217905550816004015481600201600082825403925050819055508160040154600460020160008282540192505081905550613117816001018054600181600116156101000203166002900480601f01602080910402602001604051908101604052809291908181526020018280546001816001161561010002031660029004801561309c5780601f106130715761010080835404028352916020019161309c565b820191906000526020600020905b81548152906001019060200180831161307f57829003601f168201915b50505050506040518060400160405280600681526020017f62616e6b6572000000000000000000000000000000000000000000000000000081525084600401546040518060400160405280600381526020017f4265740000000000000000000000000000000000000000000000000000000000815250613c3b565b600282600101819055505050565b60003373ffffffffffffffffffffffffffffffffffffffff16600c6000600b54815260200190815260200160002060020160006002811061316257fe5b0160009054906101000a900473ffffffffffffffffffffffffffffffffffffffff1673ffffffffffffffffffffffffffffffffffffffff16148061321657503373ffffffffffffffffffffffffffffffffffffffff16600c6000600b5481526020019081526020016000206002016001600281106131dc57fe5b0160009054906101000a900473ffffffffffffffffffffffffffffffffffffffff1673ffffffffffffffffffffffffffffffffffffffff16145b61326b576040517f08c379a0000000000000000000000000000000000000000000000000000000008152600401808060200182810382526022815260200180614ea76022913960400191505060405180910390fd5b600a60009054906101000a900460ff16905090565b600460000160009054906101000a900473ffffffffffffffffffffffffffffffffffffffff1673ffffffffffffffffffffffffffffffffffffffff163373ffffffffffffffffffffffffffffffffffffffff1614613329576040517f08c379a0000000000000000000000000000000000000000000000000000000008152600401808060200182810382526032815260200180614f626032913960400191505060405180910390fd5b8060046001015410156133a4576040517f08c379a000000000000000000000000000000000000000000000000000000000815260040180806020018281038252601f8152602001807f596f7520646f206e6f74206861766520656e6f7567682062616c616e63652e0081525060200191505060405180910390fd5b600460000160009054906101000a900473ffffffffffffffffffffffffffffffffffffffff1673ffffffffffffffffffffffffffffffffffffffff166108fc829081150290604051600060405180830381858888f1935050505015801561340f573d6000803e3d6000fd5b508060046001016000828254039250508190555050565b6000606060006060806000600460000160009054906101000a900473ffffffffffffffffffffffffffffffffffffffff1673ffffffffffffffffffffffffffffffffffffffff163373ffffffffffffffffffffffffffffffffffffffff16146134da576040517f08c379a0000000000000000000000000000000000000000000000000000000008152600401808060200182810382526032815260200180614f626032913960400191505060405180910390fd5b6134e2614cd5565b600160008981526020019081526020016000206040518060c00160405290816000820154815260200160018201548152602001600282018054600181600116156101000203166002900480601f0160208091040260200160405190810160405280929190818152602001828054600181600116156101000203166002900480156135ad5780601f10613582576101008083540402835291602001916135ad565b820191906000526020600020905b81548152906001019060200180831161359057829003601f168201915b50505050508152602001600382018054600181600116156101000203166002900480601f01602080910402602001604051908101604052809291908181526020018280546001816001161561010002031660029004801561364f5780601f106136245761010080835404028352916020019161364f565b820191906000526020600020905b81548152906001019060200180831161363257829003601f168201915b5050505050815260200160048201548152602001600582018054600181600116156101000203166002900480601f0160208091040260200160405190810160405280929190818152602001828054600181600116156101000203166002900480156136fb5780601f106136d0576101008083540402835291602001916136fb565b820191906000526020600020905b8154815290600101906020018083116136de57829003601f168201915b505050505081525050905080600001518160a0015182602001518360400151846060015185608001518494508292508191509650965096509650965096505091939550919395565b6000600c6000600b54815260200190815260200160002060010154146137b4576040517f08c379a0000000000000000000000000000000000000000000000000000000008152600401808060200182810382526044815260200180614ec96044913960600191505060405180910390fd5b80600360003373ffffffffffffffffffffffffffffffffffffffff1673ffffffffffffffffffffffffffffffffffffffff16815260200190815260200160002060020154101561384f576040517f08c379a0000000000000000000000000000000000000000000000000000000008152600401808060200182810382526023815260200180614de26023913960400191505060405180910390fd5b6000600c6000600b5481526020019081526020016000209050600b548160000181905550338160020160006002811061388457fe5b0160006101000a81548173ffffffffffffffffffffffffffffffffffffffff021916908373ffffffffffffffffffffffffffffffffffffffff16021790555081816004018190555081600360003373ffffffffffffffffffffffffffffffffffffffff1673ffffffffffffffffffffffffffffffffffffffff1681526020019081526020016000206002016000828254039250508190555081600460020160008282540192505081905550613a7f600360003373ffffffffffffffffffffffffffffffffffffffff1673ffffffffffffffffffffffffffffffffffffffff1681526020019081526020016000206001018054600181600116156101000203166002900480601f016020809104026020016040519081016040528092919081815260200182805460018160011615610100020316600290048015613a085780601f106139dd57610100808354040283529160200191613a08565b820191906000526020600020905b8154815290600101906020018083116139eb57829003601f168201915b50505050506040518060400160405280600681526020017f62616e6b65720000000000000000000000000000000000000000000000000000815250846040518060400160405280600381526020017f4265740000000000000000000000000000000000000000000000000000000000815250613c3b565b600181600101819055505050565b60606000600360003373ffffffffffffffffffffffffffffffffffffffff1673ffffffffffffffffffffffffffffffffffffffff168152602001908152602001600020905060008160010180546001816001161561010002031660029004905014613b9757806001018054600181600116156101000203166002900480601f016020809104026020016040519081016040528092919081815260200182805460018160011615610100020316600290048015613b8a5780601f10613b5f57610100808354040283529160200191613b8a565b820191906000526020600020905b815481529060010190602001808311613b6d57829003601f168201915b5050505050915050613c38565b806001018054600181600116156101000203166002900480601f016020809104026020016040519081016040528092919081815260200182805460018160011615610100020316600290048015613c2f5780601f10613c0457610100808354040283529160200191613c2f565b820191906000526020600020905b815481529060010190602001808311613c1257829003601f168201915b50505050509150505b90565b600060016000805481526020019081526020016000209050600054816000018190555042816001018190555084816002019080519060200190613c7f929190614c10565b5083816003019080519060200190613c98929190614c10565b5082816004018190555081816005019080519060200190613cba929190614c10565b50600360006002876040518082805190602001908083835b60208310613cf55780518252602082019150602081019050602083039250613cd2565b6001836020036101000a038019825116818451168082178552505050505050905001915050908152602001604051809103902060009054906101000a900473ffffffffffffffffffffffffffffffffffffffff1673ffffffffffffffffffffffffffffffffffffffff1673ffffffffffffffffffffffffffffffffffffffff1681526020019081526020016000206004016000549080600181540180825580915050906001820390600052602060002001600090919290919091505550600360006002866040518082805190602001908083835b60208310613dec5780518252602082019150602081019050602083039250613dc9565b6001836020036101000a038019825116818451168082178552505050505050905001915050908152602001604051809103902060009054906101000a900473ffffffffffffffffffffffffffffffffffffffff1673ffffffffffffffffffffffffffffffffffffffff1673ffffffffffffffffffffffffffffffffffffffff1681526020019081526020016000206004016000549080600181540180825580915050906001820390600052602060002001600090919290919091505550600160008082825401925050819055505050505050565b600080600c6000600b54815260200190815260200160002090506000613ee46140a8565b141561408f576000600280613ef557fe5b82600601600084600201600160028110613f0b57fe5b0160009054906101000a900473ffffffffffffffffffffffffffffffffffffffff1673ffffffffffffffffffffffffffffffffffffffff1673ffffffffffffffffffffffffffffffffffffffff1681526020019081526020016000205483600601600085600201600060028110613f7e57fe5b0160009054906101000a900473ffffffffffffffffffffffffffffffffffffffff1673ffffffffffffffffffffffffffffffffffffffff1673ffffffffffffffffffffffffffffffffffffffff16815260200190815260200160002054089050816002018160028110613fed57fe5b0160009054906101000a900473ffffffffffffffffffffffffffffffffffffffff168260050160006101000a81548173ffffffffffffffffffffffffffffffffffffffff021916908373ffffffffffffffffffffffffffffffffffffffff160217905550614059614267565b61406161457a565b8160050160009054906101000a900473ffffffffffffffffffffffffffffffffffffffff16925050506140a5565b6140976147ab565b61409f61457a565b60009150505b90565b600080600c6000600b5481526020019081526020016000209050600080905060008090505b600281101561425e578260020181600281106140e557fe5b0160009054906101000a900473ffffffffffffffffffffffffffffffffffffffff1683600601600085600201846002811061411c57fe5b0160009054906101000a900473ffffffffffffffffffffffffffffffffffffffff1673ffffffffffffffffffffffffffffffffffffffff1673ffffffffffffffffffffffffffffffffffffffff16815260200190815260200160002054604051602001808373ffffffffffffffffffffffffffffffffffffffff1673ffffffffffffffffffffffffffffffffffffffff1660601b81526014018281526020019250505060405160208183030381529060405280519060200120600760008560020184600281106141e857fe5b0160009054906101000a900473ffffffffffffffffffffffffffffffffffffffff1673ffffffffffffffffffffffffffffffffffffffff1673ffffffffffffffffffffffffffffffffffffffff1681526020019081526020016000205414614251576001820191505b80806001019150506140cd565b50809250505090565b6000600c6000600b5481526020019081526020016000209050600560646004600201548161429157fe5b0402600460010160008282540192505081905550605f6064600460020154816142b657fe5b0402600360008360050160009054906101000a900473ffffffffffffffffffffffffffffffffffffffff1673ffffffffffffffffffffffffffffffffffffffff1673ffffffffffffffffffffffffffffffffffffffff168152602001908152602001600020600201600082825401925050819055506143e86040518060400160405280600681526020017f62616e6b657200000000000000000000000000000000000000000000000000008152506040518060400160405280600681526020017f62616e6b6572000000000000000000000000000000000000000000000000000081525060056064600460020154816143ab57fe5b04026040518060400160405280600a81526020017f436f6d6d697373696f6e00000000000000000000000000000000000000000000815250613c3b565b61456e6040518060400160405280600681526020017f62616e6b65720000000000000000000000000000000000000000000000000000815250600360008460050160009054906101000a900473ffffffffffffffffffffffffffffffffffffffff1673ffffffffffffffffffffffffffffffffffffffff1673ffffffffffffffffffffffffffffffffffffffff1681526020019081526020016000206001018054600181600116156101000203166002900480601f01602080910402602001604051908101604052809291908181526020018280546001816001161561010002031660029004801561451b5780601f106144f05761010080835404028352916020019161451b565b820191906000526020600020905b8154815290600101906020018083116144fe57829003601f168201915b5050505050605f60646004600201548161453157fe5b04026040518060400160405280600681526020017f5265776172640000000000000000000000000000000000000000000000000000815250613c3b565b60046002016000905550565b6000600c6000600b548152602001908152602001600020905060038160010181905550600b5460036000836002016000600281106145b457fe5b0160009054906101000a900473ffffffffffffffffffffffffffffffffffffffff1673ffffffffffffffffffffffffffffffffffffffff1673ffffffffffffffffffffffffffffffffffffffff16815260200190815260200160002060030181905550600b54600360008360020160016002811061462e57fe5b0160009054906101000a900473ffffffffffffffffffffffffffffffffffffffff1673ffffffffffffffffffffffffffffffffffffffff1673ffffffffffffffffffffffffffffffffffffffff16815260200190815260200160002060030181905550600a60006101000a81549060ff021916905560086000905560096000905560076000826002016000600281106146c357fe5b0160009054906101000a900473ffffffffffffffffffffffffffffffffffffffff1673ffffffffffffffffffffffffffffffffffffffff1673ffffffffffffffffffffffffffffffffffffffff16815260200190815260200160002060009055600760008260020160016002811061473757fe5b0160009054906101000a900473ffffffffffffffffffffffffffffffffffffffff1673ffffffffffffffffffffffffffffffffffffffff1673ffffffffffffffffffffffffffffffffffffffff168152602001908152602001600020600090556001600b6000828254019250508190555050565b6000600c6000600b54815260200190815260200160002090506002600460020154816147d357fe5b0460036000836002016000600281106147e857fe5b0160009054906101000a900473ffffffffffffffffffffffffffffffffffffffff1673ffffffffffffffffffffffffffffffffffffffff1673ffffffffffffffffffffffffffffffffffffffff1681526020019081526020016000206002016000828254019250508190555060026004600201548161486357fe5b04600360008360020160016002811061487857fe5b0160009054906101000a900473ffffffffffffffffffffffffffffffffffffffff1673ffffffffffffffffffffffffffffffffffffffff1673ffffffffffffffffffffffffffffffffffffffff16815260200190815260200160002060020160008282540192505081905550614a746040518060400160405280600681526020017f62616e6b65720000000000000000000000000000000000000000000000000000815250600360008460020160006002811061493157fe5b0160009054906101000a900473ffffffffffffffffffffffffffffffffffffffff1673ffffffffffffffffffffffffffffffffffffffff1673ffffffffffffffffffffffffffffffffffffffff1681526020019081526020016000206001018054600181600116156101000203166002900480601f016020809104026020016040519081016040528092919081815260200182805460018160011615610100020316600290048015614a245780601f106149f957610100808354040283529160200191614a24565b820191906000526020600020905b815481529060010190602001808311614a0757829003601f168201915b5050505050600260046002015481614a3857fe5b046040518060400160405280600681526020017f526566756e640000000000000000000000000000000000000000000000000000815250613c3b565b614c046040518060400160405280600681526020017f62616e6b657200000000000000000000000000000000000000000000000000008152506003600084600201600160028110614ac157fe5b0160009054906101000a900473ffffffffffffffffffffffffffffffffffffffff1673ffffffffffffffffffffffffffffffffffffffff1673ffffffffffffffffffffffffffffffffffffffff1681526020019081526020016000206001018054600181600116156101000203166002900480601f016020809104026020016040519081016040528092919081815260200182805460018160011615610100020316600290048015614bb45780601f10614b8957610100808354040283529160200191614bb4565b820191906000526020600020905b815481529060010190602001808311614b9757829003601f168201915b5050505050600260046002015481614bc857fe5b046040518060400160405280600681526020017f526566756e640000000000000000000000000000000000000000000000000000815250613c3b565b60046002016000905550565b828054600181600116156101000203166002900490600052602060002090601f016020900481019282601f10614c5157805160ff1916838001178555614c7f565b82800160010185558215614c7f579182015b82811115614c7e578251825591602001919060010190614c63565b5b509050614c8c9190614d2d565b5090565b6040518060a00160405280600073ffffffffffffffffffffffffffffffffffffffff168152602001606081526020016000815260200160008152602001606081525090565b6040518060c001604052806000815260200160008152602001606081526020016060815260200160008152602001606081525090565b6040518060400160405280600290602082028038833980820191505090505090565b614d4f91905b80821115614d4b576000816000905550600101614d33565b5090565b9056fe596f7572206164647265737320686173206e6f742072656769737465726564207965742120506c6561736520636865636b20616761696e2e54686973207472616e73616374696f6e20646f6573206e6f742062656c6f6e677320746f20796f75214e6f7420616c6c20706c61796572732068617665207375626d69747465642074686520686173682076616c756521596f7520646f206e6f7420686176652073756666696369656e742062616c616e63652e596f75206861766520616c7265616479207375626d697474656420796f757220726573756c742e5468652074617267657420616464726573732068617665206e6f742072656769737465726564207965742120506c6561736520636865636b20616761696e2e5468657265206973206e6f2067616d652077616974696e6720666f7220706c617965722c20706c6561736520696e69746961746520612067616d6521596f7520617265206e6f7420656e726f6c6c656420696e20746869732067616d6521546865726520697320612067616d652077616974696e6720666f7220706c617965722c20796f752063616e6e6f742073746172742061206e65772067616d65206e6f7721596f752063616e206f6e6c7920736565207472616e73616374696f6e2064657461696c732077697468696e20312064617921596f752068617665206e6f74207375626d697420686173682076616c7565207965742e596f7520617265206e6f742062616e6b65722c20796f752063616e6e6f742063616c6c20746869732066756e6374696f6e2154686520616464726573732f6163636f756e74204944206861766520616c7265616479207265676973746572656421a265627a7a72315820f537f8d406aafe0fe3a8aee81f766344d76a4f81a51346b17dc836a1ede45c4964736f6c63430005100032",
  "source": "pragma solidity >=0.4.21 <0.7.0;\n\nimport \"./Bankers.sol\";\n\ncontract CoinFlip is Bankers {\n    /**\n     * Players need to submit the hash values of their clear text before revealing\n     * As these value are not stored permanently, they will be deleted after each round\n     * @notice the value are deleted in houseCleaning() function\n     */\n    mapping (address => bytes32) internal submittedHashValue;\n    /// If the submitHashCount and submitClearTextCount reach 2, the next step will be processed automatically\n    uint internal submitHashCount = 0;\n    uint internal submitClearTextCount = 0;\n    /// The front-end will read this value to determine when the user can reveal the clear text\n    bool internal bothSubmitHash = false;\n\n    /**\n     * Struct for Game\n     * @param gameID the self-increasing ID of the game, the gameID will increase by 1 in each round\n     * @param status the status of the game. 0: not started, 1: waiting for participant, 2: in process, 3: finished\n     * @param player the players participating in the game\n     * @param betValue provided by the first player initializing the game\n     * @param winner the winner of this round\n     * @param submittedClearText the submitted clear text value for each user\n     */\n    struct Game {\n        uint ID;\n        uint status;\n        address[2] player;\n        uint betValue;\n        address winner;\n        mapping (address => uint) submittedClearText;\n    }\n\n    /// Self-increasing gameID counter\n    uint internal gameID = 1;\n    /// gameID => Game struct mapping\n    mapping (uint => Game) internal gameHistory;\n\n    /**\n     * @return Status of the on-going game\n     */\n    function currentGameStatus() external view returns (uint) {\n        return gameHistory[gameID].status;\n    }\n\n    /**\n     * Initialize a game\n     * a game struct will be initialize and the betValue will be move from player's balance to banker's\n     * @param betValue only the player who initialize the game can set the betValue,\n     *                 the participant can only accept it or wait until the game ends\n     * @notice once the game is initialized, the currentWaiting will be true,\n     *         and the front-end will not allow user to start a new game, they can only join the current one or wait\n     */\n    function initializeGame(uint betValue) external {\n        require(gameHistory[gameID].status == 0, \"There is a game waiting for player, you cannot start a new game now!\");\n        require(userList[msg.sender].balance >= betValue, \"You do not have sufficient balance.\");\n\n        // Initialize the game\n        Game storage game = gameHistory[gameID];\n        game.ID = gameID;\n        game.player[0] = msg.sender;\n        game.betValue = betValue;\n        // Deduct the balance from the user's balance, move to banker's temperory balance (gameDeposit)\n        userList[msg.sender].balance -= betValue;\n        banker.gameDeposit += betValue;\n        // Append transaction record\n        addTransaction(userList[msg.sender].accountID, \"banker\", betValue, \"Bet\");\n        // Set the game status to 1\n        game.status = 1;\n    }\n\n    /**\n     * If there is an on-going game, the user can join it.\n     * Once the new player join the game, the betValue will be deducted and transfer to the banker.\n     */\n    function joinGame() external {\n        // Initialize temporary instance for easier manipulation and less gas cost.\n        Game storage game = gameHistory[gameID];\n        User storage user = userList[msg.sender];\n\n        require(game.status == 1, \"There is no game waiting for player, please initiate a game!\");\n        require(user.balance >= game.betValue, \"You do not have sufficient balance.\");\n        // The player initialize the game cannot join it twice.\n        require(game.player[0] != msg.sender, \"You are already in this game!\");\n\n        // Set the counterparty as the people join the game.\n        game.player[1] = msg.sender;\n        // Deduct the balance from the user's balance, move to banker's temperory balance (gameDeposit)\n        user.balance -= game.betValue;\n        banker.gameDeposit += game.betValue;\n        // Append transaction record\n        addTransaction(user.accountID, \"banker\", game.betValue, \"Bet\");\n        // Once the player list is full, change game status to 2.\n        game.status = 2;\n    }\n\n    /**\n     * Only the enrolled players can use the command in the game.\n     */\n    modifier enrolledPlayer {\n        require(\n            gameHistory[gameID].player[0] == msg.sender || gameHistory[gameID].player[1] == msg.sender,\n            \"You are not enrolled in this game!\"\n        );\n        _;\n    }\n\n    /**\n     * @return current participants in this round\n     */\n    function currentInGamePlayer() external view returns (address[2] memory) {\n        return gameHistory[gameID].player;\n    }\n\n    /**\n     * @return bet value for current round\n     */\n    function currentGameBetValue() external view returns (uint) {\n        return gameHistory[gameID].betValue;\n    }\n\n    /**\n     * Players submit their hash values through this function.\n     * @param hashValue each player submit the hash value generated from their clear text.\n     * @dev once both players submit their hash values, the bothSubmitHash will be true,\n     *      and the player can reveal their clear text.\n     */\n    function submitHash(bytes32 hashValue) external enrolledPlayer {\n        // Require the game has started.\n        require(gameHistory[gameID].status == 2, \"The game status is wrong!\");\n        // Once the player submit the value, he/she cannot modify it.\n        require(submittedHashValue[msg.sender] == \"\", \"You have already submitted your result.\");\n\n        submittedHashValue[msg.sender] = hashValue;\n        submitHashCount += 1;\n\n        if (submitHashCount == 2) {\n            bothSubmitHash = true;\n        }\n    }\n\n    /**\n     * Make sure the submitted hash value and clear text match.\n     * @dev Hash value is the user's\n     */\n    function validate() private view returns (uint) {\n        // Initialize temporary instance for easier manipulation and less gas cost.\n        Game storage game = gameHistory[gameID];\n\n        uint cheaterCount = 0;\n        for (uint i = 0; i < 2; i++) {\n            if (submittedHashValue[game.player[i]] != keccak256(abi.encodePacked(game.player[i], game.submittedClearText[game.player[i]]))) {\n                cheaterCount += 1;\n            }\n        }\n\n        return cheaterCount;\n    }\n\n    /**\n     * If one or more players are detected cheating, this round will be invalid.\n     * The money will be given back to the players.\n     */\n    function detectCheating() private {\n        // Initialize temporary instance for easier manipulation and less gas cost\n        Game storage game = gameHistory[gameID];\n\n        // Give the money back to two participants\n        userList[game.player[0]].balance += banker.gameDeposit / 2;\n        userList[game.player[1]].balance += banker.gameDeposit / 2;\n        // Append transaction records\n        addTransaction(\"banker\", userList[game.player[0]].accountID, banker.gameDeposit / 2, \"Refund\");\n        addTransaction(\"banker\", userList[game.player[1]].accountID, banker.gameDeposit / 2, \"Refund\");\n\n        delete banker.gameDeposit;\n    }\n\n    /**\n     * If there is not cheaters found, the banker will find the winner.\n     * After find the winner or detect cheating, the houseCleaning() will start.\n     * @notice the player who initialize the game will always choose the mod == 0.\n     */\n    function findWinner() private returns (address) {\n        // Initialize temporary instance for easier manipulation and less gas cost\n        Game storage game = gameHistory[gameID];\n\n        if (validate() == 0) {\n            uint mod = addmod(game.submittedClearText[game.player[0]], game.submittedClearText[game.player[1]], 2);\n            // Choose the winner\n            game.winner = game.player[mod];\n            // Transfer balance to the winner\n            balanceTransfer();\n            houseCleaning();\n            return game.winner;\n        } else {\n            detectCheating();\n            houseCleaning();\n            return address(0);\n        }\n    }\n\n    /**\n     * Transfer 95% of the temporary gameDeposit to the winner, 5% to the banker.\n     * @dev To cut down the fee, transfer the balance within the contract, rather than directly to winner's address.\n     */\n    function balanceTransfer() private {\n        // Initialize temporary instance for easier manipulation and less gas cost\n        Game storage game = gameHistory[gameID];\n\n        // Banker take 5% as the commission, and the winner take the rest\n        banker.balance += banker.gameDeposit / 100 * 5;\n        userList[game.winner].balance += banker.gameDeposit / 100 * 95;\n        // Append transaction records\n        addTransaction(\"banker\", \"banker\", banker.gameDeposit / 100 * 5, \"Commission\");\n        addTransaction(\"banker\", userList[game.winner].accountID, banker.gameDeposit / 100 * 95, \"Reward\");\n        // Clear the gameDeposit for the banker\n        delete banker.gameDeposit;\n    }\n\n    /**\n     * Function for players to submit their clear text values.\n     * Once 2 players submitted the clear text values, teh findWinner process will start.\n     * @param randomNumber the automatically generated randomNumber for the player.\n     */\n    function submitClearText(uint randomNumber) external enrolledPlayer {\n        // Initialize temporary instance for easier manipulation and less gas cost\n        Game storage game = gameHistory[gameID];\n\n        // Submit hash value before submiting clear text.\n        require(submittedHashValue[msg.sender] != \"\", \"You have not submit hash value yet.\");\n        // Clear text can only be submitted until all players submit the hash value.\n        require(submitHashCount == 2, \"Not all players have submitted the hash value!\");\n        // Prevent modification.\n        require(game.submittedClearText[msg.sender] == 0, \"You have already submitted your result.\");\n\n        // Record the clear text into the game history\n        game.submittedClearText[msg.sender] = randomNumber;\n        submitClearTextCount += 1;\n\n        // If all players submitted their clear text, find the winner automatically.\n        if (submitClearTextCount == 2) {\n            findWinner();\n        }\n    }\n\n    /**\n     * @dev prepare for the JavaScript to check whether all players have submitted the hash value.\n     */\n    function bothSubmitHashCheck() external view enrolledPlayer returns (bool){\n        return bothSubmitHash;\n    }\n\n    /**\n     * @return game_id Game IDof last game\n     * @return bet_value Bet value of last game\n     * @return total_player  Number of players in last game\n     * @return your_index Index of the msg.sender in last game\n     * @return winner_index Index of the winner in last game\n     */\n    function lastGameHistory() external view returns (uint game_id, uint bet_value, uint total_player, uint your_index, uint winner_index) {\n        // Initialize temporary instance for easier manipulation and less gas cost\n        Game storage game = gameHistory[userList[msg.sender].lastGameID];\n\n        // Find the index of the user\n        uint userIndex = 0;\n        uint winnerIndex = 0;\n        for (uint i = 0; i < 2; i++) {\n            if (msg.sender == game.player[i]) {\n                userIndex = i + 1;\n            }\n            if (game.winner == game.player[i]) {\n                winnerIndex = i + 1;\n            }\n            if (userIndex != 0 && winnerIndex != 0) {\n                break;\n            }\n        }\n        return (game.ID, game.betValue, game.player.length, userIndex, winnerIndex);\n    }\n\n    /**\n     * House cleaning process to release resources and prepare for the next round.\n     */\n    function houseCleaning() private {\n        // Initialize temporary instance for easier manipulation and less gas cost\n        Game storage game = gameHistory[gameID];\n\n        // Update the game status to 3\n        game.status = 3;\n        // Change the lastGameID of the user to this game (user can only see the history of past game)\n        userList[game.player[0]].lastGameID = gameID;\n        userList[game.player[1]].lastGameID = gameID;\n\n        // Delete the value stored in the parameter\n        delete bothSubmitHash;\n        delete submitHashCount;\n        delete submitClearTextCount;\n\n        // Clear submitted hash value\n        delete submittedHashValue[game.player[0]];\n        delete submittedHashValue[game.player[1]];\n\n        // gameID increase by 1, prepare for the next game\n        gameID += 1;\n    }\n}\n",
  "sourcePath": "/Users/blanker/Documents/Codings/DApp/CoinFlipping/contracts/CoinFlip.sol",
  "compiler": {
    "name": "solc",
    "version": "0.5.16+commit.9c3226ce.Emscripten.clang"
  },
  "schemaVersion": "3.0.23",
  "updatedAt": "2020-04-27T08:19:27.728Z",
  "networkType": "ethereum",
  "devdoc": {
    "methods": {
      "bankerTransactionCheck(uint256)": {
        "params": {
          "_amount": "the The amount of ETH being transferred",
          "_from": "Where the amount of ETH is transferred from",
          "_to": "Where the amount of ETH is transferred to",
          "targetTransactionID": "The transaction to reveal the details"
        },
        "return": "_id The transaction ID_type The type of the transaction_time The timestamp of the transaction"
      },
      "bothSubmitHashCheck()": {
        "details": "prepare for the JavaScript to check whether all players have submitted the hash value."
      },
      "createAccount(string)": {
        "params": {
          "accountToRegister": "accountID the user would like to register"
        }
      },
      "currentGameBetValue()": {
        "return": "bet value for current round"
      },
      "currentGameStatus()": {
        "return": "Status of the on-going game"
      },
      "currentInGamePlayer()": {
        "return": "current participants in this round"
      },
      "initializeGame(uint256)": {
        "params": {
          "betValue": "only the player who initialize the game can set the betValue,                the participant can only accept it or wait until the game ends"
        }
      },
      "lastGameHistory()": {
        "return": "game_id Game IDof last gamebet_value Bet value of last gametotal_player  Number of players in last gameyour_index Index of the msg.sender in last gamewinner_index Index of the winner in last game"
      },
      "submitClearText(uint256)": {
        "params": {
          "randomNumber": "the automatically generated randomNumber for the player."
        }
      },
      "submitHash(bytes32)": {
        "details": "once both players submit their hash values, the bothSubmitHash will be true,     and the player can reveal their clear text.",
        "params": {
          "hashValue": "each player submit the hash value generated from their clear text."
        }
      },
      "transferToAddress(address,uint256)": {
        "params": {
          "amount": "The amount of balance to transfer to the target registered user",
          "toAddress": "The address of the target registered user to transfer balance to"
        }
      },
      "transferToID(string,uint256)": {
        "params": {
          "amount": "The amount of balance to transfer to the target registered user",
          "toAccountID": "The accountID of the target registered user to transfer balance to"
        }
      },
      "userTransactionCheck(uint256)": {
        "params": {
          "_amount": "the The amount of ETH being transferred",
          "_from": "Where the amount of ETH is transferred from",
          "_to": "Where the amount of ETH is transferred to",
          "targetTransactionID": "The transaction to reveal the details"
        },
        "return": "_id The transaction ID_type The type of the transaction_time The timestamp of the transaction"
      },
      "withdraw(uint256)": {
        "params": {
          "amount": "The amount of balance to withdraw."
        }
      }
    }
  },
  "userdoc": {
    "methods": {
      "bankerTransactionCheck(uint256)": {
        "notice": "The banker can read transactions of all users"
      },
      "bankerWithdraw(uint256)": {
        "notice": "Permit the banker to withdraw the balance (commission earnings)"
      },
      "checkBalance()": {
        "notice": "Show the balance."
      },
      "checkRegistration()": {
        "notice": "Check if the user have registered or not, if yes, return the accountID"
      },
      "createAccount(string)": {
        "notice": "User registration"
      },
      "deposit()": {
        "notice": "User deposit the money to the contract, and the contract will give him a \"virtual\" balance, similar to deposit fiat money to bank"
      },
      "initializeGame(uint256)": {
        "notice": "Initialize a game a game struct will be initialize and the betValue will be move from player's balance to banker'sonce the game is initialized, the currentWaiting will be true,        and the front-end will not allow user to start a new game, they can only join the current one or wait"
      },
      "joinGame()": {
        "notice": "If there is an on-going game, the user can join it. Once the new player join the game, the betValue will be deducted and transfer to the banker."
      },
      "latestTransactionID()": {
        "notice": "The banker can know the latest transaction ID"
      },
      "submitClearText(uint256)": {
        "notice": "Function for players to submit their clear text values. Once 2 players submitted the clear text values, teh findWinner process will start."
      },
      "submitHash(bytes32)": {
        "notice": "Players submit their hash values through this function."
      },
      "transferToAddress(address,uint256)": {
        "notice": "User transfer his/her deposit to another registered user with the address"
      },
      "transferToID(string,uint256)": {
        "notice": "User transfer his/her deposit to another registered user with the accountID"
      },
      "userTransactionArrayCheck()": {
        "notice": "The user's transaction history"
      },
      "userTransactionCheck(uint256)": {
        "notice": "Reveal the transactions within 1 day to usersUser can only see the transaction belongs to it"
      },
      "withdraw(uint256)": {
        "notice": "Withdraw the balance from the contract, get the token back to his/her ethureum address"
      }
    }
  }
}