{
  "contractName": "CoinFlip",
  "abi": [
    {
      "constant": false,
      "inputs": [
        {
          "internalType": "uint256",
          "name": "amount",
          "type": "uint256"
        }
      ],
      "name": "bankerWithdraw",
      "outputs": [],
      "payable": true,
      "stateMutability": "payable",
      "type": "function"
    },
    {
      "constant": true,
      "inputs": [],
      "name": "checkBalance",
      "outputs": [
        {
          "internalType": "uint256",
          "name": "balance",
          "type": "uint256"
        }
      ],
      "payable": false,
      "stateMutability": "view",
      "type": "function"
    },
    {
      "constant": true,
      "inputs": [],
      "name": "checkRegistration",
      "outputs": [
        {
          "internalType": "string",
          "name": "",
          "type": "string"
        }
      ],
      "payable": false,
      "stateMutability": "view",
      "type": "function"
    },
    {
      "constant": false,
      "inputs": [
        {
          "internalType": "string",
          "name": "accountToRegister",
          "type": "string"
        }
      ],
      "name": "createAccount",
      "outputs": [],
      "payable": false,
      "stateMutability": "nonpayable",
      "type": "function"
    },
    {
      "constant": false,
      "inputs": [],
      "name": "deposit",
      "outputs": [],
      "payable": true,
      "stateMutability": "payable",
      "type": "function"
    },
    {
      "constant": true,
      "inputs": [
        {
          "internalType": "uint256",
          "name": "targetTransactionID",
          "type": "uint256"
        }
      ],
      "name": "transactionCheck",
      "outputs": [
        {
          "internalType": "uint256",
          "name": "_id",
          "type": "uint256"
        },
        {
          "internalType": "string",
          "name": "_type",
          "type": "string"
        },
        {
          "internalType": "uint256",
          "name": "_time",
          "type": "uint256"
        },
        {
          "internalType": "string",
          "name": "_from",
          "type": "string"
        },
        {
          "internalType": "string",
          "name": "_to",
          "type": "string"
        },
        {
          "internalType": "uint256",
          "name": "_amount",
          "type": "uint256"
        }
      ],
      "payable": false,
      "stateMutability": "view",
      "type": "function"
    },
    {
      "constant": false,
      "inputs": [
        {
          "internalType": "address",
          "name": "toAddress",
          "type": "address"
        },
        {
          "internalType": "uint256",
          "name": "amount",
          "type": "uint256"
        }
      ],
      "name": "transferToAddress",
      "outputs": [],
      "payable": false,
      "stateMutability": "nonpayable",
      "type": "function"
    },
    {
      "constant": false,
      "inputs": [
        {
          "internalType": "string",
          "name": "toAccountID",
          "type": "string"
        },
        {
          "internalType": "uint256",
          "name": "amount",
          "type": "uint256"
        }
      ],
      "name": "transferToID",
      "outputs": [],
      "payable": false,
      "stateMutability": "nonpayable",
      "type": "function"
    },
    {
      "constant": true,
      "inputs": [],
      "name": "userTransactionArrayCheck",
      "outputs": [
        {
          "internalType": "uint256[]",
          "name": "",
          "type": "uint256[]"
        }
      ],
      "payable": false,
      "stateMutability": "view",
      "type": "function"
    },
    {
      "constant": false,
      "inputs": [
        {
          "internalType": "uint256",
          "name": "amount",
          "type": "uint256"
        }
      ],
      "name": "withdraw",
      "outputs": [],
      "payable": true,
      "stateMutability": "payable",
      "type": "function"
    },
    {
      "constant": true,
      "inputs": [],
      "name": "currentGameStatus",
      "outputs": [
        {
          "internalType": "uint256",
          "name": "",
          "type": "uint256"
        }
      ],
      "payable": false,
      "stateMutability": "view",
      "type": "function"
    },
    {
      "constant": false,
      "inputs": [
        {
          "internalType": "uint256",
          "name": "betValue",
          "type": "uint256"
        }
      ],
      "name": "initializeGame",
      "outputs": [],
      "payable": false,
      "stateMutability": "nonpayable",
      "type": "function"
    },
    {
      "constant": false,
      "inputs": [],
      "name": "joinGame",
      "outputs": [],
      "payable": false,
      "stateMutability": "nonpayable",
      "type": "function"
    },
    {
      "constant": true,
      "inputs": [],
      "name": "currentInGamePlayer",
      "outputs": [
        {
          "internalType": "address[2]",
          "name": "",
          "type": "address[2]"
        }
      ],
      "payable": false,
      "stateMutability": "view",
      "type": "function"
    },
    {
      "constant": true,
      "inputs": [],
      "name": "currentGameBetValue",
      "outputs": [
        {
          "internalType": "uint256",
          "name": "",
          "type": "uint256"
        }
      ],
      "payable": false,
      "stateMutability": "view",
      "type": "function"
    },
    {
      "constant": false,
      "inputs": [
        {
          "internalType": "bytes32",
          "name": "hashValue",
          "type": "bytes32"
        }
      ],
      "name": "submitHash",
      "outputs": [],
      "payable": false,
      "stateMutability": "nonpayable",
      "type": "function"
    },
    {
      "constant": false,
      "inputs": [
        {
          "internalType": "uint256",
          "name": "randomNumber",
          "type": "uint256"
        }
      ],
      "name": "submitClearText",
      "outputs": [],
      "payable": false,
      "stateMutability": "nonpayable",
      "type": "function"
    },
    {
      "constant": true,
      "inputs": [],
      "name": "bothSubmitHashCheck",
      "outputs": [
        {
          "internalType": "bool",
          "name": "",
          "type": "bool"
        }
      ],
      "payable": false,
      "stateMutability": "view",
      "type": "function"
    },
    {
      "constant": true,
      "inputs": [],
      "name": "lastGameHistory",
      "outputs": [
        {
          "internalType": "uint256",
          "name": "game_id",
          "type": "uint256"
        },
        {
          "internalType": "uint256",
          "name": "bet_value",
          "type": "uint256"
        },
        {
          "internalType": "uint256",
          "name": "total_player",
          "type": "uint256"
        },
        {
          "internalType": "uint256",
          "name": "your_index",
          "type": "uint256"
        }
      ],
      "payable": false,
      "stateMutability": "view",
      "type": "function"
    }
  ],
  "bytecode": "0x60806040526001600055600060085560006009556000600a60006101000a81548160ff0219169083151502179055506001600b5560405180606001604052803373ffffffffffffffffffffffffffffffffffffffff168152602001600081526020016000815250600460008201518160000160006101000a81548173ffffffffffffffffffffffffffffffffffffffff021916908373ffffffffffffffffffffffffffffffffffffffff1602179055506020820151816001015560408201518160020155905050614497806100d56000396000f3fe6080604052600436106101145760003560e01c80637f102c16116100a0578063d4f77b1c11610064578063d4f77b1c146106dd578063de66172b146106f4578063e4338d4414610723578063ee58794114610751578063fd1b21001461078c57610114565b80637f102c16146105e2578063975201bd1461060d578063acef60371461064d578063c71daccb146106a8578063d0e30db0146106d357610114565b80634b6f3a86116100e75780634b6f3a861461031c5780636e50d034146104bd578063725c49c0146104e857806372fb8e8e14610523578063795fc60c1461057657610114565b806308891a32146101195780630c41bda814610154578063298daf5b146102265780632e1a7d4d146102ee575b600080fd5b34801561012557600080fd5b506101526004803603602081101561013c57600080fd5b810190808035906020019092919050505061081c565b005b34801561016057600080fd5b506102246004803603604081101561017757600080fd5b810190808035906020019064010000000081111561019457600080fd5b8201836020820111156101a657600080fd5b803590602001918460018302840111640100000000831117156101c857600080fd5b91908080601f016020809104026020016040519081016040528093929190818152602001838380828437600081840152601f19601f82011690508083019250505050505050919291929080359060200190929190505050610b05565b005b34801561023257600080fd5b506102ec6004803603602081101561024957600080fd5b810190808035906020019064010000000081111561026657600080fd5b82018360208201111561027857600080fd5b8035906020019184600183028401116401000000008311171561029a57600080fd5b91908080601f016020809104026020016040519081016040528093929190818152602001838380828437600081840152601f19601f820116905080830192505050505050509192919290505050610ef7565b005b61031a6004803603602081101561030457600080fd5b810190808035906020019092919050505061139b565b005b34801561032857600080fd5b506103556004803603602081101561033f57600080fd5b81019080803590602001909291905050506116b7565b60405180878152602001806020018681526020018060200180602001858152602001848103845289818151815260200191508051906020019080838360005b838110156103af578082015181840152602081019050610394565b50505050905090810190601f1680156103dc5780820380516001836020036101000a031916815260200191505b50848103835287818151815260200191508051906020019080838360005b838110156104155780820151818401526020810190506103fa565b50505050905090810190601f1680156104425780820380516001836020036101000a031916815260200191505b50848103825286818151815260200191508051906020019080838360005b8381101561047b578082015181840152602081019050610460565b50505050905090810190601f1680156104a85780820380516001836020036101000a031916815260200191505b50995050505050505050505060405180910390f35b3480156104c957600080fd5b506104d261192b565b6040518082815260200191505060405180910390f35b3480156104f457600080fd5b506105216004803603602081101561050b57600080fd5b810190808035906020019092919050505061194b565b005b34801561052f57600080fd5b50610538611ca6565b6040518082600260200280838360005b83811015610563578082015181840152602081019050610548565b5050505090500191505060405180910390f35b34801561058257600080fd5b5061058b611d3d565b6040518080602001828103825283818151815260200191508051906020019060200280838360005b838110156105ce5780820151818401526020810190506105b3565b505050509050019250505060405180910390f35b3480156105ee57600080fd5b506105f7611dd5565b6040518082815260200191505060405180910390f35b34801561061957600080fd5b50610622611df5565b6040518085815260200184815260200183815260200182815260200194505050505060405180910390f35b34801561065957600080fd5b506106a66004803603604081101561067057600080fd5b81019080803573ffffffffffffffffffffffffffffffffffffffff16906020019092919080359060200190929190505050611eff565b005b3480156106b457600080fd5b506106bd612304565b6040518082815260200191505060405180910390f35b6106db6123fd565b005b3480156106e957600080fd5b506106f261264f565b005b34801561070057600080fd5b506107096129dd565b604051808215151515815260200191505060405180910390f35b61074f6004803603602081101561073957600080fd5b8101908080359060200190929190505050612b38565b005b34801561075d57600080fd5b5061078a6004803603602081101561077457600080fd5b8101908080359060200190929190505050612cde565b005b34801561079857600080fd5b506107a1613028565b6040518080602001828103825283818151815260200191508051906020019080838360005b838110156107e15780820151818401526020810190506107c6565b50505050905090810190601f16801561080e5780820380516001836020036101000a031916815260200191505b509250505060405180910390f35b3373ffffffffffffffffffffffffffffffffffffffff16600c6000600b54815260200190815260200160002060020160006002811061085757fe5b0160009054906101000a900473ffffffffffffffffffffffffffffffffffffffff1673ffffffffffffffffffffffffffffffffffffffff16148061090b57503373ffffffffffffffffffffffffffffffffffffffff16600c6000600b5481526020019081526020016000206002016001600281106108d157fe5b0160009054906101000a900473ffffffffffffffffffffffffffffffffffffffff1673ffffffffffffffffffffffffffffffffffffffff16145b610960576040517f08c379a000000000000000000000000000000000000000000000000000000000815260040180806020018281038252602281526020018061436d6022913960400191505060405180910390fd5b6002600c6000600b54815260200190815260200160002060010154146109ee576040517f08c379a00000000000000000000000000000000000000000000000000000000081526004018080602001828103825260198152602001807f5468652067616d65207374617475732069732077726f6e67210000000000000081525060200191505060405180910390fd5b6000600760003373ffffffffffffffffffffffffffffffffffffffff1673ffffffffffffffffffffffffffffffffffffffff1681526020019081526020016000205414610a86576040517f08c379a00000000000000000000000000000000000000000000000000000000081526004018080602001828103825260278152602001806142cb6027913960400191505060405180910390fd5b80600760003373ffffffffffffffffffffffffffffffffffffffff1673ffffffffffffffffffffffffffffffffffffffff16815260200190815260200160002081905550600160086000828254019250508190555060026008541415610b02576001600a60006101000a81548160ff0219169083151502179055505b50565b6000600360003373ffffffffffffffffffffffffffffffffffffffff1673ffffffffffffffffffffffffffffffffffffffff1681526020019081526020016000206001018054600181600116156101000203166002900490501415610bb5576040517f08c379a00000000000000000000000000000000000000000000000000000000081526004018080602001828103825260388152602001806142426038913960400191505060405180910390fd5b8080600360003373ffffffffffffffffffffffffffffffffffffffff1673ffffffffffffffffffffffffffffffffffffffff168152602001908152602001600020600201541015610c6e576040517f08c379a000000000000000000000000000000000000000000000000000000000815260040180806020018281038252601f8152602001807f596f7520646f206e6f74206861766520656e6f7567682062616c616e6365210081525060200191505060405180910390fd5b6000600360003373ffffffffffffffffffffffffffffffffffffffff1673ffffffffffffffffffffffffffffffffffffffff16815260200190815260200160002090506000600360006002876040518082805190602001908083835b60208310610ced5780518252602082019150602081019050602083039250610cca565b6001836020036101000a038019825116818451168082178552505050505050905001915050908152602001604051809103902060009054906101000a900473ffffffffffffffffffffffffffffffffffffffff1673ffffffffffffffffffffffffffffffffffffffff1673ffffffffffffffffffffffffffffffffffffffff16815260200190815260200160002090506000816001018054600181600116156101000203166002900490501415610def576040517f08c379a000000000000000000000000000000000000000000000000000000000815260040180806020018281038252603f8152602001806142f2603f913960400191505060405180910390fd5b838260020160008282540392505081905550838160020160008282540192505081905550610ef0826001018054600181600116156101000203166002900480601f016020809104026020016040519081016040528092919081815260200182805460018160011615610100020316600290048015610eae5780601f10610e8357610100808354040283529160200191610eae565b820191906000526020600020905b815481529060010190602001808311610e9157829003601f168201915b505050505086866040518060400160405280600881526020017f5472616e736665720000000000000000000000000000000000000000000000008152506131d6565b5050505050565b80600073ffffffffffffffffffffffffffffffffffffffff16600360003373ffffffffffffffffffffffffffffffffffffffff1673ffffffffffffffffffffffffffffffffffffffff16815260200190815260200160002060000160009054906101000a900473ffffffffffffffffffffffffffffffffffffffff1673ffffffffffffffffffffffffffffffffffffffff16148015610fec57506000600360003373ffffffffffffffffffffffffffffffffffffffff1673ffffffffffffffffffffffffffffffffffffffff168152602001908152602001600020600101805460018160011615610100020316600290049050145b801561110f5750600073ffffffffffffffffffffffffffffffffffffffff16600360006002846040518082805190602001908083835b602083106110455780518252602082019150602081019050602083039250611022565b6001836020036101000a038019825116818451168082178552505050505050905001915050908152602001604051809103902060009054906101000a900473ffffffffffffffffffffffffffffffffffffffff1673ffffffffffffffffffffffffffffffffffffffff1673ffffffffffffffffffffffffffffffffffffffff16815260200190815260200160002060000160009054906101000a900473ffffffffffffffffffffffffffffffffffffffff1673ffffffffffffffffffffffffffffffffffffffff16145b80156111fa57506000600360006002846040518082805190602001908083835b60208310611152578051825260208201915060208101905060208303925061112f565b6001836020036101000a038019825116818451168082178552505050505050905001915050908152602001604051809103902060009054906101000a900473ffffffffffffffffffffffffffffffffffffffff1673ffffffffffffffffffffffffffffffffffffffff1673ffffffffffffffffffffffffffffffffffffffff168152602001908152602001600020600101805460018160011615610100020316600290049050145b61124f576040517f08c379a000000000000000000000000000000000000000000000000000000000815260040180806020018281038252602f815260200180614434602f913960400191505060405180910390fd5b336002836040518082805190602001908083835b602083106112865780518252602082019150602081019050602083039250611263565b6001836020036101000a038019825116818451168082178552505050505050905001915050908152602001604051809103902060006101000a81548173ffffffffffffffffffffffffffffffffffffffff021916908373ffffffffffffffffffffffffffffffffffffffff1602179055506000600360003373ffffffffffffffffffffffffffffffffffffffff1673ffffffffffffffffffffffffffffffffffffffff168152602001908152602001600020905082816001019080519060200190611352929190614144565b50338160000160006101000a81548173ffffffffffffffffffffffffffffffffffffffff021916908373ffffffffffffffffffffffffffffffffffffffff160217905550505050565b6000600360003373ffffffffffffffffffffffffffffffffffffffff1673ffffffffffffffffffffffffffffffffffffffff168152602001908152602001600020600101805460018160011615610100020316600290049050141561144b576040517f08c379a00000000000000000000000000000000000000000000000000000000081526004018080602001828103825260388152602001806142426038913960400191505060405180910390fd5b8080600360003373ffffffffffffffffffffffffffffffffffffffff1673ffffffffffffffffffffffffffffffffffffffff168152602001908152602001600020600201541015611504576040517f08c379a000000000000000000000000000000000000000000000000000000000815260040180806020018281038252601f8152602001807f596f7520646f206e6f74206861766520656e6f7567682062616c616e6365210081525060200191505060405180910390fd5b6000600360003373ffffffffffffffffffffffffffffffffffffffff1673ffffffffffffffffffffffffffffffffffffffff16815260200190815260200160002090508281600201600082825403925050819055503373ffffffffffffffffffffffffffffffffffffffff166108fc849081150290604051600060405180830381858888f1935050505015801561159f573d6000803e3d6000fd5b506116b2816001018054600181600116156101000203166002900480601f01602080910402602001604051908101604052809291908181526020018280546001816001161561010002031660029004801561163b5780601f106116105761010080835404028352916020019161163b565b820191906000526020600020905b81548152906001019060200180831161161e57829003601f168201915b50505050506040518060400160405280600f81526020017f45787465726e616c2057616c6c65740000000000000000000000000000000000815250856040518060400160405280600881526020017f57697468647261770000000000000000000000000000000000000000000000008152506131d6565b505050565b60006060600060608060006116ca6141c4565b600160008981526020019081526020016000206040518060c00160405290816000820154815260200160018201548152602001600282018054600181600116156101000203166002900480601f0160208091040260200160405190810160405280929190818152602001828054600181600116156101000203166002900480156117955780601f1061176a57610100808354040283529160200191611795565b820191906000526020600020905b81548152906001019060200180831161177857829003601f168201915b50505050508152602001600382018054600181600116156101000203166002900480601f0160208091040260200160405190810160405280929190818152602001828054600181600116156101000203166002900480156118375780601f1061180c57610100808354040283529160200191611837565b820191906000526020600020905b81548152906001019060200180831161181a57829003601f168201915b5050505050815260200160048201548152602001600582018054600181600116156101000203166002900480601f0160208091040260200160405190810160405280929190818152602001828054600181600116156101000203166002900480156118e35780601f106118b8576101008083540402835291602001916118e3565b820191906000526020600020905b8154815290600101906020018083116118c657829003601f168201915b505050505081525050905080600001518160a0015182602001518360400151846060015185608001518494508292508191509650965096509650965096505091939550919395565b6000600c6000600b54815260200190815260200160002060040154905090565b3373ffffffffffffffffffffffffffffffffffffffff16600c6000600b54815260200190815260200160002060020160006002811061198657fe5b0160009054906101000a900473ffffffffffffffffffffffffffffffffffffffff1673ffffffffffffffffffffffffffffffffffffffff161480611a3a57503373ffffffffffffffffffffffffffffffffffffffff16600c6000600b548152602001908152602001600020600201600160028110611a0057fe5b0160009054906101000a900473ffffffffffffffffffffffffffffffffffffffff1673ffffffffffffffffffffffffffffffffffffffff16145b611a8f576040517f08c379a000000000000000000000000000000000000000000000000000000000815260040180806020018281038252602281526020018061436d6022913960400191505060405180910390fd5b6000600c6000600b54815260200190815260200160002090506000600760003373ffffffffffffffffffffffffffffffffffffffff1673ffffffffffffffffffffffffffffffffffffffff168152602001908152602001600020541415611b41576040517f08c379a00000000000000000000000000000000000000000000000000000000081526004018080602001828103825260238152602001806143d36023913960400191505060405180910390fd5b600260085414611b9c576040517f08c379a000000000000000000000000000000000000000000000000000000000815260040180806020018281038252602e81526020018061427a602e913960400191505060405180910390fd5b60008160060160003373ffffffffffffffffffffffffffffffffffffffff1673ffffffffffffffffffffffffffffffffffffffff1681526020019081526020016000205414611c36576040517f08c379a00000000000000000000000000000000000000000000000000000000081526004018080602001828103825260278152602001806142cb6027913960400191505060405180910390fd5b818160060160003373ffffffffffffffffffffffffffffffffffffffff1673ffffffffffffffffffffffffffffffffffffffff16815260200190815260200160002081905550600160096000828254019250508190555060026009541415611ca257611ca061345b565b505b5050565b611cae6141fa565b600c6000600b548152602001908152602001600020600201600280602002604051908101604052809291908260028015611d33576020028201915b8160009054906101000a900473ffffffffffffffffffffffffffffffffffffffff1673ffffffffffffffffffffffffffffffffffffffff1681526020019060010190808311611ce9575b5050505050905090565b6060600360003373ffffffffffffffffffffffffffffffffffffffff1673ffffffffffffffffffffffffffffffffffffffff168152602001908152602001600020600401805480602002602001604051908101604052809291908181526020018280548015611dcb57602002820191906000526020600020905b815481526020019060010190808311611db7575b5050505050905090565b6000600c6000600b54815260200190815260200160002060010154905090565b6000806000806000600c6000600360003373ffffffffffffffffffffffffffffffffffffffff1673ffffffffffffffffffffffffffffffffffffffff1681526020019081526020016000206003015481526020019081526020016000209050600080905060008090505b6002811015611ee157826002018160028110611e7757fe5b0160009054906101000a900473ffffffffffffffffffffffffffffffffffffffff1673ffffffffffffffffffffffffffffffffffffffff163373ffffffffffffffffffffffffffffffffffffffff161415611ed457809150611ee1565b8080600101915050611e5f565b50816000015482600401546002839550955095509550505090919293565b6000600360003373ffffffffffffffffffffffffffffffffffffffff1673ffffffffffffffffffffffffffffffffffffffff1681526020019081526020016000206001018054600181600116156101000203166002900490501415611faf576040517f08c379a00000000000000000000000000000000000000000000000000000000081526004018080602001828103825260388152602001806142426038913960400191505060405180910390fd5b8080600360003373ffffffffffffffffffffffffffffffffffffffff1673ffffffffffffffffffffffffffffffffffffffff168152602001908152602001600020600201541015612068576040517f08c379a000000000000000000000000000000000000000000000000000000000815260040180806020018281038252601f8152602001807f596f7520646f206e6f74206861766520656e6f7567682062616c616e6365210081525060200191505060405180910390fd5b6000600360003373ffffffffffffffffffffffffffffffffffffffff1673ffffffffffffffffffffffffffffffffffffffff16815260200190815260200160002090506000600360008673ffffffffffffffffffffffffffffffffffffffff1673ffffffffffffffffffffffffffffffffffffffff16815260200190815260200160002090506000816001018054600181600116156101000203166002900490501415612160576040517f08c379a000000000000000000000000000000000000000000000000000000000815260040180806020018281038252603f8152602001806142f2603f913960400191505060405180910390fd5b8382600201600082825403925050819055508381600201600082825401925050819055506122fd826001018054600181600116156101000203166002900480601f01602080910402602001604051908101604052809291908181526020018280546001816001161561010002031660029004801561221f5780601f106121f45761010080835404028352916020019161221f565b820191906000526020600020905b81548152906001019060200180831161220257829003601f168201915b5050505050826001018054600181600116156101000203166002900480601f0160208091040260200160405190810160405280929190818152602001828054600181600116156101000203166002900480156122bc5780601f10612291576101008083540402835291602001916122bc565b820191906000526020600020905b81548152906001019060200180831161229f57829003601f168201915b5050505050866040518060400160405280600881526020017f5472616e736665720000000000000000000000000000000000000000000000008152506131d6565b5050505050565b600080600360003373ffffffffffffffffffffffffffffffffffffffff1673ffffffffffffffffffffffffffffffffffffffff16815260200190815260200160002060010180546001816001161561010002031660029004905014156123b5576040517f08c379a00000000000000000000000000000000000000000000000000000000081526004018080602001828103825260388152602001806142426038913960400191505060405180910390fd5b600360003373ffffffffffffffffffffffffffffffffffffffff1673ffffffffffffffffffffffffffffffffffffffff16815260200190815260200160002060020154905090565b6000600360003373ffffffffffffffffffffffffffffffffffffffff1673ffffffffffffffffffffffffffffffffffffffff16815260200190815260200160002060010180546001816001161561010002031660029004905014156124ad576040517f08c379a00000000000000000000000000000000000000000000000000000000081526004018080602001828103825260388152602001806142426038913960400191505060405180910390fd5b34600360003373ffffffffffffffffffffffffffffffffffffffff1673ffffffffffffffffffffffffffffffffffffffff1681526020019081526020016000206002016000828254019250508190555061264d6040518060400160405280600f81526020017f45787465726e616c2057616c6c65740000000000000000000000000000000000815250600360003373ffffffffffffffffffffffffffffffffffffffff1673ffffffffffffffffffffffffffffffffffffffff1681526020019081526020016000206001018054600181600116156101000203166002900480601f01602080910402602001604051908101604052809291908181526020018280546001816001161561010002031660029004801561260c5780601f106125e15761010080835404028352916020019161260c565b820191906000526020600020905b8154815290600101906020018083116125ef57829003601f168201915b5050505050346040518060400160405280600781526020017f4465706f736974000000000000000000000000000000000000000000000000008152506131d6565b565b6000600c6000600b54815260200190815260200160002090506000600360003373ffffffffffffffffffffffffffffffffffffffff1673ffffffffffffffffffffffffffffffffffffffff16815260200190815260200160002090506001826001015414612708576040517f08c379a000000000000000000000000000000000000000000000000000000000815260040180806020018281038252603c815260200180614331603c913960400191505060405180910390fd5b816004015481600201541015612769576040517f08c379a00000000000000000000000000000000000000000000000000000000081526004018080602001828103825260238152602001806142a86023913960400191505060405180910390fd5b3373ffffffffffffffffffffffffffffffffffffffff168260020160006002811061279057fe5b0160009054906101000a900473ffffffffffffffffffffffffffffffffffffffff1673ffffffffffffffffffffffffffffffffffffffff16141561283c576040517f08c379a000000000000000000000000000000000000000000000000000000000815260040180806020018281038252601d8152602001807f596f752061726520616c726561647920696e20746869732067616d652100000081525060200191505060405180910390fd5b338260020160016002811061284d57fe5b0160006101000a81548173ffffffffffffffffffffffffffffffffffffffff021916908373ffffffffffffffffffffffffffffffffffffffff1602179055508160040154816002016000828254039250508190555081600401546004600201600082825401925050819055506129cf816001018054600181600116156101000203166002900480601f0160208091040260200160405190810160405280929190818152602001828054600181600116156101000203166002900480156129545780601f1061292957610100808354040283529160200191612954565b820191906000526020600020905b81548152906001019060200180831161293757829003601f168201915b50505050506040518060400160405280600681526020017f62616e6b6572000000000000000000000000000000000000000000000000000081525084600401546040518060400160405280600381526020017f42657400000000000000000000000000000000000000000000000000000000008152506131d6565b600282600101819055505050565b60003373ffffffffffffffffffffffffffffffffffffffff16600c6000600b548152602001908152602001600020600201600060028110612a1a57fe5b0160009054906101000a900473ffffffffffffffffffffffffffffffffffffffff1673ffffffffffffffffffffffffffffffffffffffff161480612ace57503373ffffffffffffffffffffffffffffffffffffffff16600c6000600b548152602001908152602001600020600201600160028110612a9457fe5b0160009054906101000a900473ffffffffffffffffffffffffffffffffffffffff1673ffffffffffffffffffffffffffffffffffffffff16145b612b23576040517f08c379a000000000000000000000000000000000000000000000000000000000815260040180806020018281038252602281526020018061436d6022913960400191505060405180910390fd5b600a60009054906101000a900460ff16905090565b600460000160009054906101000a900473ffffffffffffffffffffffffffffffffffffffff1673ffffffffffffffffffffffffffffffffffffffff163373ffffffffffffffffffffffffffffffffffffffff1614612be1576040517f08c379a000000000000000000000000000000000000000000000000000000000815260040180806020018281038252603e8152602001806143f6603e913960400191505060405180910390fd5b806004600101541015612c5c576040517f08c379a000000000000000000000000000000000000000000000000000000000815260040180806020018281038252601f8152602001807f596f7520646f206e6f74206861766520656e6f7567682062616c616e63652e0081525060200191505060405180910390fd5b600460000160009054906101000a900473ffffffffffffffffffffffffffffffffffffffff1673ffffffffffffffffffffffffffffffffffffffff166108fc829081150290604051600060405180830381858888f19350505050158015612cc7573d6000803e3d6000fd5b508060046001016000828254039250508190555050565b6000600c6000600b5481526020019081526020016000206001015414612d4f576040517f08c379a000000000000000000000000000000000000000000000000000000000815260040180806020018281038252604481526020018061438f6044913960600191505060405180910390fd5b80600360003373ffffffffffffffffffffffffffffffffffffffff1673ffffffffffffffffffffffffffffffffffffffff168152602001908152602001600020600201541015612dea576040517f08c379a00000000000000000000000000000000000000000000000000000000081526004018080602001828103825260238152602001806142a86023913960400191505060405180910390fd5b6000600c6000600b5481526020019081526020016000209050600b5481600001819055503381600201600060028110612e1f57fe5b0160006101000a81548173ffffffffffffffffffffffffffffffffffffffff021916908373ffffffffffffffffffffffffffffffffffffffff16021790555081816004018190555081600360003373ffffffffffffffffffffffffffffffffffffffff1673ffffffffffffffffffffffffffffffffffffffff168152602001908152602001600020600201600082825403925050819055508160046002016000828254019250508190555061301a600360003373ffffffffffffffffffffffffffffffffffffffff1673ffffffffffffffffffffffffffffffffffffffff1681526020019081526020016000206001018054600181600116156101000203166002900480601f016020809104026020016040519081016040528092919081815260200182805460018160011615610100020316600290048015612fa35780601f10612f7857610100808354040283529160200191612fa3565b820191906000526020600020905b815481529060010190602001808311612f8657829003601f168201915b50505050506040518060400160405280600681526020017f62616e6b65720000000000000000000000000000000000000000000000000000815250846040518060400160405280600381526020017f42657400000000000000000000000000000000000000000000000000000000008152506131d6565b600181600101819055505050565b60606000600360003373ffffffffffffffffffffffffffffffffffffffff1673ffffffffffffffffffffffffffffffffffffffff16815260200190815260200160002090506000816001018054600181600116156101000203166002900490501461313257806001018054600181600116156101000203166002900480601f0160208091040260200160405190810160405280929190818152602001828054600181600116156101000203166002900480156131255780601f106130fa57610100808354040283529160200191613125565b820191906000526020600020905b81548152906001019060200180831161310857829003601f168201915b50505050509150506131d3565b806001018054600181600116156101000203166002900480601f0160208091040260200160405190810160405280929190818152602001828054600181600116156101000203166002900480156131ca5780601f1061319f576101008083540402835291602001916131ca565b820191906000526020600020905b8154815290600101906020018083116131ad57829003601f168201915b50505050509150505b90565b60006001600080548152602001908152602001600020905060005481600001819055504281600101819055508481600201908051906020019061321a929190614144565b5083816003019080519060200190613233929190614144565b5082816004018190555081816005019080519060200190613255929190614144565b50600360006002876040518082805190602001908083835b60208310613290578051825260208201915060208101905060208303925061326d565b6001836020036101000a038019825116818451168082178552505050505050905001915050908152602001604051809103902060009054906101000a900473ffffffffffffffffffffffffffffffffffffffff1673ffffffffffffffffffffffffffffffffffffffff1673ffffffffffffffffffffffffffffffffffffffff1681526020019081526020016000206004016000549080600181540180825580915050906001820390600052602060002001600090919290919091505550600360006002866040518082805190602001908083835b602083106133875780518252602082019150602081019050602083039250613364565b6001836020036101000a038019825116818451168082178552505050505050905001915050908152602001604051809103902060009054906101000a900473ffffffffffffffffffffffffffffffffffffffff1673ffffffffffffffffffffffffffffffffffffffff1673ffffffffffffffffffffffffffffffffffffffff1681526020019081526020016000206004016000549080600181540180825580915050906001820390600052602060002001600090919290919091505550600160008082825401925050819055505050505050565b600080600c6000600b5481526020019081526020016000209050600061347f613643565b141561362a57600060028061349057fe5b826006016000846002016001600281106134a657fe5b0160009054906101000a900473ffffffffffffffffffffffffffffffffffffffff1673ffffffffffffffffffffffffffffffffffffffff1673ffffffffffffffffffffffffffffffffffffffff168152602001908152602001600020548360060160008560020160006002811061351957fe5b0160009054906101000a900473ffffffffffffffffffffffffffffffffffffffff1673ffffffffffffffffffffffffffffffffffffffff1673ffffffffffffffffffffffffffffffffffffffff1681526020019081526020016000205408905081600201816002811061358857fe5b0160009054906101000a900473ffffffffffffffffffffffffffffffffffffffff168260050160006101000a81548173ffffffffffffffffffffffffffffffffffffffff021916908373ffffffffffffffffffffffffffffffffffffffff1602179055506135f461379b565b6135fc613aae565b8160050160009054906101000a900473ffffffffffffffffffffffffffffffffffffffff1692505050613640565b613632613cdf565b61363a613aae565b60009150505b90565b600080600c6000600b5481526020019081526020016000209050600080905060008090505b60028110156137925782600601600084600201836002811061368657fe5b0160009054906101000a900473ffffffffffffffffffffffffffffffffffffffff1673ffffffffffffffffffffffffffffffffffffffff1673ffffffffffffffffffffffffffffffffffffffff1681526020019081526020016000205460405160200180828152602001915050604051602081830303815290604052805190602001206007600085600201846002811061371c57fe5b0160009054906101000a900473ffffffffffffffffffffffffffffffffffffffff1673ffffffffffffffffffffffffffffffffffffffff1673ffffffffffffffffffffffffffffffffffffffff1681526020019081526020016000205414613785576001820191505b8080600101915050613668565b50809250505090565b6000600c6000600b548152602001908152602001600020905060056064600460020154816137c557fe5b0402600460010160008282540192505081905550605f6064600460020154816137ea57fe5b0402600360008360050160009054906101000a900473ffffffffffffffffffffffffffffffffffffffff1673ffffffffffffffffffffffffffffffffffffffff1673ffffffffffffffffffffffffffffffffffffffff1681526020019081526020016000206002016000828254019250508190555061391c6040518060400160405280600681526020017f62616e6b657200000000000000000000000000000000000000000000000000008152506040518060400160405280600681526020017f62616e6b6572000000000000000000000000000000000000000000000000000081525060056064600460020154816138df57fe5b04026040518060400160405280600a81526020017f436f6d6d697373696f6e000000000000000000000000000000000000000000008152506131d6565b613aa26040518060400160405280600681526020017f62616e6b65720000000000000000000000000000000000000000000000000000815250600360008460050160009054906101000a900473ffffffffffffffffffffffffffffffffffffffff1673ffffffffffffffffffffffffffffffffffffffff1673ffffffffffffffffffffffffffffffffffffffff1681526020019081526020016000206001018054600181600116156101000203166002900480601f016020809104026020016040519081016040528092919081815260200182805460018160011615610100020316600290048015613a4f5780601f10613a2457610100808354040283529160200191613a4f565b820191906000526020600020905b815481529060010190602001808311613a3257829003601f168201915b5050505050605f606460046002015481613a6557fe5b04026040518060400160405280600681526020017f52657761726400000000000000000000000000000000000000000000000000008152506131d6565b60046002016000905550565b6000600c6000600b548152602001908152602001600020905060038160010181905550600b546003600083600201600060028110613ae857fe5b0160009054906101000a900473ffffffffffffffffffffffffffffffffffffffff1673ffffffffffffffffffffffffffffffffffffffff1673ffffffffffffffffffffffffffffffffffffffff16815260200190815260200160002060030181905550600b546003600083600201600160028110613b6257fe5b0160009054906101000a900473ffffffffffffffffffffffffffffffffffffffff1673ffffffffffffffffffffffffffffffffffffffff1673ffffffffffffffffffffffffffffffffffffffff16815260200190815260200160002060030181905550600a60006101000a81549060ff02191690556008600090556009600090556007600082600201600060028110613bf757fe5b0160009054906101000a900473ffffffffffffffffffffffffffffffffffffffff1673ffffffffffffffffffffffffffffffffffffffff1673ffffffffffffffffffffffffffffffffffffffff168152602001908152602001600020600090556007600082600201600160028110613c6b57fe5b0160009054906101000a900473ffffffffffffffffffffffffffffffffffffffff1673ffffffffffffffffffffffffffffffffffffffff1673ffffffffffffffffffffffffffffffffffffffff168152602001908152602001600020600090556001600b6000828254019250508190555050565b6000600c6000600b5481526020019081526020016000209050600260046002015481613d0757fe5b046003600083600201600060028110613d1c57fe5b0160009054906101000a900473ffffffffffffffffffffffffffffffffffffffff1673ffffffffffffffffffffffffffffffffffffffff1673ffffffffffffffffffffffffffffffffffffffff16815260200190815260200160002060020160008282540192505081905550600260046002015481613d9757fe5b046003600083600201600160028110613dac57fe5b0160009054906101000a900473ffffffffffffffffffffffffffffffffffffffff1673ffffffffffffffffffffffffffffffffffffffff1673ffffffffffffffffffffffffffffffffffffffff16815260200190815260200160002060020160008282540192505081905550613fa86040518060400160405280600681526020017f62616e6b657200000000000000000000000000000000000000000000000000008152506003600084600201600060028110613e6557fe5b0160009054906101000a900473ffffffffffffffffffffffffffffffffffffffff1673ffffffffffffffffffffffffffffffffffffffff1673ffffffffffffffffffffffffffffffffffffffff1681526020019081526020016000206001018054600181600116156101000203166002900480601f016020809104026020016040519081016040528092919081815260200182805460018160011615610100020316600290048015613f585780601f10613f2d57610100808354040283529160200191613f58565b820191906000526020600020905b815481529060010190602001808311613f3b57829003601f168201915b5050505050600260046002015481613f6c57fe5b046040518060400160405280600681526020017f526566756e6400000000000000000000000000000000000000000000000000008152506131d6565b6141386040518060400160405280600681526020017f62616e6b657200000000000000000000000000000000000000000000000000008152506003600084600201600160028110613ff557fe5b0160009054906101000a900473ffffffffffffffffffffffffffffffffffffffff1673ffffffffffffffffffffffffffffffffffffffff1673ffffffffffffffffffffffffffffffffffffffff1681526020019081526020016000206001018054600181600116156101000203166002900480601f0160208091040260200160405190810160405280929190818152602001828054600181600116156101000203166002900480156140e85780601f106140bd576101008083540402835291602001916140e8565b820191906000526020600020905b8154815290600101906020018083116140cb57829003601f168201915b50505050506002600460020154816140fc57fe5b046040518060400160405280600681526020017f526566756e6400000000000000000000000000000000000000000000000000008152506131d6565b60046002016000905550565b828054600181600116156101000203166002900490600052602060002090601f016020900481019282601f1061418557805160ff19168380011785556141b3565b828001600101855582156141b3579182015b828111156141b2578251825591602001919060010190614197565b5b5090506141c0919061421c565b5090565b6040518060c001604052806000815260200160008152602001606081526020016060815260200160008152602001606081525090565b6040518060400160405280600290602082028038833980820191505090505090565b61423e91905b8082111561423a576000816000905550600101614222565b5090565b9056fe596f7572206164647265737320686173206e6f742072656769737465726564207965742120506c6561736520636865636b20616761696e2e4e6f7420616c6c20706c61796572732068617665207375626d69747465642074686520686173682076616c756521596f7520646f206e6f7420686176652073756666696369656e742062616c616e63652e596f75206861766520616c7265616479207375626d697474656420796f757220726573756c742e5468652074617267657420616464726573732068617665206e6f742072656769737465726564207965742120506c6561736520636865636b20616761696e2e5468657265206973206e6f2067616d652077616974696e6720666f7220706c617965722c20706c6561736520696e69746961746520612067616d6521596f7520617265206e6f7420656e726f6c6c656420696e20746869732067616d6521546865726520697320612067616d652077616974696e6720666f7220706c617965722c20796f752063616e6e6f742073746172742061206e65772067616d65206e6f7721596f752068617665206e6f74207375626d697420686173682076616c7565207965742e596f7520617265206e6f742074686520636f6e7472616374206f776e65722c20796f752063616e6e6f7420776974686472617720746865206d6f6e65792e54686520616464726573732f6163636f756e74204944206861766520616c7265616479207265676973746572656421a265627a7a72315820b58f074b8000731893182311a68f6c1fa46a3d289d8a8566d6c3ed65745a1e9c64736f6c63430005100032",
  "source": "pragma solidity >=0.4.21 <0.7.0;\n\nimport \"./Bankers.sol\";\n\ncontract CoinFlip is Bankers {\n    /**\n     * Players need to submit the hash values of their clear text before revealing\n     * As these value are not stored permanently, they will be deleted after each round\n     * @notice the value are deleted in houseCleaning() function\n     */\n    mapping (address => bytes32) submittedHashValue;\n    /// If the submitHashCount and submitClearTextCount reach 2, the next step will be processed automatically\n    uint submitHashCount = 0;\n    uint submitClearTextCount = 0;\n    /// The front-end will read this value to determine when the user can reveal the clear text.\n    bool bothSubmitHash = false;\n\n    /**\n     * Struct for Game\n     * @param gameID the self-increasing ID of the game, the gameID will increase by 1 in each round\n     * @param status the status of the game. 0: not started, 1: waiting for participant, 2: in process, 3: finished\n     * @param player the players participating in the game\n     * @param betValue provided by the first player initializing the game\n     * @param winner the winner of this round\n     * @param submittedClearText the submitted clear text value for each user\n     */\n    struct Game {\n        uint ID;\n        uint status;\n        address[2] player;\n        uint betValue;\n        address winner;\n        mapping (address => uint) submittedClearText;\n    }\n\n    /// Self-increasing gameID counter\n    uint gameID = 1;\n    /// gameID => Game struct mapping\n    mapping (uint => Game) gameHistory;\n\n    function currentGameStatus() external view returns (uint) {\n        return gameHistory[gameID].status;\n    }\n\n    /**\n     * Initialize a game\n     * a game struct will be initialize and the betValue will be move from player's balance to banker's\n     * @param betValue only the player who initialize the game can set the betValue\n     *                 the participant can only accept it or wait until the game ends\n     * @notice once the game is initialized, the currentWaiting will be true,\n     *         and the front-end will not allow user to start a new game, they can only join the current one or wait.\n     */\n    function initializeGame(uint betValue) external {\n        require(gameHistory[gameID].status == 0, \"There is a game waiting for player, you cannot start a new game now!\");\n        require(userList[msg.sender].balance >= betValue, \"You do not have sufficient balance.\");\n        // Initialize the game\n        Game storage game = gameHistory[gameID];\n        game.ID = gameID;\n        game.player[0] = msg.sender;\n        game.betValue = betValue;\n        // Deduct the balance from the user's balance, move to banker's temperory balance (gameDeposit)\n        userList[msg.sender].balance -= betValue;\n        banker.gameDeposit += betValue;\n        // Append transaction record\n        addTransaction(userList[msg.sender].accountID, \"banker\", betValue, \"Bet\");\n        // Set the game status to 1\n        game.status = 1;\n    }\n\n    /**\n     * If there is an on-going game, the user can join it.\n     * Once the new player join the game, the betValue will be deducted and transfer to the banker.\n     */\n    function joinGame() external {\n        // Initialize temporary instance for easier manipulation and less gas cost.\n        Game storage game = gameHistory[gameID];\n        User storage user = userList[msg.sender];\n\n        require(game.status == 1, \"There is no game waiting for player, please initiate a game!\");\n        require(user.balance >= game.betValue, \"You do not have sufficient balance.\");\n        // The player initialize the game cannot join it twice.\n        require(game.player[0] != msg.sender, \"You are already in this game!\");\n\n        // Set the counterparty as the people join the game.\n        game.player[1] = msg.sender;\n        // Deduct the balance from the user's balance, move to banker's temperory balance (gameDeposit)\n        user.balance -= game.betValue;\n        banker.gameDeposit += game.betValue;\n        // Append transaction record\n        addTransaction(user.accountID, \"banker\", game.betValue, \"Bet\");\n        // Once the player list is full, change game status to 2.\n        game.status = 2;\n    }\n\n    /**\n     * Only the enrolled players can use the command in the game.\n     */\n    modifier enrolledPlayer {\n        require(\n            gameHistory[gameID].player[0] == msg.sender || gameHistory[gameID].player[1] == msg.sender,\n            \"You are not enrolled in this game!\"\n        );\n        _;\n    }\n\n    /**\n     * @return current participants in this round\n     */\n    function currentInGamePlayer() external view returns (address[2] memory) {\n        return gameHistory[gameID].player;\n    }\n\n    /**\n     * @return bet value for current round\n     */\n    function currentGameBetValue() external view returns (uint) {\n        return gameHistory[gameID].betValue;\n    }\n\n    /**\n     * Players submit their hash values through this function.\n     * @param hashValue each player submit the hash value generated from their clear text.\n     * @dev once both players submit their hash values, the bothSubmitHash will be true,\n     *      and the player can reveal their clear text.\n     */\n    function submitHash(bytes32 hashValue) external enrolledPlayer {\n        // Require the game has started.\n        require(gameHistory[gameID].status == 2, \"The game status is wrong!\");\n        // Once the player submit the value, he/she cannot modify it.\n        require(submittedHashValue[msg.sender] == \"\", \"You have already submitted your result.\");\n\n        submittedHashValue[msg.sender] = hashValue;\n        submitHashCount += 1;\n\n        if (submitHashCount == 2) {\n            bothSubmitHash = true;\n        }\n    }\n\n    /**\n     * Make sure the submitted hash value and clear text match.\n     */\n    function validate() private view returns (uint) {\n        // Initialize temporary instance for easier manipulation and less gas cost.\n        Game storage game = gameHistory[gameID];\n\n        uint cheaterCount = 0;\n        for (uint i = 0; i < 2; i++) {\n            if (submittedHashValue[game.player[i]] != keccak256(abi.encodePacked(game.submittedClearText[game.player[i]]))) {\n                cheaterCount += 1;\n            }\n        }\n\n        return cheaterCount;\n    }\n\n    /**\n     * If one or more players are detected cheating, this round will be invalid.\n     * The money will be given back to the players.\n     */\n    function detectCheating() private {\n        // Initialize temporary instance for easier manipulation and less gas cost\n        Game storage game = gameHistory[gameID];\n\n        // Give the money back to two participants\n        userList[game.player[0]].balance += banker.gameDeposit / 2;\n        userList[game.player[1]].balance += banker.gameDeposit / 2;\n        // Append transaction records\n        addTransaction(\"banker\", userList[game.player[0]].accountID, banker.gameDeposit / 2, \"Refund\");\n        addTransaction(\"banker\", userList[game.player[1]].accountID, banker.gameDeposit / 2, \"Refund\");\n\n        delete banker.gameDeposit;\n    }\n\n    /**\n     * If there is not cheaters found, the banker will find the winner.\n     * After find the winner or detect cheating, the houseCleaning() will start.\n     * @notice the player who initialize the game will always choose the mod == 0.\n     */\n    function findWinner() private returns (address) {\n        // Initialize temporary instance for easier manipulation and less gas cost\n        Game storage game = gameHistory[gameID];\n\n        if (validate() == 0) {\n            uint mod = addmod(game.submittedClearText[game.player[0]], game.submittedClearText[game.player[1]], 2);\n            // Choose the winner\n            game.winner = game.player[mod];\n            // Transfer balance to the winner\n            balanceTransfer();\n            houseCleaning();\n            return game.winner;\n        } else {\n            detectCheating();\n            houseCleaning();\n            return address(0);\n        }\n    }\n\n    /**\n     * Transfer 95% of the temporary gameDeposit to the winner, 5% to the banker.\n     * @dev To cut down the fee, transfer the balance within the contract, rather than directly to winner's address.\n     */\n    function balanceTransfer() private {\n        // Initialize temporary instance for easier manipulation and less gas cost\n        Game storage game = gameHistory[gameID];\n\n        // Banker take 5% as the commission, and the winner take the rest\n        banker.balance += banker.gameDeposit / 100 * 5;\n        userList[game.winner].balance += banker.gameDeposit / 100 * 95;\n        // Append transaction records\n        addTransaction(\"banker\", \"banker\", banker.gameDeposit / 100 * 5, \"Commission\");\n        addTransaction(\"banker\", userList[game.winner].accountID, banker.gameDeposit / 100 * 95, \"Reward\");\n        // Clear the gameDeposit for the banker\n        delete banker.gameDeposit;\n    }\n\n    /**\n     * Function for players to submit their clear text values.\n     * Once 2 players submitted the clear text values, teh findWinner process will start.\n     * @param randomNumber the automatically generated randomNumber for the player.\n     */\n    function submitClearText(uint randomNumber) external enrolledPlayer {\n        // Initialize temporary instance for easier manipulation and less gas cost\n        Game storage game = gameHistory[gameID];\n\n        // Submit hash value before submiting clear text.\n        require(submittedHashValue[msg.sender] != \"\", \"You have not submit hash value yet.\");\n        // Clear text can only be submitted until all players submit the hash value.\n        require(submitHashCount == 2, \"Not all players have submitted the hash value!\");\n        // Prevent modification.\n        require(game.submittedClearText[msg.sender] == 0, \"You have already submitted your result.\");\n\n        // Record the clear text into the game history\n        game.submittedClearText[msg.sender] = randomNumber;\n        submitClearTextCount += 1;\n\n        // If all players submitted their clear text, find the winner automatically.\n        if (submitClearTextCount == 2) {\n            findWinner();\n        }\n    }\n\n    /**\n     * @dev prepare for the JavaScript to check whether all players have submitted the hash value.\n     */\n    function bothSubmitHashCheck() external view enrolledPlayer returns (bool){\n        return bothSubmitHash;\n    }\n\n    /**\n     * @return game_id of last game\n     * @return bet_value of last game\n     * @return total_player number of last game\n     * @return your_index of the msg.sender\n     */\n    function lastGameHistory() external view returns (uint game_id, uint bet_value, uint total_player, uint your_index) {\n        // Initialize temporary instance for easier manipulation and less gas cost\n        Game storage game = gameHistory[userList[msg.sender].lastGameID];\n\n        // Find the index of the user\n        uint userIndex = 0;\n        for (uint i = 0; i < 2; i++) {\n            if (msg.sender == game.player[i]) {\n                userIndex = i;\n                break;\n            }\n        }\n        return (game.ID, game.betValue, game.player.length, userIndex);\n    }\n\n    /**\n     * House cleaning process to release resources and prepare for the next round.\n     */\n    function houseCleaning() private {\n        // Initialize temporary instance for easier manipulation and less gas cost\n        Game storage game = gameHistory[gameID];\n\n        // Update the game status to 3\n        game.status = 3;\n        // Change the lastGameID of the user to this game (user can only see the history of past game)\n        userList[game.player[0]].lastGameID = gameID;\n        userList[game.player[1]].lastGameID = gameID;\n\n        // Delete the value stored in the parameter\n        delete bothSubmitHash;\n        delete submitHashCount;\n        delete submitClearTextCount;\n\n        // Clear submitted hash value\n        delete submittedHashValue[game.player[0]];\n        delete submittedHashValue[game.player[1]];\n\n        // gameID increase by 1, prepare for the next game\n        gameID += 1;\n    }\n}\n",
  "sourcePath": "/Users/blanker/Documents/Codings/DApp/CoinFlipping/contracts/CoinFlip.sol",
  "compiler": {
    "name": "solc",
    "version": "0.5.16+commit.9c3226ce.Emscripten.clang"
  },
  "schemaVersion": "3.0.23",
  "updatedAt": "2020-04-25T18:20:36.134Z",
  "networkType": "ethereum",
  "devdoc": {
    "methods": {
      "bothSubmitHashCheck()": {
        "details": "prepare for the JavaScript to check whether all players have submitted the hash value."
      },
      "createAccount(string)": {
        "params": {
          "accountToRegister": "accountID the user would like to register"
        }
      },
      "currentGameBetValue()": {
        "return": "bet value for current round"
      },
      "currentInGamePlayer()": {
        "return": "current participants in this round"
      },
      "initializeGame(uint256)": {
        "params": {
          "betValue": "only the player who initialize the game can set the betValue                the participant can only accept it or wait until the game ends"
        }
      },
      "lastGameHistory()": {
        "return": "game_id of last gamebet_value of last gametotal_player number of last gameyour_index of the msg.sender"
      },
      "submitClearText(uint256)": {
        "params": {
          "randomNumber": "the automatically generated randomNumber for the player."
        }
      },
      "submitHash(bytes32)": {
        "details": "once both players submit their hash values, the bothSubmitHash will be true,     and the player can reveal their clear text.",
        "params": {
          "hashValue": "each player submit the hash value generated from their clear text."
        }
      },
      "transactionCheck(uint256)": {
        "params": {
          "targetTransactionID": "The transaction to reveal the details"
        }
      },
      "transferToAddress(address,uint256)": {
        "params": {
          "amount": "The amount of balance to transfer to the target registered user",
          "toAddress": "The address of the target registered user to transfer balance to"
        }
      },
      "transferToID(string,uint256)": {
        "params": {
          "amount": "The amount of balance to transfer to the target registered user",
          "toAccountID": "The accountID of the target registered user to transfer balance to"
        }
      },
      "withdraw(uint256)": {
        "params": {
          "amount": "The amount of balance to withdraw."
        }
      }
    }
  },
  "userdoc": {
    "methods": {
      "checkBalance()": {
        "notice": "Show the balance."
      },
      "checkRegistration()": {
        "notice": "Check if the user have registered or not, if yes, return the accountID"
      },
      "createAccount(string)": {
        "notice": "User registration"
      },
      "deposit()": {
        "notice": "User deposit the money to the contract, and the contract will give him a \"virtual\" balance, similar to deposit fiat money to bank"
      },
      "initializeGame(uint256)": {
        "notice": "Initialize a game a game struct will be initialize and the betValue will be move from player's balance to banker'sonce the game is initialized, the currentWaiting will be true,        and the front-end will not allow user to start a new game, they can only join the current one or wait."
      },
      "joinGame()": {
        "notice": "If there is an on-going game, the user can join it. Once the new player join the game, the betValue will be deducted and transfer to the banker."
      },
      "submitClearText(uint256)": {
        "notice": "Function for players to submit their clear text values. Once 2 players submitted the clear text values, teh findWinner process will start."
      },
      "submitHash(bytes32)": {
        "notice": "Players submit their hash values through this function."
      },
      "transferToAddress(address,uint256)": {
        "notice": "User transfer his/her deposit to another registered user with the address"
      },
      "transferToID(string,uint256)": {
        "notice": "User transfer his/her deposit to another registered user with the accountID"
      },
      "userTransactionArrayCheck()": {
        "notice": "The user's transaction history"
      },
      "withdraw(uint256)": {
        "notice": "Withdraw the balance from the contract, get the token back to his/her ethureum address"
      }
    }
  }
}