{
  "contractName": "CoinFlip",
  "abi": [
    {
      "anonymous": false,
      "inputs": [
        {
          "indexed": false,
          "internalType": "uint256",
          "name": "balance",
          "type": "uint256"
        }
      ],
      "name": "showBalance",
      "type": "event"
    },
    {
      "constant": true,
      "inputs": [],
      "name": "checkBalance",
      "outputs": [
        {
          "internalType": "uint256",
          "name": "balance",
          "type": "uint256"
        }
      ],
      "payable": false,
      "stateMutability": "view",
      "type": "function"
    },
    {
      "constant": true,
      "inputs": [],
      "name": "checkRegistration",
      "outputs": [
        {
          "internalType": "string",
          "name": "",
          "type": "string"
        }
      ],
      "payable": false,
      "stateMutability": "view",
      "type": "function"
    },
    {
      "constant": false,
      "inputs": [
        {
          "internalType": "string",
          "name": "accountToRegister",
          "type": "string"
        }
      ],
      "name": "createAccount",
      "outputs": [],
      "payable": false,
      "stateMutability": "nonpayable",
      "type": "function"
    },
    {
      "constant": false,
      "inputs": [],
      "name": "deposit",
      "outputs": [],
      "payable": true,
      "stateMutability": "payable",
      "type": "function"
    },
    {
      "constant": false,
      "inputs": [
        {
          "internalType": "address",
          "name": "toAddress",
          "type": "address"
        },
        {
          "internalType": "uint256",
          "name": "amount",
          "type": "uint256"
        }
      ],
      "name": "transferToAddress",
      "outputs": [],
      "payable": false,
      "stateMutability": "nonpayable",
      "type": "function"
    },
    {
      "constant": false,
      "inputs": [
        {
          "internalType": "string",
          "name": "toAccountID",
          "type": "string"
        },
        {
          "internalType": "uint256",
          "name": "amount",
          "type": "uint256"
        }
      ],
      "name": "transferToID",
      "outputs": [],
      "payable": false,
      "stateMutability": "nonpayable",
      "type": "function"
    },
    {
      "constant": false,
      "inputs": [
        {
          "internalType": "uint256",
          "name": "amount",
          "type": "uint256"
        }
      ],
      "name": "withdraw",
      "outputs": [],
      "payable": true,
      "stateMutability": "payable",
      "type": "function"
    },
    {
      "constant": true,
      "inputs": [],
      "name": "currentGameStatus",
      "outputs": [
        {
          "internalType": "uint256",
          "name": "",
          "type": "uint256"
        }
      ],
      "payable": false,
      "stateMutability": "view",
      "type": "function"
    },
    {
      "constant": false,
      "inputs": [
        {
          "internalType": "uint256",
          "name": "betValue",
          "type": "uint256"
        }
      ],
      "name": "initializeGame",
      "outputs": [],
      "payable": false,
      "stateMutability": "nonpayable",
      "type": "function"
    },
    {
      "constant": false,
      "inputs": [],
      "name": "joinGame",
      "outputs": [],
      "payable": false,
      "stateMutability": "nonpayable",
      "type": "function"
    },
    {
      "constant": true,
      "inputs": [],
      "name": "currentInGamePlayer",
      "outputs": [
        {
          "internalType": "address[2]",
          "name": "",
          "type": "address[2]"
        }
      ],
      "payable": false,
      "stateMutability": "view",
      "type": "function"
    },
    {
      "constant": true,
      "inputs": [],
      "name": "currentGameBetValue",
      "outputs": [
        {
          "internalType": "uint256",
          "name": "",
          "type": "uint256"
        }
      ],
      "payable": false,
      "stateMutability": "view",
      "type": "function"
    },
    {
      "constant": false,
      "inputs": [
        {
          "internalType": "bytes32",
          "name": "hashValue",
          "type": "bytes32"
        }
      ],
      "name": "submitHash",
      "outputs": [],
      "payable": false,
      "stateMutability": "nonpayable",
      "type": "function"
    },
    {
      "constant": false,
      "inputs": [
        {
          "internalType": "uint256",
          "name": "randomNumber",
          "type": "uint256"
        }
      ],
      "name": "submitClearText",
      "outputs": [],
      "payable": false,
      "stateMutability": "nonpayable",
      "type": "function"
    },
    {
      "constant": true,
      "inputs": [],
      "name": "bothSubmitHashCheck",
      "outputs": [
        {
          "internalType": "bool",
          "name": "",
          "type": "bool"
        }
      ],
      "payable": false,
      "stateMutability": "view",
      "type": "function"
    },
    {
      "constant": true,
      "inputs": [],
      "name": "lastGameHistory",
      "outputs": [
        {
          "internalType": "uint256",
          "name": "",
          "type": "uint256"
        },
        {
          "internalType": "uint256",
          "name": "",
          "type": "uint256"
        },
        {
          "internalType": "uint256",
          "name": "",
          "type": "uint256"
        },
        {
          "internalType": "uint256",
          "name": "",
          "type": "uint256"
        }
      ],
      "payable": false,
      "stateMutability": "view",
      "type": "function"
    }
  ],
  "bytecode": "0x60806040526040518060400160405280600081526020016000815250600260008201518160000155602082015181600101555050600060055560006006556000600760006101000a81548160ff021916908315150217905550600160085534801561006957600080fd5b506133f0806100796000396000f3fe6080604052600436106100f35760003560e01c8063975201bd1161008a578063d4f77b1c11610059578063d4f77b1c146104af578063de66172b146104c6578063ee587941146104f5578063fd1b210014610530576100f3565b8063975201bd146103df578063acef60371461041f578063c71daccb1461047a578063d0e30db0146104a5576100f3565b80636e50d034116100c65780636e50d034146102fb578063725c49c01461032657806372fb8e8e146103615780637f102c16146103b4576100f3565b806308891a32146100f85780630c41bda814610133578063298daf5b146102055780632e1a7d4d146102cd575b600080fd5b34801561010457600080fd5b506101316004803603602081101561011b57600080fd5b81019080803590602001909291905050506105c0565b005b34801561013f57600080fd5b506102036004803603604081101561015657600080fd5b810190808035906020019064010000000081111561017357600080fd5b82018360208201111561018557600080fd5b803590602001918460018302840111640100000000831117156101a757600080fd5b91908080601f016020809104026020016040519081016040528093929190818152602001838380828437600081840152601f19601f820116905080830192505050505050509192919290803590602001909291905050506108a9565b005b34801561021157600080fd5b506102cb6004803603602081101561022857600080fd5b810190808035906020019064010000000081111561024557600080fd5b82018360208201111561025757600080fd5b8035906020019184600183028401116401000000008311171561027957600080fd5b91908080601f016020809104026020016040519081016040528093929190818152602001838380828437600081840152601f19601f820116905080830192505050505050509192919290505050610cef565b005b6102f9600480360360208110156102e357600080fd5b8101908080359060200190929190505050611191565b005b34801561030757600080fd5b5061031061140d565b6040518082815260200191505060405180910390f35b34801561033257600080fd5b5061035f6004803603602081101561034957600080fd5b810190808035906020019092919050505061142d565b005b34801561036d57600080fd5b50610376611796565b6040518082600260200280838360005b838110156103a1578082015181840152602081019050610386565b5050505090500191505060405180910390f35b3480156103c057600080fd5b506103c961182d565b6040518082815260200191505060405180910390f35b3480156103eb57600080fd5b506103f461184d565b6040518085815260200184815260200183815260200182815260200194505050505060405180910390f35b34801561042b57600080fd5b506104786004803603604081101561044257600080fd5b81019080803573ffffffffffffffffffffffffffffffffffffffff16906020019092919080359060200190929190505050611a4f565b005b34801561048657600080fd5b5061048f611d85565b6040518082815260200191505060405180910390f35b6104ad611e7e565b005b3480156104bb57600080fd5b506104c4611ff9565b005b3480156104d257600080fd5b506104db61231b565b604051808215151515815260200191505060405180910390f35b34801561050157600080fd5b5061052e6004803603602081101561051857600080fd5b8101908080359060200190929190505050612476565b005b34801561053c57600080fd5b50610545612684565b6040518080602001828103825283818151815260200191508051906020019080838360005b8381101561058557808201518184015260208101905061056a565b50505050905090810190601f1680156105b25780820380516001836020036101000a031916815260200191505b509250505060405180910390f35b3373ffffffffffffffffffffffffffffffffffffffff166009600060085481526020019081526020016000206002016000600281106105fb57fe5b0160009054906101000a900473ffffffffffffffffffffffffffffffffffffffff1673ffffffffffffffffffffffffffffffffffffffff1614806106af57503373ffffffffffffffffffffffffffffffffffffffff1660096000600854815260200190815260200160002060020160016002811061067557fe5b0160009054906101000a900473ffffffffffffffffffffffffffffffffffffffff1673ffffffffffffffffffffffffffffffffffffffff16145b610704576040517f08c379a00000000000000000000000000000000000000000000000000000000081526004018080602001828103825260228152602001806133046022913960400191505060405180910390fd5b60026009600060085481526020019081526020016000206001015414610792576040517f08c379a00000000000000000000000000000000000000000000000000000000081526004018080602001828103825260198152602001807f5468652067616d65207374617475732069732077726f6e67210000000000000081525060200191505060405180910390fd5b6000600460003373ffffffffffffffffffffffffffffffffffffffff1673ffffffffffffffffffffffffffffffffffffffff168152602001908152602001600020541461082a576040517f08c379a00000000000000000000000000000000000000000000000000000000081526004018080602001828103825260278152602001806132626027913960400191505060405180910390fd5b80600460003373ffffffffffffffffffffffffffffffffffffffff1673ffffffffffffffffffffffffffffffffffffffff168152602001908152602001600020819055506001600560008282540192505081905550600260055414156108a6576001600760006101000a81548160ff0219169083151502179055505b50565b6000600160003373ffffffffffffffffffffffffffffffffffffffff1673ffffffffffffffffffffffffffffffffffffffff1681526020019081526020016000206001018054600181600116156101000203166002900490501415610959576040517f08c379a00000000000000000000000000000000000000000000000000000000081526004018080602001828103825260388152602001806131d96038913960400191505060405180910390fd5b8080600160003373ffffffffffffffffffffffffffffffffffffffff1673ffffffffffffffffffffffffffffffffffffffff1681526020019081526020016000206002015411610a11576040517f08c379a000000000000000000000000000000000000000000000000000000000815260040180806020018281038252601f8152602001807f596f7520646f206e6f74206861766520656e6f7567682062616c616e6365210081525060200191505060405180910390fd5b60006001600080866040518082805190602001908083835b60208310610a4c5780518252602082019150602081019050602083039250610a29565b6001836020036101000a038019825116818451168082178552505050505050905001915050908152602001604051809103902060009054906101000a900473ffffffffffffffffffffffffffffffffffffffff1673ffffffffffffffffffffffffffffffffffffffff1673ffffffffffffffffffffffffffffffffffffffff1681526020019081526020016000206001018054600181600116156101000203166002900490501415610b49576040517f08c379a000000000000000000000000000000000000000000000000000000000815260040180806020018281038252603f815260200180613289603f913960400191505060405180910390fd5b81600160003373ffffffffffffffffffffffffffffffffffffffff1673ffffffffffffffffffffffffffffffffffffffff16815260200190815260200160002060020160008282540392505081905550816001600080866040518082805190602001908083835b60208310610bd35780518252602082019150602081019050602083039250610bb0565b6001836020036101000a038019825116818451168082178552505050505050905001915050908152602001604051809103902060009054906101000a900473ffffffffffffffffffffffffffffffffffffffff1673ffffffffffffffffffffffffffffffffffffffff1673ffffffffffffffffffffffffffffffffffffffff168152602001908152602001600020600201600082825401925050819055507ff0b60c507a2e93235b6bed490cd5616aa2f43a849c3d167e96d6c5099b5524e5600160003373ffffffffffffffffffffffffffffffffffffffff1673ffffffffffffffffffffffffffffffffffffffff168152602001908152602001600020600201546040518082815260200191505060405180910390a1505050565b80600073ffffffffffffffffffffffffffffffffffffffff16600160003373ffffffffffffffffffffffffffffffffffffffff1673ffffffffffffffffffffffffffffffffffffffff16815260200190815260200160002060000160009054906101000a900473ffffffffffffffffffffffffffffffffffffffff1673ffffffffffffffffffffffffffffffffffffffff16148015610de457506000600160003373ffffffffffffffffffffffffffffffffffffffff1673ffffffffffffffffffffffffffffffffffffffff168152602001908152602001600020600101805460018160011615610100020316600290049050145b8015610f065750600073ffffffffffffffffffffffffffffffffffffffff166001600080846040518082805190602001908083835b60208310610e3c5780518252602082019150602081019050602083039250610e19565b6001836020036101000a038019825116818451168082178552505050505050905001915050908152602001604051809103902060009054906101000a900473ffffffffffffffffffffffffffffffffffffffff1673ffffffffffffffffffffffffffffffffffffffff1673ffffffffffffffffffffffffffffffffffffffff16815260200190815260200160002060000160009054906101000a900473ffffffffffffffffffffffffffffffffffffffff1673ffffffffffffffffffffffffffffffffffffffff16145b8015610ff0575060006001600080846040518082805190602001908083835b60208310610f485780518252602082019150602081019050602083039250610f25565b6001836020036101000a038019825116818451168082178552505050505050905001915050908152602001604051809103902060009054906101000a900473ffffffffffffffffffffffffffffffffffffffff1673ffffffffffffffffffffffffffffffffffffffff1673ffffffffffffffffffffffffffffffffffffffff168152602001908152602001600020600101805460018160011615610100020316600290049050145b611045576040517f08c379a000000000000000000000000000000000000000000000000000000000815260040180806020018281038252602f81526020018061338d602f913960400191505060405180910390fd5b336000836040518082805190602001908083835b6020831061107c5780518252602082019150602081019050602083039250611059565b6001836020036101000a038019825116818451168082178552505050505050905001915050908152602001604051809103902060006101000a81548173ffffffffffffffffffffffffffffffffffffffff021916908373ffffffffffffffffffffffffffffffffffffffff1602179055506000600160003373ffffffffffffffffffffffffffffffffffffffff1673ffffffffffffffffffffffffffffffffffffffff168152602001908152602001600020905082816001019080519060200190611148929190613111565b50338160000160006101000a81548173ffffffffffffffffffffffffffffffffffffffff021916908373ffffffffffffffffffffffffffffffffffffffff160217905550505050565b6000600160003373ffffffffffffffffffffffffffffffffffffffff1673ffffffffffffffffffffffffffffffffffffffff1681526020019081526020016000206001018054600181600116156101000203166002900490501415611241576040517f08c379a00000000000000000000000000000000000000000000000000000000081526004018080602001828103825260388152602001806131d96038913960400191505060405180910390fd5b8080600160003373ffffffffffffffffffffffffffffffffffffffff1673ffffffffffffffffffffffffffffffffffffffff16815260200190815260200160002060020154116112f9576040517f08c379a000000000000000000000000000000000000000000000000000000000815260040180806020018281038252601f8152602001807f596f7520646f206e6f74206861766520656e6f7567682062616c616e6365210081525060200191505060405180910390fd5b81600160003373ffffffffffffffffffffffffffffffffffffffff1673ffffffffffffffffffffffffffffffffffffffff168152602001908152602001600020600201600082825403925050819055503373ffffffffffffffffffffffffffffffffffffffff166108fc839081150290604051600060405180830381858888f1935050505015801561138f573d6000803e3d6000fd5b507ff0b60c507a2e93235b6bed490cd5616aa2f43a849c3d167e96d6c5099b5524e5600160003373ffffffffffffffffffffffffffffffffffffffff1673ffffffffffffffffffffffffffffffffffffffff168152602001908152602001600020600201546040518082815260200191505060405180910390a15050565b600060096000600854815260200190815260200160002060040154905090565b3373ffffffffffffffffffffffffffffffffffffffff1660096000600854815260200190815260200160002060020160006002811061146857fe5b0160009054906101000a900473ffffffffffffffffffffffffffffffffffffffff1673ffffffffffffffffffffffffffffffffffffffff16148061151c57503373ffffffffffffffffffffffffffffffffffffffff166009600060085481526020019081526020016000206002016001600281106114e257fe5b0160009054906101000a900473ffffffffffffffffffffffffffffffffffffffff1673ffffffffffffffffffffffffffffffffffffffff16145b611571576040517f08c379a00000000000000000000000000000000000000000000000000000000081526004018080602001828103825260228152602001806133046022913960400191505060405180910390fd5b6000600460003373ffffffffffffffffffffffffffffffffffffffff1673ffffffffffffffffffffffffffffffffffffffff16815260200190815260200160002054141561160a576040517f08c379a000000000000000000000000000000000000000000000000000000000815260040180806020018281038252602381526020018061336a6023913960400191505060405180910390fd5b600260055414611665576040517f08c379a000000000000000000000000000000000000000000000000000000000815260040180806020018281038252602e815260200180613211602e913960400191505060405180910390fd5b600060096000600854815260200190815260200160002060060160003373ffffffffffffffffffffffffffffffffffffffff1673ffffffffffffffffffffffffffffffffffffffff1681526020019081526020016000205414611713576040517f08c379a00000000000000000000000000000000000000000000000000000000081526004018080602001828103825260278152602001806132626027913960400191505060405180910390fd5b8060096000600854815260200190815260200160002060060160003373ffffffffffffffffffffffffffffffffffffffff1673ffffffffffffffffffffffffffffffffffffffff16815260200190815260200160002081905550600160066000828254019250508190555060026006541415611793576117916128a7565b505b50565b61179e613191565b600960006008548152602001908152602001600020600201600280602002604051908101604052809291908260028015611823576020028201915b8160009054906101000a900473ffffffffffffffffffffffffffffffffffffffff1673ffffffffffffffffffffffffffffffffffffffff16815260200190600101908083116117d9575b5050505050905090565b600060096000600854815260200190815260200160002060010154905090565b600080600080600080905060008090505b60028110156119345760096000600160003373ffffffffffffffffffffffffffffffffffffffff1673ffffffffffffffffffffffffffffffffffffffff16815260200190815260200160002060040154815260200190815260200160002060020181600281106118ca57fe5b0160009054906101000a900473ffffffffffffffffffffffffffffffffffffffff1673ffffffffffffffffffffffffffffffffffffffff163373ffffffffffffffffffffffffffffffffffffffff16141561192757809150611934565b808060010191505061185e565b5060096000600160003373ffffffffffffffffffffffffffffffffffffffff1673ffffffffffffffffffffffffffffffffffffffff1681526020019081526020016000206004015481526020019081526020016000206000015460096000600160003373ffffffffffffffffffffffffffffffffffffffff1673ffffffffffffffffffffffffffffffffffffffff1681526020019081526020016000206004015481526020019081526020016000206004015460096000600160003373ffffffffffffffffffffffffffffffffffffffff1673ffffffffffffffffffffffffffffffffffffffff1681526020019081526020016000206004015481526020019081526020016000205060028394509450945094505090919293565b6000600160003373ffffffffffffffffffffffffffffffffffffffff1673ffffffffffffffffffffffffffffffffffffffff1681526020019081526020016000206001018054600181600116156101000203166002900490501415611aff576040517f08c379a00000000000000000000000000000000000000000000000000000000081526004018080602001828103825260388152602001806131d96038913960400191505060405180910390fd5b8080600160003373ffffffffffffffffffffffffffffffffffffffff1673ffffffffffffffffffffffffffffffffffffffff1681526020019081526020016000206002015411611bb7576040517f08c379a000000000000000000000000000000000000000000000000000000000815260040180806020018281038252601f8152602001807f596f7520646f206e6f74206861766520656e6f7567682062616c616e6365210081525060200191505060405180910390fd5b6000600160008573ffffffffffffffffffffffffffffffffffffffff1673ffffffffffffffffffffffffffffffffffffffff1681526020019081526020016000206001018054600181600116156101000203166002900490501415611c67576040517f08c379a000000000000000000000000000000000000000000000000000000000815260040180806020018281038252603f815260200180613289603f913960400191505060405180910390fd5b81600160003373ffffffffffffffffffffffffffffffffffffffff1673ffffffffffffffffffffffffffffffffffffffff1681526020019081526020016000206002016000828254039250508190555081600160008573ffffffffffffffffffffffffffffffffffffffff1673ffffffffffffffffffffffffffffffffffffffff168152602001908152602001600020600201600082825401925050819055507ff0b60c507a2e93235b6bed490cd5616aa2f43a849c3d167e96d6c5099b5524e5600160003373ffffffffffffffffffffffffffffffffffffffff1673ffffffffffffffffffffffffffffffffffffffff168152602001908152602001600020600201546040518082815260200191505060405180910390a1505050565b600080600160003373ffffffffffffffffffffffffffffffffffffffff1673ffffffffffffffffffffffffffffffffffffffff1681526020019081526020016000206001018054600181600116156101000203166002900490501415611e36576040517f08c379a00000000000000000000000000000000000000000000000000000000081526004018080602001828103825260388152602001806131d96038913960400191505060405180910390fd5b600160003373ffffffffffffffffffffffffffffffffffffffff1673ffffffffffffffffffffffffffffffffffffffff16815260200190815260200160002060020154905090565b6000600160003373ffffffffffffffffffffffffffffffffffffffff1673ffffffffffffffffffffffffffffffffffffffff1681526020019081526020016000206001018054600181600116156101000203166002900490501415611f2e576040517f08c379a00000000000000000000000000000000000000000000000000000000081526004018080602001828103825260388152602001806131d96038913960400191505060405180910390fd5b34600160003373ffffffffffffffffffffffffffffffffffffffff1673ffffffffffffffffffffffffffffffffffffffff168152602001908152602001600020600201600082825401925050819055507ff0b60c507a2e93235b6bed490cd5616aa2f43a849c3d167e96d6c5099b5524e5600160003373ffffffffffffffffffffffffffffffffffffffff1673ffffffffffffffffffffffffffffffffffffffff168152602001908152602001600020600201546040518082815260200191505060405180910390a1565b6001600960006008548152602001908152602001600020600101541461206a576040517f08c379a000000000000000000000000000000000000000000000000000000000815260040180806020018281038252603c8152602001806132c8603c913960400191505060405180910390fd5b60096000600854815260200190815260200160002060040154600160003373ffffffffffffffffffffffffffffffffffffffff1673ffffffffffffffffffffffffffffffffffffffff16815260200190815260200160002060020154101561211d576040517f08c379a000000000000000000000000000000000000000000000000000000000815260040180806020018281038252602381526020018061323f6023913960400191505060405180910390fd5b3373ffffffffffffffffffffffffffffffffffffffff1660096000600854815260200190815260200160002060020160006002811061215857fe5b0160009054906101000a900473ffffffffffffffffffffffffffffffffffffffff1673ffffffffffffffffffffffffffffffffffffffff161415612204576040517f08c379a000000000000000000000000000000000000000000000000000000000815260040180806020018281038252601d8152602001807f596f752061726520616c726561647920696e20746869732067616d652100000081525060200191505060405180910390fd5b3360096000600854815260200190815260200160002060020160016002811061222957fe5b0160006101000a81548173ffffffffffffffffffffffffffffffffffffffff021916908373ffffffffffffffffffffffffffffffffffffffff16021790555060096000600854815260200190815260200160002060040154600160003373ffffffffffffffffffffffffffffffffffffffff1673ffffffffffffffffffffffffffffffffffffffff1681526020019081526020016000206002016000828254039250508190555060096000600854815260200190815260200160002060040154600260010160008282540192505081905550600260096000600854815260200190815260200160002060010181905550565b60003373ffffffffffffffffffffffffffffffffffffffff1660096000600854815260200190815260200160002060020160006002811061235857fe5b0160009054906101000a900473ffffffffffffffffffffffffffffffffffffffff1673ffffffffffffffffffffffffffffffffffffffff16148061240c57503373ffffffffffffffffffffffffffffffffffffffff166009600060085481526020019081526020016000206002016001600281106123d257fe5b0160009054906101000a900473ffffffffffffffffffffffffffffffffffffffff1673ffffffffffffffffffffffffffffffffffffffff16145b612461576040517f08c379a00000000000000000000000000000000000000000000000000000000081526004018080602001828103825260228152602001806133046022913960400191505060405180910390fd5b600760009054906101000a900460ff16905090565b600060096000600854815260200190815260200160002060010154146124e7576040517f08c379a00000000000000000000000000000000000000000000000000000000081526004018080602001828103825260448152602001806133266044913960600191505060405180910390fd5b80600160003373ffffffffffffffffffffffffffffffffffffffff1673ffffffffffffffffffffffffffffffffffffffff168152602001908152602001600020600201541015612582576040517f08c379a000000000000000000000000000000000000000000000000000000000815260040180806020018281038252602381526020018061323f6023913960400191505060405180910390fd5b60006009600060085481526020019081526020016000209050600854816000018190555033816002016000600281106125b757fe5b0160006101000a81548173ffffffffffffffffffffffffffffffffffffffff021916908373ffffffffffffffffffffffffffffffffffffffff16021790555081816004018190555081600160003373ffffffffffffffffffffffffffffffffffffffff1673ffffffffffffffffffffffffffffffffffffffff16815260200190815260200160002060020160008282540392505081905550816002600101600082825401925050819055506001600960006008548152602001908152602001600020600101819055505050565b60606000600160003373ffffffffffffffffffffffffffffffffffffffff1673ffffffffffffffffffffffffffffffffffffffff168152602001908152602001600020600101805460018160011615610100020316600290049050146127c657600160003373ffffffffffffffffffffffffffffffffffffffff1673ffffffffffffffffffffffffffffffffffffffff1681526020019081526020016000206001018054600181600116156101000203166002900480601f0160208091040260200160405190810160405280929190818152602001828054600181600116156101000203166002900480156127ba5780601f1061278f576101008083540402835291602001916127ba565b820191906000526020600020905b81548152906001019060200180831161279d57829003601f168201915b505050505090506128a4565b600160003373ffffffffffffffffffffffffffffffffffffffff1673ffffffffffffffffffffffffffffffffffffffff1681526020019081526020016000206001018054600181600116156101000203166002900480601f01602080910402602001604051908101604052809291908181526020018280546001816001161561010002031660029004801561289c5780601f106128715761010080835404028352916020019161289c565b820191906000526020600020905b81548152906001019060200180831161287f57829003601f168201915b505050505090505b90565b6000806128b2612b00565b1415612ae85760006002806128c357fe5b600960006008548152602001908152602001600020600601600060096000600854815260200190815260200160002060020160016002811061290157fe5b0160009054906101000a900473ffffffffffffffffffffffffffffffffffffffff1673ffffffffffffffffffffffffffffffffffffffff1673ffffffffffffffffffffffffffffffffffffffff16815260200190815260200160002054600960006008548152602001908152602001600020600601600060096000600854815260200190815260200160002060020160006002811061299c57fe5b0160009054906101000a900473ffffffffffffffffffffffffffffffffffffffff1673ffffffffffffffffffffffffffffffffffffffff1673ffffffffffffffffffffffffffffffffffffffff168152602001908152602001600020540890506009600060085481526020019081526020016000206002018160028110612a1f57fe5b0160009054906101000a900473ffffffffffffffffffffffffffffffffffffffff1660096000600854815260200190815260200160002060050160006101000a81548173ffffffffffffffffffffffffffffffffffffffff021916908373ffffffffffffffffffffffffffffffffffffffff160217905550612a9f612c7b565b612aa7612d45565b60096000600854815260200190815260200160002060050160009054906101000a900473ffffffffffffffffffffffffffffffffffffffff16915050612afd565b612af0612fc0565b612af8612d45565b600090505b90565b6000806000905060008090505b6002811015612c735760096000600854815260200190815260200160002060060160006009600060085481526020019081526020016000206002018360028110612b5357fe5b0160009054906101000a900473ffffffffffffffffffffffffffffffffffffffff1673ffffffffffffffffffffffffffffffffffffffff1673ffffffffffffffffffffffffffffffffffffffff168152602001908152602001600020546040516020018082815260200191505060405160208183030381529060405280519060200120600460006009600060085481526020019081526020016000206002018460028110612bfd57fe5b0160009054906101000a900473ffffffffffffffffffffffffffffffffffffffff1673ffffffffffffffffffffffffffffffffffffffff1673ffffffffffffffffffffffffffffffffffffffff1681526020019081526020016000205414612c66576001820191505b8080600101915050612b0d565b508091505090565b6005606460026001015481612c8c57fe5b0402600260000160008282540192505081905550605f606460026001015481612cb157fe5b04026001600060096000600854815260200190815260200160002060050160009054906101000a900473ffffffffffffffffffffffffffffffffffffffff1673ffffffffffffffffffffffffffffffffffffffff1673ffffffffffffffffffffffffffffffffffffffff16815260200190815260200160002060020160008282540192505081905550600260010160009055565b60036009600060085481526020019081526020016000206001018190555060085460016000600960006008548152602001908152602001600020600201600060028110612d8e57fe5b0160009054906101000a900473ffffffffffffffffffffffffffffffffffffffff1673ffffffffffffffffffffffffffffffffffffffff1673ffffffffffffffffffffffffffffffffffffffff1681526020019081526020016000206004018190555060085460016000600960006008548152602001908152602001600020600201600160028110612e1c57fe5b0160009054906101000a900473ffffffffffffffffffffffffffffffffffffffff1673ffffffffffffffffffffffffffffffffffffffff1673ffffffffffffffffffffffffffffffffffffffff16815260200190815260200160002060040181905550600760006101000a81549060ff021916905560056000905560066000905560046000600960006008548152602001908152602001600020600201600060028110612ec557fe5b0160009054906101000a900473ffffffffffffffffffffffffffffffffffffffff1673ffffffffffffffffffffffffffffffffffffffff1673ffffffffffffffffffffffffffffffffffffffff1681526020019081526020016000206000905560046000600960006008548152602001908152602001600020600201600160028110612f4d57fe5b0160009054906101000a900473ffffffffffffffffffffffffffffffffffffffff1673ffffffffffffffffffffffffffffffffffffffff1673ffffffffffffffffffffffffffffffffffffffff168152602001908152602001600020600090556001600860008282540192505081905550565b6002806001015481612fce57fe5b0460016000600960006008548152602001908152602001600020600201600060028110612ff757fe5b0160009054906101000a900473ffffffffffffffffffffffffffffffffffffffff1673ffffffffffffffffffffffffffffffffffffffff1673ffffffffffffffffffffffffffffffffffffffff16815260200190815260200160002060020160008282540192505081905550600280600101548161307157fe5b046001600060096000600854815260200190815260200160002060020160016002811061309a57fe5b0160009054906101000a900473ffffffffffffffffffffffffffffffffffffffff1673ffffffffffffffffffffffffffffffffffffffff1673ffffffffffffffffffffffffffffffffffffffff16815260200190815260200160002060020160008282540192505081905550600260010160009055565b828054600181600116156101000203166002900490600052602060002090601f016020900481019282601f1061315257805160ff1916838001178555613180565b82800160010185558215613180579182015b8281111561317f578251825591602001919060010190613164565b5b50905061318d91906131b3565b5090565b6040518060400160405280600290602082028038833980820191505090505090565b6131d591905b808211156131d15760008160009055506001016131b9565b5090565b9056fe596f7572206164647265737320686173206e6f742072656769737465726564207965742120506c6561736520636865636b20616761696e2e4e6f7420616c6c20706c61796572732068617665207375626d69747465642074686520686173682076616c756521596f7520646f206e6f7420686176652073756666696369656e742062616c616e63652e596f75206861766520616c7265616479207375626d697474656420796f757220726573756c742e5468652074617267657420616464726573732068617665206e6f742072656769737465726564207965742120506c6561736520636865636b20616761696e2e5468657265206973206e6f2067616d652077616974696e6720666f7220706c617965722c20706c6561736520696e69746961746520612067616d6521596f7520617265206e6f7420656e726f6c6c656420696e20746869732067616d6521546865726520697320612067616d652077616974696e6720666f7220706c617965722c20796f752063616e6e6f742073746172742061206e65772067616d65206e6f7721596f752068617665206e6f74207375626d697420686173682076616c7565207965742e54686520616464726573732f6163636f756e74204944206861766520616c7265616479207265676973746572656421a265627a7a72315820d311c05a8ba48fa62438f82bd6eebf39925b209604e1b27b7735e0ab4888c16664736f6c63430005100032",
  "source": "pragma solidity >=0.4.21 <0.7.0;\n\nimport \"./Account.sol\";\n\ncontract CoinFlip is Account{\n    /**\n     * Struct for Banker, which should contain the balance and temporary deposit for the current game.\n     */\n    struct Banker {\n        uint balance;\n        uint gameDeposit;\n    }\n    /// Initialize the banker\n    Banker banker = Banker({\n        balance: 0,\n        gameDeposit: 0\n    });\n\n    /**\n     * Players need to submit the hash values of their clear text before revealing\n     * As these value are not stored permanently, they will be deleted after each round\n     * @notice the value are deleted in houseCleaning() function\n     */\n    mapping (address => bytes32) submittedHashValue;\n    /// If the submitHashCount and submitClearTextCount reach 2, the next step will be processed automatically\n    uint submitHashCount = 0;\n    uint submitClearTextCount = 0;\n    /// The front-end will read this value to determine when the user can reveal the clear text.\n    bool bothSubmitHash = false;\n\n    /**\n     * Struct for Game\n     * @param gameID the self-increasing ID of the game, the gameID will increase by 1 in each round\n     * @param status the status of the game. 0: not started, 1: waiting for participant, 2: in process, 3: finished\n     * @param player the players participating in the game\n     * @param betValue provided by the first player initializing the game\n     * @param winner the winner of this round\n     * @param submittedClearText the submitted clear text value for each user\n     */\n    struct Game {\n        uint ID;\n        uint status;\n        address[2] player;\n        uint betValue;\n        address winner;\n        mapping (address => uint) submittedClearText;\n    }\n\n    /// Self-increasing gameID counter\n    uint gameID = 1;\n    /// gameID => Game struct mapping\n    mapping (uint => Game) gameHistory;\n\n    function currentGameStatus() external view returns (uint) {\n        return gameHistory[gameID].status;\n    }\n\n    /**\n     * Initialize a game\n     * a game struct will be initialize and the betValue will be move from player's balance to banker's\n     * @param betValue only the player who initialize the game can set the betValue\n     *                 the participant can only accept it or wait until the game ends\n     * @notice once the game is initialized, the currentWaiting will be true,\n     *         and the front-end will not allow user to start a new game, they can only join the current one or wait.\n     */\n    function initializeGame(uint betValue) external {\n        require(gameHistory[gameID].status == 0, \"There is a game waiting for player, you cannot start a new game now!\");\n        require(userList[msg.sender].balance >= betValue, \"You do not have sufficient balance.\");\n        Game storage game = gameHistory[gameID];\n        game.ID = gameID;\n        game.player[0] = msg.sender;\n        game.betValue = betValue;\n\n        userList[msg.sender].balance -= betValue;\n        banker.gameDeposit += betValue;\n\n        gameHistory[gameID].status = 1;\n    }\n\n    /**\n     * If there is an on-going game, the user can join it.\n     * Once the new player join the game, the betValue will be deducted and transfer to the banker.\n     */\n    function joinGame() external {\n        require(gameHistory[gameID].status == 1, \"There is no game waiting for player, please initiate a game!\");\n        require(userList[msg.sender].balance >= gameHistory[gameID].betValue, \"You do not have sufficient balance.\");\n        // The player initialize the game cannot join it twice.\n        require(gameHistory[gameID].player[0] != msg.sender, \"You are already in this game!\");\n\n        gameHistory[gameID].player[1] = msg.sender;\n\n        userList[msg.sender].balance -= gameHistory[gameID].betValue;\n        banker.gameDeposit += gameHistory[gameID].betValue;\n\n        gameHistory[gameID].status = 2;\n    }\n\n    /**\n     * Only the enrolled players can use the command in the game.\n     */\n    modifier enrolledPlayer {\n        require(\n            gameHistory[gameID].player[0] == msg.sender || gameHistory[gameID].player[1] == msg.sender,\n            \"You are not enrolled in this game!\"\n        );\n        _;\n    }\n\n    /**\n     * @return current participants in this round\n     */\n    function currentInGamePlayer() external view returns (address[2] memory) {\n        return gameHistory[gameID].player;\n    }\n\n    /**\n     * @return bet value for current round\n     */\n    function currentGameBetValue() external view returns (uint) {\n        return gameHistory[gameID].betValue;\n    }\n\n    /**\n     * Players submit their hash values through this function.\n     * @param hashValue each player submit the hash value generated from their clear text.\n     * @dev once both players submit their hash values, the bothSubmitHash will be true,\n     *      and the player can reveal their clear text.\n     */\n    function submitHash(bytes32 hashValue) external enrolledPlayer {\n        // Require the game has started.\n        require(gameHistory[gameID].status == 2, \"The game status is wrong!\");\n        // Once the player submit the value, he/she cannot modify it.\n        require(submittedHashValue[msg.sender] == \"\", \"You have already submitted your result.\");\n\n        submittedHashValue[msg.sender] = hashValue;\n        submitHashCount += 1;\n\n        if (submitHashCount == 2) {\n            bothSubmitHash = true;\n        }\n    }\n\n    /**\n     * Make sure the submitted hash value and clear text match.\n     */\n    function validate() private view returns (uint) {\n        uint cheaterCount = 0;\n        for (uint i = 0; i < 2; i++) {\n            if (submittedHashValue[gameHistory[gameID].player[i]] != keccak256(abi.encodePacked(gameHistory[gameID].submittedClearText[gameHistory[gameID].player[i]]))) {\n                cheaterCount += 1;\n            }\n        }\n        return cheaterCount;\n    }\n\n    /**\n     * If one or more players are detected cheating, this round will be invalid.\n     * The money will be given back to the players.\n     */\n    function detectCheating() private {\n        userList[gameHistory[gameID].player[0]].balance += banker.gameDeposit / 2;\n        userList[gameHistory[gameID].player[1]].balance += banker.gameDeposit / 2;\n\n        delete banker.gameDeposit;\n    }\n\n    /**\n     * If there is not cheaters found, the banker will find the winner.\n     * After find the winner or detect cheating, the houseCleaning() will start.\n     * @notice the player who initialize the game will always choose the mod == 0.\n     */\n    function findWinner() private returns (address) {\n        if (validate() == 0) {\n            uint mod = addmod(gameHistory[gameID].submittedClearText[gameHistory[gameID].player[0]], gameHistory[gameID].submittedClearText[gameHistory[gameID].player[1]], 2);\n            // Choose the winner\n            gameHistory[gameID].winner = gameHistory[gameID].player[mod];\n            // Transfer balance to the winner\n            balanceTransfer();\n            houseCleaning();\n            return gameHistory[gameID].winner;\n        } else {\n            detectCheating();\n            houseCleaning();\n            return address(0);\n        }\n    }\n\n    /**\n     * Transfer 95% of the temporary gameDeposit to the winner, 5% to the banker.\n     * @dev To cut down the fee, transfer the balance within the contract, rather than directly to winner's address.\n     */\n    function balanceTransfer() private {\n        banker.balance += banker.gameDeposit / 100 * 5;\n        userList[gameHistory[gameID].winner].balance += banker.gameDeposit / 100 * 95;\n\n        delete banker.gameDeposit;\n    }\n\n    /**\n     * Function for players to submit their clear text values.\n     * Once 2 players submitted the clear text values, teh findWinner process will start.\n     * @param randomNumber the automatically generated randomNumber for the player.\n     */\n    function submitClearText(uint randomNumber) external enrolledPlayer {\n        // Submit hash value before submiting clear text.\n        require(submittedHashValue[msg.sender] != \"\", \"You have not submit hash value yet.\");\n        // Clear text can only be submitted until all players submit the hash value.\n        require(submitHashCount == 2, \"Not all players have submitted the hash value!\");\n        // Prevent modification.\n        require(gameHistory[gameID].submittedClearText[msg.sender] == 0, \"You have already submitted your result.\");\n\n        gameHistory[gameID].submittedClearText[msg.sender] = randomNumber;\n        submitClearTextCount += 1;\n\n        if (submitClearTextCount == 2) {\n            findWinner();\n        }\n    }\n\n    /**\n     * @dev prepare for the JavaScript to check whether all players have submitted the hash value.\n     */\n    function bothSubmitHashCheck() external view enrolledPlayer returns (bool){\n        return bothSubmitHash;\n    }\n\n    /**\n     * @return ID of last game\n     * @return bet value of last game\n     * @return total player number of last game\n     * @return index of the msg.sender\n     */\n    function lastGameHistory() external view returns (uint, uint, uint, uint) {\n        uint userIndex = 0;\n        for (uint i = 0; i < 2; i++) {\n            if (msg.sender == gameHistory[userList[msg.sender].lastGameID].player[i]) {\n                userIndex = i;\n                break;\n            }\n        }\n        return (\n            gameHistory[userList[msg.sender].lastGameID].ID,\n            gameHistory[userList[msg.sender].lastGameID].betValue,\n            gameHistory[userList[msg.sender].lastGameID].player.length,\n            userIndex\n        );\n    }\n\n    /**\n     * House cleaning process to release resources and prepare for the next round.\n     */\n    function houseCleaning() private {\n        gameHistory[gameID].status = 3;\n\n        userList[gameHistory[gameID].player[0]].lastGameID = gameID;\n        userList[gameHistory[gameID].player[1]].lastGameID = gameID;\n\n        delete bothSubmitHash;\n        delete submitHashCount;\n        delete submitClearTextCount;\n\n        // Clear submitted hash value\n        delete submittedHashValue[gameHistory[gameID].player[0]];\n        delete submittedHashValue[gameHistory[gameID].player[1]];\n\n        gameID += 1;\n    }\n}\n",
  "sourcePath": "/Users/blanker/Documents/Codings/DApp/CoinFlipping/contracts/CoinFlip.sol",
  "compiler": {
    "name": "solc",
    "version": "0.5.16+commit.9c3226ce.Emscripten.clang"
  },
  "schemaVersion": "3.0.23",
  "updatedAt": "2020-04-24T15:51:29.187Z",
  "networkType": "ethereum",
  "devdoc": {
    "methods": {
      "bothSubmitHashCheck()": {
        "details": "prepare for the JavaScript to check whether all players have submitted the hash value."
      },
      "createAccount(string)": {
        "params": {
          "accountToRegister": "The account ID the user would like to use."
        }
      },
      "currentGameBetValue()": {
        "return": "bet value for current round"
      },
      "currentInGamePlayer()": {
        "return": "current participants in this round"
      },
      "initializeGame(uint256)": {
        "params": {
          "betValue": "only the player who initialize the game can set the betValue                the participant can only accept it or wait until the game ends"
        }
      },
      "lastGameHistory()": {
        "return": "ID of last gamebet value of last gametotal player number of last gameindex of the msg.sender"
      },
      "submitClearText(uint256)": {
        "params": {
          "randomNumber": "the automatically generated randomNumber for the player."
        }
      },
      "submitHash(bytes32)": {
        "details": "once both players submit their hash values, the bothSubmitHash will be true,     and the player can reveal their clear text.",
        "params": {
          "hashValue": "each player submit the hash value generated from their clear text."
        }
      },
      "transferToAddress(address,uint256)": {
        "params": {
          "amount": "The amount of balance to transfer to the target registered user.",
          "toAddress": "The address of the target registered user to transfer balance to."
        }
      },
      "transferToID(string,uint256)": {
        "params": {
          "amount": "The amount of balance to transfer to the target registered user.",
          "toAccountID": "The accountID of the target registered user to transfer balance to."
        }
      },
      "withdraw(uint256)": {
        "params": {
          "amount": "The amount of balance to withdraw."
        }
      }
    }
  },
  "userdoc": {
    "methods": {
      "checkBalance()": {
        "notice": "Show the balance."
      },
      "deposit()": {
        "notice": "User deposit the money to the contract, and the contract will give him a \"virtual\" balance, similar to deposit fiat money to bank."
      },
      "initializeGame(uint256)": {
        "notice": "Initialize a game a game struct will be initialize and the betValue will be move from player's balance to banker'sonce the game is initialized, the currentWaiting will be true,        and the front-end will not allow user to start a new game, they can only join the current one or wait."
      },
      "joinGame()": {
        "notice": "If there is an on-going game, the user can join it. Once the new player join the game, the betValue will be deducted and transfer to the banker."
      },
      "submitClearText(uint256)": {
        "notice": "Function for players to submit their clear text values. Once 2 players submitted the clear text values, teh findWinner process will start."
      },
      "submitHash(bytes32)": {
        "notice": "Players submit their hash values through this function."
      },
      "transferToAddress(address,uint256)": {
        "notice": "User transfer his/her deposit to another registered user with the address."
      },
      "transferToID(string,uint256)": {
        "notice": "User transfer his/her deposit to another registered user with the accountID."
      },
      "withdraw(uint256)": {
        "notice": "Withdraw the balance from the contract, get the token back to his/her ethureum address."
      }
    }
  }
}