{
  "contractName": "Account",
  "abi": [
    {
      "constant": true,
      "inputs": [
        {
          "internalType": "uint256",
          "name": "targetTransactionID",
          "type": "uint256"
        }
      ],
      "name": "transactionCheck",
      "outputs": [
        {
          "internalType": "uint256",
          "name": "_id",
          "type": "uint256"
        },
        {
          "internalType": "string",
          "name": "_type",
          "type": "string"
        },
        {
          "internalType": "uint256",
          "name": "_time",
          "type": "uint256"
        },
        {
          "internalType": "string",
          "name": "_from",
          "type": "string"
        },
        {
          "internalType": "string",
          "name": "_to",
          "type": "string"
        },
        {
          "internalType": "uint256",
          "name": "_amount",
          "type": "uint256"
        }
      ],
      "payable": false,
      "stateMutability": "view",
      "type": "function"
    },
    {
      "constant": true,
      "inputs": [],
      "name": "userTransactionArrayCheck",
      "outputs": [
        {
          "internalType": "uint256[]",
          "name": "",
          "type": "uint256[]"
        }
      ],
      "payable": false,
      "stateMutability": "view",
      "type": "function"
    },
    {
      "constant": false,
      "inputs": [
        {
          "internalType": "string",
          "name": "accountToRegister",
          "type": "string"
        }
      ],
      "name": "createAccount",
      "outputs": [],
      "payable": false,
      "stateMutability": "nonpayable",
      "type": "function"
    },
    {
      "constant": true,
      "inputs": [],
      "name": "checkRegistration",
      "outputs": [
        {
          "internalType": "string",
          "name": "",
          "type": "string"
        }
      ],
      "payable": false,
      "stateMutability": "view",
      "type": "function"
    },
    {
      "constant": false,
      "inputs": [],
      "name": "deposit",
      "outputs": [],
      "payable": true,
      "stateMutability": "payable",
      "type": "function"
    },
    {
      "constant": false,
      "inputs": [
        {
          "internalType": "address",
          "name": "toAddress",
          "type": "address"
        },
        {
          "internalType": "uint256",
          "name": "amount",
          "type": "uint256"
        }
      ],
      "name": "transferToAddress",
      "outputs": [],
      "payable": false,
      "stateMutability": "nonpayable",
      "type": "function"
    },
    {
      "constant": false,
      "inputs": [
        {
          "internalType": "string",
          "name": "toAccountID",
          "type": "string"
        },
        {
          "internalType": "uint256",
          "name": "amount",
          "type": "uint256"
        }
      ],
      "name": "transferToID",
      "outputs": [],
      "payable": false,
      "stateMutability": "nonpayable",
      "type": "function"
    },
    {
      "constant": false,
      "inputs": [
        {
          "internalType": "uint256",
          "name": "amount",
          "type": "uint256"
        }
      ],
      "name": "withdraw",
      "outputs": [],
      "payable": true,
      "stateMutability": "payable",
      "type": "function"
    },
    {
      "constant": true,
      "inputs": [],
      "name": "checkBalance",
      "outputs": [
        {
          "internalType": "uint256",
          "name": "balance",
          "type": "uint256"
        }
      ],
      "payable": false,
      "stateMutability": "view",
      "type": "function"
    }
  ],
  "bytecode": "0x6080604052600160005534801561001557600080fd5b506123c8806100256000396000f3fe6080604052600436106100865760003560e01c8063795fc60c11610059578063795fc60c146103f4578063acef603714610460578063c71daccb146104bb578063d0e30db0146104e6578063fd1b2100146104f057610086565b80630c41bda81461008b578063298daf5b1461015d5780632e1a7d4d146102255780634b6f3a8614610253575b600080fd5b34801561009757600080fd5b5061015b600480360360408110156100ae57600080fd5b81019080803590602001906401000000008111156100cb57600080fd5b8201836020820111156100dd57600080fd5b803590602001918460018302840111640100000000831117156100ff57600080fd5b91908080601f016020809104026020016040519081016040528093929190818152602001838380828437600081840152601f19601f82011690508083019250505050505050919291929080359060200190929190505050610580565b005b34801561016957600080fd5b506102236004803603602081101561018057600080fd5b810190808035906020019064010000000081111561019d57600080fd5b8201836020820111156101af57600080fd5b803590602001918460018302840111640100000000831117156101d157600080fd5b91908080601f016020809104026020016040519081016040528093929190818152602001838380828437600081840152601f19601f820116905080830192505050505050509192919290505050610a6a565b005b6102516004803603602081101561023b57600080fd5b8101908080359060200190929190505050610f0e565b005b34801561025f57600080fd5b5061028c6004803603602081101561027657600080fd5b8101908080359060200190929190505050611261565b60405180878152602001806020018681526020018060200180602001858152602001848103845289818151815260200191508051906020019080838360005b838110156102e65780820151818401526020810190506102cb565b50505050905090810190601f1680156103135780820380516001836020036101000a031916815260200191505b50848103835287818151815260200191508051906020019080838360005b8381101561034c578082015181840152602081019050610331565b50505050905090810190601f1680156103795780820380516001836020036101000a031916815260200191505b50848103825286818151815260200191508051906020019080838360005b838110156103b2578082015181840152602081019050610397565b50505050905090810190601f1680156103df5780820380516001836020036101000a031916815260200191505b50995050505050505050505060405180910390f35b34801561040057600080fd5b506104096114d5565b6040518080602001828103825283818151815260200191508051906020019060200280838360005b8381101561044c578082015181840152602081019050610431565b505050509050019250505060405180910390f35b34801561046c57600080fd5b506104b96004803603604081101561048357600080fd5b81019080803573ffffffffffffffffffffffffffffffffffffffff1690602001909291908035906020019092919050505061156d565b005b3480156104c757600080fd5b506104d0611a1f565b6040518082815260200191505060405180910390f35b6104ee611b18565b005b3480156104fc57600080fd5b50610505611d6a565b6040518080602001828103825283818151815260200191508051906020019080838360005b8381101561054557808201518184015260208101905061052a565b50505050905090810190601f1680156105725780820380516001836020036101000a031916815260200191505b509250505060405180910390f35b6000600360003373ffffffffffffffffffffffffffffffffffffffff1673ffffffffffffffffffffffffffffffffffffffff1681526020019081526020016000206001018054600181600116156101000203166002900490501415610630576040517f08c379a00000000000000000000000000000000000000000000000000000000081526004018080602001828103825260388152602001806122ee6038913960400191505060405180910390fd5b8080600360003373ffffffffffffffffffffffffffffffffffffffff1673ffffffffffffffffffffffffffffffffffffffff16815260200190815260200160002060020154116106e8576040517f08c379a000000000000000000000000000000000000000000000000000000000815260040180806020018281038252601f8152602001807f596f7520646f206e6f74206861766520656e6f7567682062616c616e6365210081525060200191505060405180910390fd5b6000600360006002866040518082805190602001908083835b602083106107245780518252602082019150602081019050602083039250610701565b6001836020036101000a038019825116818451168082178552505050505050905001915050908152602001604051809103902060009054906101000a900473ffffffffffffffffffffffffffffffffffffffff1673ffffffffffffffffffffffffffffffffffffffff1673ffffffffffffffffffffffffffffffffffffffff1681526020019081526020016000206001018054600181600116156101000203166002900490501415610821576040517f08c379a000000000000000000000000000000000000000000000000000000000815260040180806020018281038252603f815260200180612326603f913960400191505060405180910390fd5b81600360003373ffffffffffffffffffffffffffffffffffffffff1673ffffffffffffffffffffffffffffffffffffffff1681526020019081526020016000206002016000828254039250508190555081600360006002866040518082805190602001908083835b602083106108ac5780518252602082019150602081019050602083039250610889565b6001836020036101000a038019825116818451168082178552505050505050905001915050908152602001604051809103902060009054906101000a900473ffffffffffffffffffffffffffffffffffffffff1673ffffffffffffffffffffffffffffffffffffffff1673ffffffffffffffffffffffffffffffffffffffff16815260200190815260200160002060020160008282540192505081905550610a65600360003373ffffffffffffffffffffffffffffffffffffffff1673ffffffffffffffffffffffffffffffffffffffff1681526020019081526020016000206001018054600181600116156101000203166002900480601f016020809104026020016040519081016040528092919081815260200182805460018160011615610100020316600290048015610a235780601f106109f857610100808354040283529160200191610a23565b820191906000526020600020905b815481529060010190602001808311610a0657829003601f168201915b505050505084846040518060400160405280600881526020017f5472616e73666572000000000000000000000000000000000000000000000000815250611f8d565b505050565b80600073ffffffffffffffffffffffffffffffffffffffff16600360003373ffffffffffffffffffffffffffffffffffffffff1673ffffffffffffffffffffffffffffffffffffffff16815260200190815260200160002060000160009054906101000a900473ffffffffffffffffffffffffffffffffffffffff1673ffffffffffffffffffffffffffffffffffffffff16148015610b5f57506000600360003373ffffffffffffffffffffffffffffffffffffffff1673ffffffffffffffffffffffffffffffffffffffff168152602001908152602001600020600101805460018160011615610100020316600290049050145b8015610c825750600073ffffffffffffffffffffffffffffffffffffffff16600360006002846040518082805190602001908083835b60208310610bb85780518252602082019150602081019050602083039250610b95565b6001836020036101000a038019825116818451168082178552505050505050905001915050908152602001604051809103902060009054906101000a900473ffffffffffffffffffffffffffffffffffffffff1673ffffffffffffffffffffffffffffffffffffffff1673ffffffffffffffffffffffffffffffffffffffff16815260200190815260200160002060000160009054906101000a900473ffffffffffffffffffffffffffffffffffffffff1673ffffffffffffffffffffffffffffffffffffffff16145b8015610d6d57506000600360006002846040518082805190602001908083835b60208310610cc55780518252602082019150602081019050602083039250610ca2565b6001836020036101000a038019825116818451168082178552505050505050905001915050908152602001604051809103902060009054906101000a900473ffffffffffffffffffffffffffffffffffffffff1673ffffffffffffffffffffffffffffffffffffffff1673ffffffffffffffffffffffffffffffffffffffff168152602001908152602001600020600101805460018160011615610100020316600290049050145b610dc2576040517f08c379a000000000000000000000000000000000000000000000000000000000815260040180806020018281038252602f815260200180612365602f913960400191505060405180910390fd5b336002836040518082805190602001908083835b60208310610df95780518252602082019150602081019050602083039250610dd6565b6001836020036101000a038019825116818451168082178552505050505050905001915050908152602001604051809103902060006101000a81548173ffffffffffffffffffffffffffffffffffffffff021916908373ffffffffffffffffffffffffffffffffffffffff1602179055506000600360003373ffffffffffffffffffffffffffffffffffffffff1673ffffffffffffffffffffffffffffffffffffffff168152602001908152602001600020905082816001019080519060200190610ec5929190612212565b50338160000160006101000a81548173ffffffffffffffffffffffffffffffffffffffff021916908373ffffffffffffffffffffffffffffffffffffffff160217905550505050565b6000600360003373ffffffffffffffffffffffffffffffffffffffff1673ffffffffffffffffffffffffffffffffffffffff1681526020019081526020016000206001018054600181600116156101000203166002900490501415610fbe576040517f08c379a00000000000000000000000000000000000000000000000000000000081526004018080602001828103825260388152602001806122ee6038913960400191505060405180910390fd5b8080600360003373ffffffffffffffffffffffffffffffffffffffff1673ffffffffffffffffffffffffffffffffffffffff1681526020019081526020016000206002015411611076576040517f08c379a000000000000000000000000000000000000000000000000000000000815260040180806020018281038252601f8152602001807f596f7520646f206e6f74206861766520656e6f7567682062616c616e6365210081525060200191505060405180910390fd5b81600360003373ffffffffffffffffffffffffffffffffffffffff1673ffffffffffffffffffffffffffffffffffffffff168152602001908152602001600020600201600082825403925050819055503373ffffffffffffffffffffffffffffffffffffffff166108fc839081150290604051600060405180830381858888f1935050505015801561110c573d6000803e3d6000fd5b5061125d600360003373ffffffffffffffffffffffffffffffffffffffff1673ffffffffffffffffffffffffffffffffffffffff1681526020019081526020016000206001018054600181600116156101000203166002900480601f0160208091040260200160405190810160405280929190818152602001828054600181600116156101000203166002900480156111e65780601f106111bb576101008083540402835291602001916111e6565b820191906000526020600020905b8154815290600101906020018083116111c957829003601f168201915b50505050506040518060400160405280600f81526020017f45787465726e616c2057616c6c65740000000000000000000000000000000000815250846040518060400160405280600881526020017f5769746864726177000000000000000000000000000000000000000000000000815250611f8d565b5050565b6000606060006060806000611274612292565b600160008981526020019081526020016000206040518060c00160405290816000820154815260200160018201548152602001600282018054600181600116156101000203166002900480601f01602080910402602001604051908101604052809291908181526020018280546001816001161561010002031660029004801561133f5780601f106113145761010080835404028352916020019161133f565b820191906000526020600020905b81548152906001019060200180831161132257829003601f168201915b50505050508152602001600382018054600181600116156101000203166002900480601f0160208091040260200160405190810160405280929190818152602001828054600181600116156101000203166002900480156113e15780601f106113b6576101008083540402835291602001916113e1565b820191906000526020600020905b8154815290600101906020018083116113c457829003601f168201915b5050505050815260200160048201548152602001600582018054600181600116156101000203166002900480601f01602080910402602001604051908101604052809291908181526020018280546001816001161561010002031660029004801561148d5780601f106114625761010080835404028352916020019161148d565b820191906000526020600020905b81548152906001019060200180831161147057829003601f168201915b505050505081525050905080600001518160a0015182602001518360400151846060015185608001518494508292508191509650965096509650965096505091939550919395565b6060600360003373ffffffffffffffffffffffffffffffffffffffff1673ffffffffffffffffffffffffffffffffffffffff16815260200190815260200160002060050180548060200260200160405190810160405280929190818152602001828054801561156357602002820191906000526020600020905b81548152602001906001019080831161154f575b5050505050905090565b6000600360003373ffffffffffffffffffffffffffffffffffffffff1673ffffffffffffffffffffffffffffffffffffffff168152602001908152602001600020600101805460018160011615610100020316600290049050141561161d576040517f08c379a00000000000000000000000000000000000000000000000000000000081526004018080602001828103825260388152602001806122ee6038913960400191505060405180910390fd5b8080600360003373ffffffffffffffffffffffffffffffffffffffff1673ffffffffffffffffffffffffffffffffffffffff16815260200190815260200160002060020154116116d5576040517f08c379a000000000000000000000000000000000000000000000000000000000815260040180806020018281038252601f8152602001807f596f7520646f206e6f74206861766520656e6f7567682062616c616e6365210081525060200191505060405180910390fd5b6000600360008573ffffffffffffffffffffffffffffffffffffffff1673ffffffffffffffffffffffffffffffffffffffff1681526020019081526020016000206001018054600181600116156101000203166002900490501415611785576040517f08c379a000000000000000000000000000000000000000000000000000000000815260040180806020018281038252603f815260200180612326603f913960400191505060405180910390fd5b81600360003373ffffffffffffffffffffffffffffffffffffffff1673ffffffffffffffffffffffffffffffffffffffff1681526020019081526020016000206002016000828254039250508190555081600360008573ffffffffffffffffffffffffffffffffffffffff1673ffffffffffffffffffffffffffffffffffffffff16815260200190815260200160002060020160008282540192505081905550611a1a600360003373ffffffffffffffffffffffffffffffffffffffff1673ffffffffffffffffffffffffffffffffffffffff1681526020019081526020016000206001018054600181600116156101000203166002900480601f0160208091040260200160405190810160405280929190818152602001828054600181600116156101000203166002900480156118fe5780601f106118d3576101008083540402835291602001916118fe565b820191906000526020600020905b8154815290600101906020018083116118e157829003601f168201915b5050505050600360008673ffffffffffffffffffffffffffffffffffffffff1673ffffffffffffffffffffffffffffffffffffffff1681526020019081526020016000206001018054600181600116156101000203166002900480601f0160208091040260200160405190810160405280929190818152602001828054600181600116156101000203166002900480156119d95780601f106119ae576101008083540402835291602001916119d9565b820191906000526020600020905b8154815290600101906020018083116119bc57829003601f168201915b5050505050846040518060400160405280600881526020017f5472616e73666572000000000000000000000000000000000000000000000000815250611f8d565b505050565b600080600360003373ffffffffffffffffffffffffffffffffffffffff1673ffffffffffffffffffffffffffffffffffffffff1681526020019081526020016000206001018054600181600116156101000203166002900490501415611ad0576040517f08c379a00000000000000000000000000000000000000000000000000000000081526004018080602001828103825260388152602001806122ee6038913960400191505060405180910390fd5b600360003373ffffffffffffffffffffffffffffffffffffffff1673ffffffffffffffffffffffffffffffffffffffff16815260200190815260200160002060020154905090565b6000600360003373ffffffffffffffffffffffffffffffffffffffff1673ffffffffffffffffffffffffffffffffffffffff1681526020019081526020016000206001018054600181600116156101000203166002900490501415611bc8576040517f08c379a00000000000000000000000000000000000000000000000000000000081526004018080602001828103825260388152602001806122ee6038913960400191505060405180910390fd5b34600360003373ffffffffffffffffffffffffffffffffffffffff1673ffffffffffffffffffffffffffffffffffffffff16815260200190815260200160002060020160008282540192505081905550611d686040518060400160405280600f81526020017f45787465726e616c2057616c6c65740000000000000000000000000000000000815250600360003373ffffffffffffffffffffffffffffffffffffffff1673ffffffffffffffffffffffffffffffffffffffff1681526020019081526020016000206001018054600181600116156101000203166002900480601f016020809104026020016040519081016040528092919081815260200182805460018160011615610100020316600290048015611d275780601f10611cfc57610100808354040283529160200191611d27565b820191906000526020600020905b815481529060010190602001808311611d0a57829003601f168201915b5050505050346040518060400160405280600781526020017f4465706f73697400000000000000000000000000000000000000000000000000815250611f8d565b565b60606000600360003373ffffffffffffffffffffffffffffffffffffffff1673ffffffffffffffffffffffffffffffffffffffff16815260200190815260200160002060010180546001816001161561010002031660029004905014611eac57600360003373ffffffffffffffffffffffffffffffffffffffff1673ffffffffffffffffffffffffffffffffffffffff1681526020019081526020016000206001018054600181600116156101000203166002900480601f016020809104026020016040519081016040528092919081815260200182805460018160011615610100020316600290048015611ea05780601f10611e7557610100808354040283529160200191611ea0565b820191906000526020600020905b815481529060010190602001808311611e8357829003601f168201915b50505050509050611f8a565b600360003373ffffffffffffffffffffffffffffffffffffffff1673ffffffffffffffffffffffffffffffffffffffff1681526020019081526020016000206001018054600181600116156101000203166002900480601f016020809104026020016040519081016040528092919081815260200182805460018160011615610100020316600290048015611f825780601f10611f5757610100808354040283529160200191611f82565b820191906000526020600020905b815481529060010190602001808311611f6557829003601f168201915b505050505090505b90565b600060016000805481526020019081526020016000209050600054816000018190555042816001018190555084816002019080519060200190611fd1929190612212565b5083816003019080519060200190611fea929190612212565b508281600401819055508181600501908051906020019061200c929190612212565b50600360006002876040518082805190602001908083835b602083106120475780518252602082019150602081019050602083039250612024565b6001836020036101000a038019825116818451168082178552505050505050905001915050908152602001604051809103902060009054906101000a900473ffffffffffffffffffffffffffffffffffffffff1673ffffffffffffffffffffffffffffffffffffffff1673ffffffffffffffffffffffffffffffffffffffff1681526020019081526020016000206005016000549080600181540180825580915050906001820390600052602060002001600090919290919091505550600360006002866040518082805190602001908083835b6020831061213e578051825260208201915060208101905060208303925061211b565b6001836020036101000a038019825116818451168082178552505050505050905001915050908152602001604051809103902060009054906101000a900473ffffffffffffffffffffffffffffffffffffffff1673ffffffffffffffffffffffffffffffffffffffff1673ffffffffffffffffffffffffffffffffffffffff1681526020019081526020016000206005016000549080600181540180825580915050906001820390600052602060002001600090919290919091505550600160008082825401925050819055505050505050565b828054600181600116156101000203166002900490600052602060002090601f016020900481019282601f1061225357805160ff1916838001178555612281565b82800160010185558215612281579182015b82811115612280578251825591602001919060010190612265565b5b50905061228e91906122c8565b5090565b6040518060c001604052806000815260200160008152602001606081526020016060815260200160008152602001606081525090565b6122ea91905b808211156122e65760008160009055506001016122ce565b5090565b9056fe596f7572206164647265737320686173206e6f742072656769737465726564207965742120506c6561736520636865636b20616761696e2e5468652074617267657420616464726573732068617665206e6f742072656769737465726564207965742120506c6561736520636865636b20616761696e2e54686520616464726573732f6163636f756e74204944206861766520616c7265616479207265676973746572656421a265627a7a72315820eb57e0efa1be425d028d1834581250efeba345a68d437b9cb218e9e04c45723864736f6c63430005100032",
  "source": "pragma solidity >=0.4.21 <0.7.0;\n\ncontract Account {\n    /**\n     * User's information\n     * @param bindAddress User's external Ethereum address bind to this account\n     * @param accountID User's registration account ID\n     * @param balance Balance in the account for this user\n     * @param inGame Whether the player is in the game or not\n     * @param lastGameID The last game this user participate in\n     * @param transactionRecord The transaction record of this user\n     * @notice The balance is not the ETH in user's actual Ethereum address, but his/her remaining in this contract.\n     */\n    struct User {\n        address bindAddress;\n        string accountID;\n        uint balance;\n        bool inGame;\n        uint lastGameID;\n        uint[] transactionRecord;\n    }\n\n    /**\n     * Transaction detail\n     * @param _transactionID ID of the transaction\n     * @param _time The time of the transaction\n     * @param _from Where the amount of ETH is transferred from\n     * @param _to Where the amount of ETH is transferred to\n     * @param _amount the The amount of ETH being transferred\n     * @param _type The characteristic of this transaction, e.g., Deposit, Withdraw, Transfer, Bet, Reward, etc.\n     */\n    struct Transaction {\n        uint _transactionID;\n        uint _time;\n        string _from;\n        string _to;\n        uint _amount;\n        string _type;\n    }\n\n    /// Counter of the transaction ID\n    uint transactionIDCounter = 1;\n\n    /**\n     * @param _from Where the amount of ETH is transferred from\n     * @param _to Where the amount of ETH is transferred to\n     * @param _amount The amount of ETH being transferred\n     * @param _type The characteristic of this transaction, e.g., Deposit, Withdraw, Transfer, Bet, Reward, etc.\n     * @dev Make the function `internal`, so it will be available in the subcontract(s).\n     */\n    function addTransaction(string memory _from, string memory _to, uint _amount, string memory _type) internal {\n        Transaction storage transaction = transactionHistory[transactionIDCounter];\n        transaction._transactionID = transactionIDCounter;\n        transaction._time = now;\n        transaction._from = _from;\n        transaction._to = _to;\n        transaction._amount = _amount;\n        transaction._type = _type;\n\n        userList[accountToAddress[_from]].transactionRecord.push(transactionIDCounter);\n        userList[accountToAddress[_to]].transactionRecord.push(transactionIDCounter);\n\n        transactionIDCounter += 1;\n    }\n\n    /**\n     * @param targetTransactionID The transaction to reveal the details\n     */\n    function transactionCheck(uint targetTransactionID) external view returns (uint _id, string memory _type, uint _time, string memory _from, string memory _to, uint _amount) {\n        Transaction memory transaction = transactionHistory[targetTransactionID];\n        return (transaction._transactionID, transaction._type, transaction._time, transaction._from, transaction._to, transaction._amount);\n    }\n\n    /**\n     * The user's transaction history\n     */\n    function userTransactionArrayCheck() external view returns (uint[] memory) {\n        return userList[msg.sender].transactionRecord;\n    }\n\n    /// Mapping from transactionID to transaction's detail.\n    mapping (uint => Transaction) transactionHistory;\n    /// Mapping from accountID to address.\n    mapping(string => address) internal accountToAddress;\n    /// Mapping from address to user's information.\n    mapping(address => User) internal userList;\n\n    /**\n     * A account will be created if both the address and the account ID is not taken.\n     * @param  accountToRegister The account ID the user would like to use.\n     */\n    modifier notRegistered (string memory accountToRegister) {\n        require (\n            userList[msg.sender].bindAddress == address(0) && bytes(userList[msg.sender].accountID).length == 0 && userList[accountToAddress[accountToRegister]].bindAddress == address(0) && bytes(userList[accountToAddress[accountToRegister]].accountID).length == 0,\n            \"The address/account ID have already registered!\"\n        );\n        _;\n    }\n\n    /**\n     * Guarantee the msg.sender is a registered user.\n     */\n    modifier registered {\n        require (\n            bytes(userList[msg.sender].accountID).length != 0,\n            \"Your address has not registered yet! Please check again.\"\n        );\n        _;\n    }\n\n    /**\n     * Guarantee the msg.sender has enough balance to do the balance-related activity.\n     */\n    modifier enoughBalance(uint amount) {\n        require (userList[msg.sender].balance > amount, \"You do not have enough balance!\");\n        _;\n    }\n\n    /**\n     * @param accountToRegister The account ID the user would like to use.\n     */\n    function createAccount(string memory accountToRegister) public notRegistered(accountToRegister) {\n        // Add the accountToRegister => msg.sender to mapping\n        accountToAddress[accountToRegister] = msg.sender;\n        // Add the User struct to userList\n        User storage user = userList[msg.sender];\n        user.accountID = accountToRegister;\n        user.bindAddress = msg.sender;\n    }\n\n    function checkRegistration() external view returns (string memory) {\n        if (bytes(userList[msg.sender].accountID).length != 0) {\n            return userList[msg.sender].accountID;\n        }\n        return userList[msg.sender].accountID;\n    }\n\n    /**\n     * User deposit the money to the contract, and the contract will give him a \"virtual\" balance, similar to deposit fiat money to bank.\n     */\n    function deposit() external payable registered{\n        userList[msg.sender].balance += msg.value;\n        addTransaction(\"External Wallet\", userList[msg.sender].accountID, msg.value, \"Deposit\");\n    }\n\n    /**\n     * User transfer his/her deposit to another registered user with the address.\n     * @param toAddress The address of the target registered user to transfer balance to.\n     * @param amount The amount of balance to transfer to the target registered user.\n     */\n    function transferToAddress(address toAddress, uint amount) external registered enoughBalance(amount) {\n        // The target should also be a registered account as well\n        require (\n            bytes(userList[toAddress].accountID).length != 0,\n            \"The target address have not registered yet! Please check again.\"\n        );\n        userList[msg.sender].balance -= amount;\n        userList[toAddress].balance += amount;\n\n        addTransaction(userList[msg.sender].accountID, userList[toAddress].accountID, amount, \"Transfer\");\n    }\n\n    /**\n     * User transfer his/her deposit to another registered user with the accountID.\n     * @param  toAccountID The accountID of the target registered user to transfer balance to.\n     * @param amount The amount of balance to transfer to the target registered user.\n     */\n    function transferToID(string memory toAccountID, uint amount) public registered enoughBalance(amount) {\n        // The target should also be a registered account as well\n        require (\n            bytes(userList[accountToAddress[toAccountID]].accountID).length != 0,\n            \"The target address have not registered yet! Please check again.\"\n        );\n        userList[msg.sender].balance -= amount;\n        userList[accountToAddress[toAccountID]].balance += amount;\n\n        addTransaction(userList[msg.sender].accountID, toAccountID, amount, \"Transfer\");\n    }\n\n    /**\n     * Withdraw the balance from the contract, get the token back to his/her ethureum address.\n     * @param amount The amount of balance to withdraw.\n     */\n    function withdraw(uint amount) external payable registered enoughBalance(amount) {\n        userList[msg.sender].balance -= amount;\n        msg.sender.transfer(amount);\n\n        addTransaction(userList[msg.sender].accountID, \"External Wallet\", amount, \"Withdraw\");\n    }\n\n    /**\n     * Show the balance.\n     */\n    function checkBalance() external view registered returns (uint balance) {\n        return userList[msg.sender].balance;\n    }\n}",
  "sourcePath": "/Users/blanker/Documents/Codings/DApp/CoinFlipping/contracts/Account.sol",
  "compiler": {
    "name": "solc",
    "version": "0.5.16+commit.9c3226ce.Emscripten.clang"
  },
  "schemaVersion": "3.0.23",
  "updatedAt": "2020-04-25T09:59:29.465Z",
  "devdoc": {
    "methods": {
      "createAccount(string)": {
        "params": {
          "accountToRegister": "The account ID the user would like to use."
        }
      },
      "transactionCheck(uint256)": {
        "params": {
          "targetTransactionID": "The transaction to reveal the details"
        }
      },
      "transferToAddress(address,uint256)": {
        "params": {
          "amount": "The amount of balance to transfer to the target registered user.",
          "toAddress": "The address of the target registered user to transfer balance to."
        }
      },
      "transferToID(string,uint256)": {
        "params": {
          "amount": "The amount of balance to transfer to the target registered user.",
          "toAccountID": "The accountID of the target registered user to transfer balance to."
        }
      },
      "withdraw(uint256)": {
        "params": {
          "amount": "The amount of balance to withdraw."
        }
      }
    }
  },
  "userdoc": {
    "methods": {
      "checkBalance()": {
        "notice": "Show the balance."
      },
      "deposit()": {
        "notice": "User deposit the money to the contract, and the contract will give him a \"virtual\" balance, similar to deposit fiat money to bank."
      },
      "transferToAddress(address,uint256)": {
        "notice": "User transfer his/her deposit to another registered user with the address."
      },
      "transferToID(string,uint256)": {
        "notice": "User transfer his/her deposit to another registered user with the accountID."
      },
      "userTransactionArrayCheck()": {
        "notice": "The user's transaction history"
      },
      "withdraw(uint256)": {
        "notice": "Withdraw the balance from the contract, get the token back to his/her ethureum address."
      }
    }
  }
}