{
  "contractName": "Account",
  "abi": [
    {
      "anonymous": false,
      "inputs": [
        {
          "indexed": false,
          "internalType": "uint256",
          "name": "balance",
          "type": "uint256"
        }
      ],
      "name": "showBalance",
      "type": "event"
    },
    {
      "constant": false,
      "inputs": [
        {
          "internalType": "string",
          "name": "accountToRegister",
          "type": "string"
        }
      ],
      "name": "createAccount",
      "outputs": [],
      "payable": false,
      "stateMutability": "nonpayable",
      "type": "function"
    },
    {
      "constant": true,
      "inputs": [],
      "name": "checkRegistration",
      "outputs": [
        {
          "internalType": "string",
          "name": "",
          "type": "string"
        }
      ],
      "payable": false,
      "stateMutability": "view",
      "type": "function"
    },
    {
      "constant": false,
      "inputs": [],
      "name": "deposit",
      "outputs": [],
      "payable": true,
      "stateMutability": "payable",
      "type": "function"
    },
    {
      "constant": false,
      "inputs": [
        {
          "internalType": "address",
          "name": "toAddress",
          "type": "address"
        },
        {
          "internalType": "uint256",
          "name": "amount",
          "type": "uint256"
        }
      ],
      "name": "transferToAddress",
      "outputs": [],
      "payable": false,
      "stateMutability": "nonpayable",
      "type": "function"
    },
    {
      "constant": false,
      "inputs": [
        {
          "internalType": "string",
          "name": "toAccountID",
          "type": "string"
        },
        {
          "internalType": "uint256",
          "name": "amount",
          "type": "uint256"
        }
      ],
      "name": "transferToID",
      "outputs": [],
      "payable": false,
      "stateMutability": "nonpayable",
      "type": "function"
    },
    {
      "constant": false,
      "inputs": [
        {
          "internalType": "uint256",
          "name": "amount",
          "type": "uint256"
        }
      ],
      "name": "withdraw",
      "outputs": [],
      "payable": true,
      "stateMutability": "payable",
      "type": "function"
    },
    {
      "constant": true,
      "inputs": [],
      "name": "checkBalance",
      "outputs": [
        {
          "internalType": "uint256",
          "name": "balance",
          "type": "uint256"
        }
      ],
      "payable": false,
      "stateMutability": "view",
      "type": "function"
    }
  ],
  "bytecode": "0x608060405234801561001057600080fd5b5061180e806100206000396000f3fe6080604052600436106100705760003560e01c8063acef60371161004e578063acef60371461023d578063c71daccb14610298578063d0e30db0146102c3578063fd1b2100146102cd57610070565b80630c41bda814610075578063298daf5b146101475780632e1a7d4d1461020f575b600080fd5b34801561008157600080fd5b506101456004803603604081101561009857600080fd5b81019080803590602001906401000000008111156100b557600080fd5b8201836020820111156100c757600080fd5b803590602001918460018302840111640100000000831117156100e957600080fd5b91908080601f016020809104026020016040519081016040528093929190818152602001838380828437600081840152601f19601f8201169050808301925050505050505091929192908035906020019092919050505061035d565b005b34801561015357600080fd5b5061020d6004803603602081101561016a57600080fd5b810190808035906020019064010000000081111561018757600080fd5b82018360208201111561019957600080fd5b803590602001918460018302840111640100000000831117156101bb57600080fd5b91908080601f016020809104026020016040519081016040528093929190818152602001838380828437600081840152601f19601f8201169050808301925050505050505091929192905050506107a3565b005b61023b6004803603602081101561022557600080fd5b8101908080359060200190929190505050610c45565b005b34801561024957600080fd5b506102966004803603604081101561026057600080fd5b81019080803573ffffffffffffffffffffffffffffffffffffffff16906020019092919080359060200190929190505050610ec1565b005b3480156102a457600080fd5b506102ad6111f7565b6040518082815260200191505060405180910390f35b6102cb6112f0565b005b3480156102d957600080fd5b506102e261146b565b6040518080602001828103825283818151815260200191508051906020019080838360005b83811015610322578082015181840152602081019050610307565b50505050905090810190601f16801561034f5780820380516001836020036101000a031916815260200191505b509250505060405180910390f35b6000600160003373ffffffffffffffffffffffffffffffffffffffff1673ffffffffffffffffffffffffffffffffffffffff168152602001908152602001600020600101805460018160011615610100020316600290049050141561040d576040517f08c379a00000000000000000000000000000000000000000000000000000000081526004018080602001828103825260388152602001806117346038913960400191505060405180910390fd5b8080600160003373ffffffffffffffffffffffffffffffffffffffff1673ffffffffffffffffffffffffffffffffffffffff16815260200190815260200160002060020154116104c5576040517f08c379a000000000000000000000000000000000000000000000000000000000815260040180806020018281038252601f8152602001807f596f7520646f206e6f74206861766520656e6f7567682062616c616e6365210081525060200191505060405180910390fd5b60006001600080866040518082805190602001908083835b6020831061050057805182526020820191506020810190506020830392506104dd565b6001836020036101000a038019825116818451168082178552505050505050905001915050908152602001604051809103902060009054906101000a900473ffffffffffffffffffffffffffffffffffffffff1673ffffffffffffffffffffffffffffffffffffffff1673ffffffffffffffffffffffffffffffffffffffff16815260200190815260200160002060010180546001816001161561010002031660029004905014156105fd576040517f08c379a000000000000000000000000000000000000000000000000000000000815260040180806020018281038252603f81526020018061176c603f913960400191505060405180910390fd5b81600160003373ffffffffffffffffffffffffffffffffffffffff1673ffffffffffffffffffffffffffffffffffffffff16815260200190815260200160002060020160008282540392505081905550816001600080866040518082805190602001908083835b602083106106875780518252602082019150602081019050602083039250610664565b6001836020036101000a038019825116818451168082178552505050505050905001915050908152602001604051809103902060009054906101000a900473ffffffffffffffffffffffffffffffffffffffff1673ffffffffffffffffffffffffffffffffffffffff1673ffffffffffffffffffffffffffffffffffffffff168152602001908152602001600020600201600082825401925050819055507ff0b60c507a2e93235b6bed490cd5616aa2f43a849c3d167e96d6c5099b5524e5600160003373ffffffffffffffffffffffffffffffffffffffff1673ffffffffffffffffffffffffffffffffffffffff168152602001908152602001600020600201546040518082815260200191505060405180910390a1505050565b80600073ffffffffffffffffffffffffffffffffffffffff16600160003373ffffffffffffffffffffffffffffffffffffffff1673ffffffffffffffffffffffffffffffffffffffff16815260200190815260200160002060000160009054906101000a900473ffffffffffffffffffffffffffffffffffffffff1673ffffffffffffffffffffffffffffffffffffffff1614801561089857506000600160003373ffffffffffffffffffffffffffffffffffffffff1673ffffffffffffffffffffffffffffffffffffffff168152602001908152602001600020600101805460018160011615610100020316600290049050145b80156109ba5750600073ffffffffffffffffffffffffffffffffffffffff166001600080846040518082805190602001908083835b602083106108f057805182526020820191506020810190506020830392506108cd565b6001836020036101000a038019825116818451168082178552505050505050905001915050908152602001604051809103902060009054906101000a900473ffffffffffffffffffffffffffffffffffffffff1673ffffffffffffffffffffffffffffffffffffffff1673ffffffffffffffffffffffffffffffffffffffff16815260200190815260200160002060000160009054906101000a900473ffffffffffffffffffffffffffffffffffffffff1673ffffffffffffffffffffffffffffffffffffffff16145b8015610aa4575060006001600080846040518082805190602001908083835b602083106109fc57805182526020820191506020810190506020830392506109d9565b6001836020036101000a038019825116818451168082178552505050505050905001915050908152602001604051809103902060009054906101000a900473ffffffffffffffffffffffffffffffffffffffff1673ffffffffffffffffffffffffffffffffffffffff1673ffffffffffffffffffffffffffffffffffffffff168152602001908152602001600020600101805460018160011615610100020316600290049050145b610af9576040517f08c379a000000000000000000000000000000000000000000000000000000000815260040180806020018281038252602f8152602001806117ab602f913960400191505060405180910390fd5b336000836040518082805190602001908083835b60208310610b305780518252602082019150602081019050602083039250610b0d565b6001836020036101000a038019825116818451168082178552505050505050905001915050908152602001604051809103902060006101000a81548173ffffffffffffffffffffffffffffffffffffffff021916908373ffffffffffffffffffffffffffffffffffffffff1602179055506000600160003373ffffffffffffffffffffffffffffffffffffffff1673ffffffffffffffffffffffffffffffffffffffff168152602001908152602001600020905082816001019080519060200190610bfc92919061168e565b50338160000160006101000a81548173ffffffffffffffffffffffffffffffffffffffff021916908373ffffffffffffffffffffffffffffffffffffffff160217905550505050565b6000600160003373ffffffffffffffffffffffffffffffffffffffff1673ffffffffffffffffffffffffffffffffffffffff1681526020019081526020016000206001018054600181600116156101000203166002900490501415610cf5576040517f08c379a00000000000000000000000000000000000000000000000000000000081526004018080602001828103825260388152602001806117346038913960400191505060405180910390fd5b8080600160003373ffffffffffffffffffffffffffffffffffffffff1673ffffffffffffffffffffffffffffffffffffffff1681526020019081526020016000206002015411610dad576040517f08c379a000000000000000000000000000000000000000000000000000000000815260040180806020018281038252601f8152602001807f596f7520646f206e6f74206861766520656e6f7567682062616c616e6365210081525060200191505060405180910390fd5b81600160003373ffffffffffffffffffffffffffffffffffffffff1673ffffffffffffffffffffffffffffffffffffffff168152602001908152602001600020600201600082825403925050819055503373ffffffffffffffffffffffffffffffffffffffff166108fc839081150290604051600060405180830381858888f19350505050158015610e43573d6000803e3d6000fd5b507ff0b60c507a2e93235b6bed490cd5616aa2f43a849c3d167e96d6c5099b5524e5600160003373ffffffffffffffffffffffffffffffffffffffff1673ffffffffffffffffffffffffffffffffffffffff168152602001908152602001600020600201546040518082815260200191505060405180910390a15050565b6000600160003373ffffffffffffffffffffffffffffffffffffffff1673ffffffffffffffffffffffffffffffffffffffff1681526020019081526020016000206001018054600181600116156101000203166002900490501415610f71576040517f08c379a00000000000000000000000000000000000000000000000000000000081526004018080602001828103825260388152602001806117346038913960400191505060405180910390fd5b8080600160003373ffffffffffffffffffffffffffffffffffffffff1673ffffffffffffffffffffffffffffffffffffffff1681526020019081526020016000206002015411611029576040517f08c379a000000000000000000000000000000000000000000000000000000000815260040180806020018281038252601f8152602001807f596f7520646f206e6f74206861766520656e6f7567682062616c616e6365210081525060200191505060405180910390fd5b6000600160008573ffffffffffffffffffffffffffffffffffffffff1673ffffffffffffffffffffffffffffffffffffffff16815260200190815260200160002060010180546001816001161561010002031660029004905014156110d9576040517f08c379a000000000000000000000000000000000000000000000000000000000815260040180806020018281038252603f81526020018061176c603f913960400191505060405180910390fd5b81600160003373ffffffffffffffffffffffffffffffffffffffff1673ffffffffffffffffffffffffffffffffffffffff1681526020019081526020016000206002016000828254039250508190555081600160008573ffffffffffffffffffffffffffffffffffffffff1673ffffffffffffffffffffffffffffffffffffffff168152602001908152602001600020600201600082825401925050819055507ff0b60c507a2e93235b6bed490cd5616aa2f43a849c3d167e96d6c5099b5524e5600160003373ffffffffffffffffffffffffffffffffffffffff1673ffffffffffffffffffffffffffffffffffffffff168152602001908152602001600020600201546040518082815260200191505060405180910390a1505050565b600080600160003373ffffffffffffffffffffffffffffffffffffffff1673ffffffffffffffffffffffffffffffffffffffff16815260200190815260200160002060010180546001816001161561010002031660029004905014156112a8576040517f08c379a00000000000000000000000000000000000000000000000000000000081526004018080602001828103825260388152602001806117346038913960400191505060405180910390fd5b600160003373ffffffffffffffffffffffffffffffffffffffff1673ffffffffffffffffffffffffffffffffffffffff16815260200190815260200160002060020154905090565b6000600160003373ffffffffffffffffffffffffffffffffffffffff1673ffffffffffffffffffffffffffffffffffffffff16815260200190815260200160002060010180546001816001161561010002031660029004905014156113a0576040517f08c379a00000000000000000000000000000000000000000000000000000000081526004018080602001828103825260388152602001806117346038913960400191505060405180910390fd5b34600160003373ffffffffffffffffffffffffffffffffffffffff1673ffffffffffffffffffffffffffffffffffffffff168152602001908152602001600020600201600082825401925050819055507ff0b60c507a2e93235b6bed490cd5616aa2f43a849c3d167e96d6c5099b5524e5600160003373ffffffffffffffffffffffffffffffffffffffff1673ffffffffffffffffffffffffffffffffffffffff168152602001908152602001600020600201546040518082815260200191505060405180910390a1565b60606000600160003373ffffffffffffffffffffffffffffffffffffffff1673ffffffffffffffffffffffffffffffffffffffff168152602001908152602001600020600101805460018160011615610100020316600290049050146115ad57600160003373ffffffffffffffffffffffffffffffffffffffff1673ffffffffffffffffffffffffffffffffffffffff1681526020019081526020016000206001018054600181600116156101000203166002900480601f0160208091040260200160405190810160405280929190818152602001828054600181600116156101000203166002900480156115a15780601f10611576576101008083540402835291602001916115a1565b820191906000526020600020905b81548152906001019060200180831161158457829003601f168201915b5050505050905061168b565b600160003373ffffffffffffffffffffffffffffffffffffffff1673ffffffffffffffffffffffffffffffffffffffff1681526020019081526020016000206001018054600181600116156101000203166002900480601f0160208091040260200160405190810160405280929190818152602001828054600181600116156101000203166002900480156116835780601f1061165857610100808354040283529160200191611683565b820191906000526020600020905b81548152906001019060200180831161166657829003601f168201915b505050505090505b90565b828054600181600116156101000203166002900490600052602060002090601f016020900481019282601f106116cf57805160ff19168380011785556116fd565b828001600101855582156116fd579182015b828111156116fc5782518255916020019190600101906116e1565b5b50905061170a919061170e565b5090565b61173091905b8082111561172c576000816000905550600101611714565b5090565b9056fe596f7572206164647265737320686173206e6f742072656769737465726564207965742120506c6561736520636865636b20616761696e2e5468652074617267657420616464726573732068617665206e6f742072656769737465726564207965742120506c6561736520636865636b20616761696e2e54686520616464726573732f6163636f756e74204944206861766520616c7265616479207265676973746572656421a265627a7a7231582060ffb58c3fb5571dfe3215bdcb89ba1f12abed51704af91159d620733d78427e64736f6c63430005100032",
  "source": "pragma solidity >=0.4.21 <0.7.0;\n\ncontract Account {\n    /**\n     * User's information\n     */\n    struct User {\n        address bindAddress;\n        string accountID;\n        uint balance;\n        bool inGame;\n        uint lastGameID;\n    }\n\n    /// Mapping from accountID to address.\n    mapping(string => address) internal accountToAddress;\n    /// Mapping from address to user's information.\n    mapping(address => User) internal userList;\n\n    /**\n     * A account will be created if both the address and the account ID is not taken.\n     * @param  accountToRegister The account ID the user would like to use.\n     */\n    modifier notRegistered (string memory accountToRegister) {\n        require (\n            userList[msg.sender].bindAddress == address(0) && bytes(userList[msg.sender].accountID).length == 0 && userList[accountToAddress[accountToRegister]].bindAddress == address(0) && bytes(userList[accountToAddress[accountToRegister]].accountID).length == 0,\n            \"The address/account ID have already registered!\"\n        );\n        _;\n    }\n\n    /**\n     * Guarantee the msg.sender is a registered user.\n     */\n    modifier registered {\n        require (\n            bytes(userList[msg.sender].accountID).length != 0,\n            \"Your address has not registered yet! Please check again.\"\n        );\n        _;\n    }\n\n    /**\n     * Guarantee the msg.sender has enough balance to do the balance-related activity.\n     */\n    modifier enoughBalance(uint amount) {\n        require (userList[msg.sender].balance > amount, \"You do not have enough balance!\");\n        _;\n    }\n\n    /**\n     * @param accountToRegister The account ID the user would like to use.\n     */\n    function createAccount(string memory accountToRegister) public notRegistered(accountToRegister) {\n        // Add the accountToRegister => msg.sender to mapping\n        accountToAddress[accountToRegister] = msg.sender;\n        // Add the User struct to userList\n        User storage user = userList[msg.sender];\n        user.accountID = accountToRegister;\n        user.bindAddress = msg.sender;\n    }\n\n    function checkRegistration() external view returns (string memory) {\n        if (bytes(userList[msg.sender].accountID).length != 0) {\n            return userList[msg.sender].accountID;\n        }\n        return userList[msg.sender].accountID;\n    }\n\n    /**\n     * User deposit the money to the contract, and the contract will give him a \"virtual\" balance, similar to deposit fiat money to bank.\n     */\n    function deposit() external payable registered{\n        userList[msg.sender].balance += msg.value;\n\n        emit showBalance(userList[msg.sender].balance);\n    }\n\n    /**\n     * User transfer his/her deposit to another registered user with the address.\n     * @param toAddress The address of the target registered user to transfer balance to.\n     * @param amount The amount of balance to transfer to the target registered user.\n     */\n    function transferToAddress(address toAddress, uint amount) external registered enoughBalance(amount) {\n        // The target should also be a registered account as well\n        require (\n            bytes(userList[toAddress].accountID).length != 0,\n            \"The target address have not registered yet! Please check again.\"\n        );\n        userList[msg.sender].balance -= amount;\n        userList[toAddress].balance += amount;\n\n        emit showBalance(userList[msg.sender].balance);\n    }\n\n    event showBalance(uint balance);\n\n    /**\n     * User transfer his/her deposit to another registered user with the accountID.\n     * @param  toAccountID The accountID of the target registered user to transfer balance to.\n     * @param amount The amount of balance to transfer to the target registered user.\n     */\n    function transferToID(string memory toAccountID, uint amount) public registered enoughBalance(amount) {\n        // The target should also be a registered account as well\n        require (\n            bytes(userList[accountToAddress[toAccountID]].accountID).length != 0,\n            \"The target address have not registered yet! Please check again.\"\n        );\n        userList[msg.sender].balance -= amount;\n        userList[accountToAddress[toAccountID]].balance += amount;\n\n        emit showBalance(userList[msg.sender].balance);\n    }\n\n    /**\n     * Withdraw the balance from the contract, get the token back to his/her ethureum address.\n     * @param amount The amount of balance to withdraw.\n     */\n    function withdraw(uint amount) external payable registered enoughBalance(amount) {\n        userList[msg.sender].balance -= amount;\n        msg.sender.transfer(amount);\n\n        emit showBalance(userList[msg.sender].balance);\n    }\n\n    /**\n     * Show the balance.\n     */\n    function checkBalance() external view registered returns (uint balance) {\n        return userList[msg.sender].balance;\n    }\n}",
  "sourcePath": "/Users/blanker/Documents/Codings/DApp/CoinFlipping/contracts/Account.sol",
  "compiler": {
    "name": "solc",
    "version": "0.5.16+commit.9c3226ce.Emscripten.clang"
  },
  "schemaVersion": "3.0.23",
  "updatedAt": "2020-04-24T15:00:46.585Z",
  "devdoc": {
    "methods": {
      "createAccount(string)": {
        "params": {
          "accountToRegister": "The account ID the user would like to use."
        }
      },
      "transferToAddress(address,uint256)": {
        "params": {
          "amount": "The amount of balance to transfer to the target registered user.",
          "toAddress": "The address of the target registered user to transfer balance to."
        }
      },
      "transferToID(string,uint256)": {
        "params": {
          "amount": "The amount of balance to transfer to the target registered user.",
          "toAccountID": "The accountID of the target registered user to transfer balance to."
        }
      },
      "withdraw(uint256)": {
        "params": {
          "amount": "The amount of balance to withdraw."
        }
      }
    }
  },
  "userdoc": {
    "methods": {
      "checkBalance()": {
        "notice": "Show the balance."
      },
      "deposit()": {
        "notice": "User deposit the money to the contract, and the contract will give him a \"virtual\" balance, similar to deposit fiat money to bank."
      },
      "transferToAddress(address,uint256)": {
        "notice": "User transfer his/her deposit to another registered user with the address."
      },
      "transferToID(string,uint256)": {
        "notice": "User transfer his/her deposit to another registered user with the accountID."
      },
      "withdraw(uint256)": {
        "notice": "Withdraw the balance from the contract, get the token back to his/her ethureum address."
      }
    }
  }
}